{
  "_format": "hh-sol-artifact-1",
  "contractName": "TestingCrossMarginTrading",
  "sourceName": "contracts/CrossMarginTradingTest.sol",
  "abi": [
    {
      "inputs": [],
      "stateMutability": "nonpayable",
      "type": "constructor"
    },
    {
      "stateMutability": "payable",
      "type": "fallback"
    },
    {
      "inputs": [
        {
          "internalType": "uint256",
          "name": "amount",
          "type": "uint256"
        }
      ],
      "name": "depositIntoMarginAccount",
      "outputs": [],
      "stateMutability": "nonpayable",
      "type": "function"
    },
    {
      "inputs": [],
      "name": "i_swapRouter",
      "outputs": [
        {
          "internalType": "contract ISwapRouter",
          "name": "",
          "type": "address"
        }
      ],
      "stateMutability": "view",
      "type": "function"
    },
    {
      "inputs": [
        {
          "internalType": "contract IERC20[]",
          "name": "tokens",
          "type": "address[]"
        },
        {
          "internalType": "uint256[]",
          "name": "amounts",
          "type": "uint256[]"
        },
        {
          "internalType": "uint256[]",
          "name": "",
          "type": "uint256[]"
        },
        {
          "internalType": "bytes",
          "name": "userData",
          "type": "bytes"
        }
      ],
      "name": "receiveFlashLoan",
      "outputs": [],
      "stateMutability": "nonpayable",
      "type": "function"
    },
    {
      "inputs": [
        {
          "internalType": "uint256",
          "name": "repay",
          "type": "uint256"
        },
        {
          "internalType": "address",
          "name": "tokenAddress",
          "type": "address"
        },
        {
          "internalType": "uint8",
          "name": "direction",
          "type": "uint8"
        },
        {
          "internalType": "uint256",
          "name": "profit",
          "type": "uint256"
        }
      ],
      "name": "requestClose",
      "outputs": [],
      "stateMutability": "nonpayable",
      "type": "function"
    },
    {
      "inputs": [
        {
          "internalType": "uint256",
          "name": "amount",
          "type": "uint256"
        },
        {
          "internalType": "address",
          "name": "tokenAddress",
          "type": "address"
        },
        {
          "internalType": "uint8",
          "name": "direction",
          "type": "uint8"
        }
      ],
      "name": "requestOpen",
      "outputs": [],
      "stateMutability": "nonpayable",
      "type": "function"
    },
    {
      "inputs": [
        {
          "internalType": "uint256",
          "name": "amount",
          "type": "uint256"
        }
      ],
      "name": "withdrawFromMarginAccount",
      "outputs": [],
      "stateMutability": "nonpayable",
      "type": "function"
    },
    {
      "stateMutability": "payable",
      "type": "receive"
    }
  ],
  "bytecode": "0x61010060405234801561001157600080fd5b5073e592427a0aece92de3edee1f18e0157c0586156473ffffffffffffffffffffffffffffffffffffffff1660808173ffffffffffffffffffffffffffffffffffffffff1660601b8152505073b27308f9f90d607463bb33ea1bebb41c27ce5ab673ffffffffffffffffffffffffffffffffffffffff1660a08173ffffffffffffffffffffffffffffffffffffffff1660601b8152505073a97684ead0e402dc232d5a977953df7ecbab3cdb73ffffffffffffffffffffffffffffffffffffffff1660c08173ffffffffffffffffffffffffffffffffffffffff1660601b8152505073ba12222222228d8ba445958a75a0704d566bf2c873ffffffffffffffffffffffffffffffffffffffff1660e08173ffffffffffffffffffffffffffffffffffffffff1660601b81525050732791bca1f2de4661ed88a30c99a7a9449aa841746000806101000a81548173ffffffffffffffffffffffffffffffffffffffff021916908373ffffffffffffffffffffffffffffffffffffffff16021790555073625e7708f30ca75bfd92586e17077590c60eb4cd60026000732791bca1f2de4661ed88a30c99a7a9449aa8417473ffffffffffffffffffffffffffffffffffffffff1673ffffffffffffffffffffffffffffffffffffffff16815260200190815260200160002060006101000a81548173ffffffffffffffffffffffffffffffffffffffff021916908373ffffffffffffffffffffffffffffffffffffffff160217905550736d80113e533a2c0fe82eabd35f1875dcea89ea9760026000730d500b1d8e8ef31e21c99d1db9a6444d3adf127073ffffffffffffffffffffffffffffffffffffffff1673ffffffffffffffffffffffffffffffffffffffff16815260200190815260200160002060006101000a81548173ffffffffffffffffffffffffffffffffffffffff021916908373ffffffffffffffffffffffffffffffffffffffff16021790555073e50fa9b3c56ffb159cb0fca61f5c9d750e8128c860026000737ceb23fd6bc0add59e62ac25578270cff1b9f61973ffffffffffffffffffffffffffffffffffffffff1673ffffffffffffffffffffffffffffffffffffffff16815260200190815260200160002060006101000a81548173ffffffffffffffffffffffffffffffffffffffff021916908373ffffffffffffffffffffffffffffffffffffffff16021790555073078f358208685046a11c85e8ad32895ded33a24960026000731bfd67037b42cf73acf2047067bd4f2c47d9bfd673ffffffffffffffffffffffffffffffffffffffff1673ffffffffffffffffffffffffffffffffffffffff16815260200190815260200160002060006101000a81548173ffffffffffffffffffffffffffffffffffffffff021916908373ffffffffffffffffffffffffffffffffffffffff16021790555073ea1132120ddcdda2f119e99fa7a27a0d036f7ac960026000733a58a54c066fdc0f2d55fc9c89f0415c92ebf3c473ffffffffffffffffffffffffffffffffffffffff1673ffffffffffffffffffffffffffffffffffffffff16815260200190815260200160002060006101000a81548173ffffffffffffffffffffffffffffffffffffffff021916908373ffffffffffffffffffffffffffffffffffffffff16021790555073191c10aa4af7c30e871e70c95db0e4eb77237530600260007353e0bca35ec356bd5dddfebbd1fc0fd03fabad3973ffffffffffffffffffffffffffffffffffffffff1673ffffffffffffffffffffffffffffffffffffffff16815260200190815260200160002060006101000a81548173ffffffffffffffffffffffffffffffffffffffff021916908373ffffffffffffffffffffffffffffffffffffffff16021790555060805160601c60a05160601c60c05160601c60e05160601c615cd96200062c6000396000818161039901528181610a2a015261129f0152600081816104340152610ac40152600081816116e401528181611c2b015281816123620152818161327501526138c901526000818161015c01528181611584015281816117bc01528181611a8c01528181611d03015281816121c40152818161243a0152818161334d0152818161372b01526139a10152615cd96000f3fe6080604052600436106100595760003560e01c806358fb80541461006257806397a014891461008d578063b87e8729146100b6578063b9fb1259146100df578063d254127414610108578063f04f27071461013157610060565b3661006057005b005b34801561006e57600080fd5b5061007761015a565b604051610084919061557c565b60405180910390f35b34801561009957600080fd5b506100b460048036038101906100af9190614f3b565b61017e565b005b3480156100c257600080fd5b506100dd60048036038101906100d89190614e8e565b610432565b005b3480156100eb57600080fd5b5061010660048036038101906101019190614ee8565b61080e565b005b34801561011457600080fd5b5061012f600480360381019061012a9190614e8e565b610ac2565b005b34801561013d57600080fd5b5061015860048036038101906101539190614d8a565b610f5d565b005b7f000000000000000000000000000000000000000000000000000000000000000081565b61019f604051806060016040528060228152602001615c616022913961137b565b60003390506000600167ffffffffffffffff8111156101c1576101c0615a96565b5b6040519080825280602002602001820160405280156101ef5781602001602082028036833780820191505090505b5090506000600167ffffffffffffffff81111561020f5761020e615a96565b5b60405190808252806020026020018201604052801561023d5781602001602082028036833780820191505090505b50905060008684878760405160200161025994939291906153fa565b604051602081830303815290604052905060028660ff16146102e85760008054906101000a900473ffffffffffffffffffffffffffffffffffffffff16836000815181106102aa576102a9615a67565b5b602002602001019073ffffffffffffffffffffffffffffffffffffffff16908173ffffffffffffffffffffffffffffffffffffffff16815250610337565b86836000815181106102fd576102fc615a67565b5b602002602001019073ffffffffffffffffffffffffffffffffffffffff16908173ffffffffffffffffffffffffffffffffffffffff168152505b50878260008151811061034d5761034c615a67565b5b6020026020010181815250506103976040518060400160405280601781526020017f52657175657374696e6720666c6173686c6f616e2e2e2e00000000000000000081525061137b565b7f000000000000000000000000000000000000000000000000000000000000000073ffffffffffffffffffffffffffffffffffffffff16635c38449e308585856040518563ffffffff1660e01b81526004016103f69493929190615597565b600060405180830381600087803b15801561041057600080fd5b505af1158015610424573d6000803e3d6000fd5b505050505050505050505050565b7f000000000000000000000000000000000000000000000000000000000000000073ffffffffffffffffffffffffffffffffffffffff1663026b1d5f6040518163ffffffff1660e01b815260040160206040518083038186803b15801561049857600080fd5b505afa1580156104ac573d6000803e3d6000fd5b505050506040513d601f19601f820116820180604052508101906104d09190614cf6565b600160006101000a81548173ffffffffffffffffffffffffffffffffffffffff021916908373ffffffffffffffffffffffffffffffffffffffff160217905550600160009054906101000a900473ffffffffffffffffffffffffffffffffffffffff16600360006101000a81548173ffffffffffffffffffffffffffffffffffffffff021916908373ffffffffffffffffffffffffffffffffffffffff1602179055506000600260008060009054906101000a900473ffffffffffffffffffffffffffffffffffffffff1673ffffffffffffffffffffffffffffffffffffffff1673ffffffffffffffffffffffffffffffffffffffff16815260200190815260200160002060009054906101000a900473ffffffffffffffffffffffffffffffffffffffff1690508073ffffffffffffffffffffffffffffffffffffffff166323b872dd3330856040518463ffffffff1660e01b81526004016106359392919061537e565b602060405180830381600087803b15801561064f57600080fd5b505af1158015610663573d6000803e3d6000fd5b505050506040513d601f19601f820116820180604052508101906106879190614e61565b508073ffffffffffffffffffffffffffffffffffffffff1663095ea7b3600360009054906101000a900473ffffffffffffffffffffffffffffffffffffffff16846040518363ffffffff1660e01b81526004016106e592919061543f565b602060405180830381600087803b1580156106ff57600080fd5b505af1158015610713573d6000803e3d6000fd5b505050506040513d601f19601f820116820180604052508101906107379190614e61565b50600360009054906101000a900473ffffffffffffffffffffffffffffffffffffffff1673ffffffffffffffffffffffffffffffffffffffff166369328dec60008054906101000a900473ffffffffffffffffffffffffffffffffffffffff1684336040518463ffffffff1660e01b81526004016107b793929190615468565b602060405180830381600087803b1580156107d157600080fd5b505af11580156107e5573d6000803e3d6000fd5b505050506040513d601f19601f820116820180604052508101906108099190614ebb565b505050565b61082f604051806060016040528060218152602001615bf36021913961137b565b60003390506000600167ffffffffffffffff81111561085157610850615a96565b5b60405190808252806020026020018201604052801561087f5781602001602082028036833780820191505090505b5090506000600167ffffffffffffffff81111561089f5761089e615a96565b5b6040519080825280602002602001820160405280156108cd5781602001602082028036833780820191505090505b509050600085848660006040516020016108ea94939291906153b5565b604051602081830303815290604052905060008560ff161461095957858360008151811061091b5761091a615a67565b5b602002602001019073ffffffffffffffffffffffffffffffffffffffff16908173ffffffffffffffffffffffffffffffffffffffff168152506109c8565b60008054906101000a900473ffffffffffffffffffffffffffffffffffffffff168360008151811061098e5761098d615a67565b5b602002602001019073ffffffffffffffffffffffffffffffffffffffff16908173ffffffffffffffffffffffffffffffffffffffff168152505b5086826000815181106109de576109dd615a67565b5b602002602001018181525050610a286040518060400160405280601b81526020017f466c6173686c6f616e20686173206265656e2073657475702e2e2e000000000081525061137b565b7f000000000000000000000000000000000000000000000000000000000000000073ffffffffffffffffffffffffffffffffffffffff16635c38449e308585856040518563ffffffff1660e01b8152600401610a879493929190615597565b600060405180830381600087803b158015610aa157600080fd5b505af1158015610ab5573d6000803e3d6000fd5b5050505050505050505050565b7f000000000000000000000000000000000000000000000000000000000000000073ffffffffffffffffffffffffffffffffffffffff1663026b1d5f6040518163ffffffff1660e01b815260040160206040518083038186803b158015610b2857600080fd5b505afa158015610b3c573d6000803e3d6000fd5b505050506040513d601f19601f82011682018060405250810190610b609190614cf6565b600160006101000a81548173ffffffffffffffffffffffffffffffffffffffff021916908373ffffffffffffffffffffffffffffffffffffffff160217905550600160009054906101000a900473ffffffffffffffffffffffffffffffffffffffff16600360006101000a81548173ffffffffffffffffffffffffffffffffffffffff021916908373ffffffffffffffffffffffffffffffffffffffff160217905550610c416040518060400160405280602081526020017f506f6f6c20696e7374616e746961746564207769746820616464726573733a2081525061137b565b610c6c600360009054906101000a900473ffffffffffffffffffffffffffffffffffffffff16611414565b60008054906101000a900473ffffffffffffffffffffffffffffffffffffffff1673ffffffffffffffffffffffffffffffffffffffff166323b872dd3330846040518463ffffffff1660e01b8152600401610cc99392919061537e565b602060405180830381600087803b158015610ce357600080fd5b505af1158015610cf7573d6000803e3d6000fd5b505050506040513d601f19601f82011682018060405250810190610d1b9190614e61565b50610d5a6040518060400160405280601581526020017f416d6f756e74205472616e736665727265642e2e2e000000000000000000000081525061137b565b60008054906101000a900473ffffffffffffffffffffffffffffffffffffffff1673ffffffffffffffffffffffffffffffffffffffff1663095ea7b3600160009054906101000a900473ffffffffffffffffffffffffffffffffffffffff16836040518363ffffffff1660e01b8152600401610dd792919061543f565b602060405180830381600087803b158015610df157600080fd5b505af1158015610e05573d6000803e3d6000fd5b505050506040513d601f19601f82011682018060405250810190610e299190614e61565b50610e686040518060400160405280601281526020017f416d6f756e7420417070726f7665642e2e2e000000000000000000000000000081525061137b565b600360009054906101000a900473ffffffffffffffffffffffffffffffffffffffff1673ffffffffffffffffffffffffffffffffffffffff1663617ba03760008054906101000a900473ffffffffffffffffffffffffffffffffffffffff16833360006040518563ffffffff1660e01b8152600401610eea949392919061549f565b600060405180830381600087803b158015610f0457600080fd5b505af1158015610f18573d6000803e3d6000fd5b50505050610f5a6040518060400160405280601381526020017f537570706c69656420746f20416176652e2e2e0000000000000000000000000081525061137b565b50565b610f9b6040518060400160405280601d81526020017f466c6173686c6f616e20726571756573742072656365697665642e2e2e00000081525061137b565b600084600081518110610fb157610fb0615a67565b5b60200260200101519050600084600081518110610fd157610fd0615a67565b5b6020026020010151905060008060008086806020019051810190610ff59190614d23565b935093509350935060008473ffffffffffffffffffffffffffffffffffffffff166370a08231306040518263ffffffff1660e01b81526004016110389190615310565b60206040518083038186803b15801561105057600080fd5b505afa158015611064573d6000803e3d6000fd5b505050506040513d601f19601f820116820180604052508101906110889190614ebb565b90506110ab6040518060600160405280602a8152602001615b7a602a913961137b565b6110b4816114ad565b60008060009054906101000a900473ffffffffffffffffffffffffffffffffffffffff1673ffffffffffffffffffffffffffffffffffffffff166370a08231306040518263ffffffff1660e01b81526004016111109190615310565b60206040518083038186803b15801561112857600080fd5b505afa15801561113c573d6000803e3d6000fd5b505050506040513d601f19601f820116820180604052508101906111609190614ebb565b9050611183604051806060016040528060218152602001615c836021913961137b565b61118c816114ad565b60008460ff1614156111c9576111b9604051806060016040528060268152602001615c146026913961137b565b6111c4878787611546565b611281565b60018460ff161415611206576111f6604051806060016040528060278152602001615ba46027913961137b565b611201878787611a6e565b611280565b60028460ff16141561124457611233604051806060016040528060278152602001615c3a6027913961137b565b61123f87878786612109565b61127f565b60038460ff16141561127e57611271604051806060016040528060288152602001615bcb6028913961137b565b61127d87878786613655565b5b5b5b5b8773ffffffffffffffffffffffffffffffffffffffff1663a9059cbb7f0000000000000000000000000000000000000000000000000000000000000000896040518363ffffffff1660e01b81526004016112dc92919061543f565b602060405180830381600087803b1580156112f657600080fd5b505af115801561130a573d6000803e3d6000fd5b505050506040513d601f19601f8201168201806040525081019061132e9190614e61565b5061136d6040518060400160405280601d81526020017f466c6173686c6f616e20686173206265656e20726570617965642e2e2e00000081525061137b565b505050505050505050505050565b6114118160405160240161138f91906155f1565b6040516020818303038152906040527f41304fac000000000000000000000000000000000000000000000000000000007bffffffffffffffffffffffffffffffffffffffffffffffffffffffff19166020820180517bffffffffffffffffffffffffffffffffffffffffffffffffffffffff8381831617835250505050614926565b50565b6114aa816040516024016114289190615310565b6040516020818303038152906040527f2c2ecbc2000000000000000000000000000000000000000000000000000000007bffffffffffffffffffffffffffffffffffffffffffffffffffffffff19166020820180517bffffffffffffffffffffffffffffffffffffffffffffffffffffffff8381831617835250505050614926565b50565b611543816040516024016114c191906156b2565b6040516020818303038152906040527ff82c50f1000000000000000000000000000000000000000000000000000000007bffffffffffffffffffffffffffffffffffffffffffffffffffffffff19166020820180517bffffffffffffffffffffffffffffffffffffffffffffffffffffffff8381831617835250505050614926565b50565b60008054906101000a900473ffffffffffffffffffffffffffffffffffffffff1673ffffffffffffffffffffffffffffffffffffffff1663095ea7b37f0000000000000000000000000000000000000000000000000000000000000000856040518363ffffffff1660e01b81526004016115c192919061543f565b602060405180830381600087803b1580156115db57600080fd5b505af11580156115ef573d6000803e3d6000fd5b505050506040513d601f19601f820116820180604052508101906116139190614e61565b50600060405180610100016040528060008054906101000a900473ffffffffffffffffffffffffffffffffffffffff1673ffffffffffffffffffffffffffffffffffffffff1681526020018473ffffffffffffffffffffffffffffffffffffffff168152602001610bb862ffffff1681526020013073ffffffffffffffffffffffffffffffffffffffff168152602001610258426116b19190615825565b815260200185815260200160008152602001600073ffffffffffffffffffffffffffffffffffffffff16815250905060007f000000000000000000000000000000000000000000000000000000000000000073ffffffffffffffffffffffffffffffffffffffff1663f7729d4360008054906101000a900473ffffffffffffffffffffffffffffffffffffffff1686610bb88960006040518663ffffffff1660e01b815260040161176695949392919061532b565b602060405180830381600087803b15801561178057600080fd5b505af1158015611794573d6000803e3d6000fd5b505050506040513d601f19601f820116820180604052508101906117b89190614ebb565b90507f000000000000000000000000000000000000000000000000000000000000000073ffffffffffffffffffffffffffffffffffffffff1663414bf389836040518263ffffffff1660e01b81526004016118139190615696565b602060405180830381600087803b15801561182d57600080fd5b505af1158015611841573d6000803e3d6000fd5b505050506040513d601f19601f820116820180604052508101906118659190614ebb565b5060008490508073ffffffffffffffffffffffffffffffffffffffff1663095ea7b3600160009054906101000a900473ffffffffffffffffffffffffffffffffffffffff16846040518363ffffffff1660e01b81526004016118c892919061543f565b602060405180830381600087803b1580156118e257600080fd5b505af11580156118f6573d6000803e3d6000fd5b505050506040513d601f19601f8201168201806040525081019061191a9190614e61565b50600360009054906101000a900473ffffffffffffffffffffffffffffffffffffffff1673ffffffffffffffffffffffffffffffffffffffff1663617ba03786848760006040518563ffffffff1660e01b815260040161197d949392919061549f565b600060405180830381600087803b15801561199757600080fd5b505af11580156119ab573d6000803e3d6000fd5b50505050600360009054906101000a900473ffffffffffffffffffffffffffffffffffffffff1673ffffffffffffffffffffffffffffffffffffffff1663a415bcad60008054906101000a900473ffffffffffffffffffffffffffffffffffffffff168860026000896040518663ffffffff1660e01b8152600401611a34959493929190615529565b600060405180830381600087803b158015611a4e57600080fd5b505af1158015611a62573d6000803e3d6000fd5b50505050505050505050565b8173ffffffffffffffffffffffffffffffffffffffff1663095ea7b37f0000000000000000000000000000000000000000000000000000000000000000856040518363ffffffff1660e01b8152600401611ac992919061543f565b602060405180830381600087803b158015611ae357600080fd5b505af1158015611af7573d6000803e3d6000fd5b505050506040513d601f19601f82011682018060405250810190611b1b9190614e61565b50611b5b6040518060400160405280601881526020017f53776170726f7574657220617070726f76656420666f722000000000000000008152508461494f565b60006040518061010001604052808473ffffffffffffffffffffffffffffffffffffffff16815260200160008054906101000a900473ffffffffffffffffffffffffffffffffffffffff1673ffffffffffffffffffffffffffffffffffffffff168152602001610bb862ffffff1681526020013073ffffffffffffffffffffffffffffffffffffffff16815260200161025842611bf89190615825565b815260200185815260200160008152602001600073ffffffffffffffffffffffffffffffffffffffff16815250905060007f000000000000000000000000000000000000000000000000000000000000000073ffffffffffffffffffffffffffffffffffffffff1663f7729d438560008054906101000a900473ffffffffffffffffffffffffffffffffffffffff16610bb88960006040518663ffffffff1660e01b8152600401611cad95949392919061532b565b602060405180830381600087803b158015611cc757600080fd5b505af1158015611cdb573d6000803e3d6000fd5b505050506040513d601f19601f82011682018060405250810190611cff9190614ebb565b90507f000000000000000000000000000000000000000000000000000000000000000073ffffffffffffffffffffffffffffffffffffffff1663414bf389836040518263ffffffff1660e01b8152600401611d5a9190615696565b602060405180830381600087803b158015611d7457600080fd5b505af1158015611d88573d6000803e3d6000fd5b505050506040513d601f19601f82011682018060405250810190611dac9190614ebb565b50611e236040518060400160405280600881526020017f5377617070656420000000000000000000000000000000000000000000000000815250866040518060400160405280600981526020017f666f722055534443200000000000000000000000000000000000000000000000815250846149eb565b60008060009054906101000a900473ffffffffffffffffffffffffffffffffffffffff1690508073ffffffffffffffffffffffffffffffffffffffff1663095ea7b3600160009054906101000a900473ffffffffffffffffffffffffffffffffffffffff16846040518363ffffffff1660e01b8152600401611ea692919061543f565b602060405180830381600087803b158015611ec057600080fd5b505af1158015611ed4573d6000803e3d6000fd5b505050506040513d601f19601f82011682018060405250810190611ef89190614e61565b50611f386040518060400160405280601781526020017f417070726f766564204161766520666f722055534443200000000000000000008152508361494f565b600360009054906101000a900473ffffffffffffffffffffffffffffffffffffffff1673ffffffffffffffffffffffffffffffffffffffff1663617ba03760008054906101000a900473ffffffffffffffffffffffffffffffffffffffff16848760006040518563ffffffff1660e01b8152600401611fba949392919061549f565b600060405180830381600087803b158015611fd457600080fd5b505af1158015611fe8573d6000803e3d6000fd5b5050505061202b6040518060400160405280601781526020017f537570706c696564206f6e20416176653a2055534443200000000000000000008152508361494f565b600360009054906101000a900473ffffffffffffffffffffffffffffffffffffffff1673ffffffffffffffffffffffffffffffffffffffff1663a415bcad868860026000896040518663ffffffff1660e01b8152600401612090959493929190615529565b600060405180830381600087803b1580156120aa57600080fd5b505af11580156120be573d6000803e3d6000fd5b505050506121016040518060400160405280601381526020017f426f72726f77696e67206f6e20416176653a20000000000000000000000000008152508761494f565b505050505050565b6121476040518060400160405280601e81526020017f456e746572656420636c6f73654c6f6e67506f736974696f6e28292e2e2e000081525061137b565b600081856121559190615825565b90506000806121986040518060400160405280601081526020017f546f74616c20506f736974696f6e3a200000000000000000000000000000000081525061137b565b6121a1836114ad565b60008690508073ffffffffffffffffffffffffffffffffffffffff1663095ea7b37f0000000000000000000000000000000000000000000000000000000000000000866040518363ffffffff1660e01b815260040161220192919061543f565b602060405180830381600087803b15801561221b57600080fd5b505af115801561222f573d6000803e3d6000fd5b505050506040513d601f19601f820116820180604052508101906122539190614e61565b506122926040518060400160405280601281526020017f556e6920563320617070726f7665642e2e2e000000000000000000000000000081525061137b565b60006040518061010001604052808973ffffffffffffffffffffffffffffffffffffffff16815260200160008054906101000a900473ffffffffffffffffffffffffffffffffffffffff1673ffffffffffffffffffffffffffffffffffffffff168152602001610bb862ffffff1681526020013073ffffffffffffffffffffffffffffffffffffffff1681526020016102584261232f9190615825565b81526020018a815260200160008152602001600073ffffffffffffffffffffffffffffffffffffffff16815250905060007f000000000000000000000000000000000000000000000000000000000000000073ffffffffffffffffffffffffffffffffffffffff1663f7729d438a60008054906101000a900473ffffffffffffffffffffffffffffffffffffffff16610bb88e60006040518663ffffffff1660e01b81526004016123e495949392919061532b565b602060405180830381600087803b1580156123fe57600080fd5b505af1158015612412573d6000803e3d6000fd5b505050506040513d601f19601f820116820180604052508101906124369190614ebb565b90507f000000000000000000000000000000000000000000000000000000000000000073ffffffffffffffffffffffffffffffffffffffff1663414bf389836040518263ffffffff1660e01b81526004016124919190615696565b602060405180830381600087803b1580156124ab57600080fd5b505af11580156124bf573d6000803e3d6000fd5b505050506040513d601f19601f820116820180604052508101906124e39190614ebb565b506125226040518060400160405280601281526020017f53776170207375636365737366756c2e2e2e000000000000000000000000000081525061137b565b61252b816114ad565b60008054906101000a900473ffffffffffffffffffffffffffffffffffffffff1673ffffffffffffffffffffffffffffffffffffffff1663095ea7b3600160009054906101000a900473ffffffffffffffffffffffffffffffffffffffff16836040518363ffffffff1660e01b81526004016125a892919061543f565b602060405180830381600087803b1580156125c257600080fd5b505af11580156125d6573d6000803e3d6000fd5b505050506040513d601f19601f820116820180604052508101906125fa9190614e61565b506126396040518060400160405280601381526020017f4161766520617070726f76656420666f723a200000000000000000000000000081525061137b565b612642816114ad565b600360009054906101000a900473ffffffffffffffffffffffffffffffffffffffff1673ffffffffffffffffffffffffffffffffffffffff1663bf92857c896040518263ffffffff1660e01b815260040161269d9190615310565b60c06040518083038186803b1580156126b557600080fd5b505afa1580156126c9573d6000803e3d6000fd5b505050506040513d601f19601f820116820180604052508101906126ed9190614fa2565b90919250909150905050809550819650505061273d6040518060400160405280600d81526020017f43757272656e74205443423a200000000000000000000000000000000000000081525061137b565b612746856114ad565b6127846040518060400160405280600d81526020017f43757272656e74205444423a200000000000000000000000000000000000000081525061137b565b61278d846114ad565b600360009054906101000a900473ffffffffffffffffffffffffffffffffffffffff1673ffffffffffffffffffffffffffffffffffffffff1663573ade8160008054906101000a900473ffffffffffffffffffffffffffffffffffffffff168360028c6040518563ffffffff1660e01b815260040161280f94939291906154e4565b602060405180830381600087803b15801561282957600080fd5b505af115801561283d573d6000803e3d6000fd5b505050506040513d601f19601f820116820180604052508101906128619190614ebb565b506128a06040518060400160405280601381526020017f5265706169642064656274206f6e20416176650000000000000000000000000081525061137b565b600360009054906101000a900473ffffffffffffffffffffffffffffffffffffffff1673ffffffffffffffffffffffffffffffffffffffff1663bf92857c896040518263ffffffff1660e01b81526004016128fb9190615310565b60c06040518083038186803b15801561291357600080fd5b505afa158015612927573d6000803e3d6000fd5b505050506040513d601f19601f8201168201806040525081019061294b9190614fa2565b90919250909150905050809550819650505061299b6040518060400160405280600d81526020017f43757272656e74205443423a200000000000000000000000000000000000000081525061137b565b6129a4856114ad565b6129e26040518060400160405280600d81526020017f43757272656e74205444423a200000000000000000000000000000000000000081525061137b565b6129eb846114ad565b6000600260008b73ffffffffffffffffffffffffffffffffffffffff1673ffffffffffffffffffffffffffffffffffffffff16815260200190815260200160002060009054906101000a900473ffffffffffffffffffffffffffffffffffffffff169050612a8d6040518060400160405280601581526020017f557365722061546f6b656e2062616c616e63653a20000000000000000000000081525061137b565b612b1e8173ffffffffffffffffffffffffffffffffffffffff166370a082318b6040518263ffffffff1660e01b8152600401612ac99190615310565b60206040518083038186803b158015612ae157600080fd5b505afa158015612af5573d6000803e3d6000fd5b505050506040513d601f19601f82011682018060405250810190612b199190614ebb565b6114ad565b8073ffffffffffffffffffffffffffffffffffffffff166323b872dd8a308a6040518463ffffffff1660e01b8152600401612b5b9392919061537e565b602060405180830381600087803b158015612b7557600080fd5b505af1158015612b89573d6000803e3d6000fd5b505050506040513d601f19601f82011682018060405250810190612bad9190614e61565b50612bec6040518060400160405280601a81526020017f52656365697665642061546f6b656e732066726f6d207573657200000000000081525061137b565b612c2a6040518060400160405280601481526020017f42616c616e6365206f662061546f6b656e733a2000000000000000000000000081525061137b565b612cbb8173ffffffffffffffffffffffffffffffffffffffff166370a08231306040518263ffffffff1660e01b8152600401612c669190615310565b60206040518083038186803b158015612c7e57600080fd5b505afa158015612c92573d6000803e3d6000fd5b505050506040513d601f19601f82011682018060405250810190612cb69190614ebb565b6114ad565b600360009054906101000a900473ffffffffffffffffffffffffffffffffffffffff1673ffffffffffffffffffffffffffffffffffffffff166369328dec8b8373ffffffffffffffffffffffffffffffffffffffff166370a08231306040518263ffffffff1660e01b8152600401612d339190615310565b60206040518083038186803b158015612d4b57600080fd5b505afa158015612d5f573d6000803e3d6000fd5b505050506040513d601f19601f82011682018060405250810190612d839190614ebb565b8c6040518463ffffffff1660e01b8152600401612da293929190615468565b602060405180830381600087803b158015612dbc57600080fd5b505af1158015612dd0573d6000803e3d6000fd5b505050506040513d601f19601f82011682018060405250810190612df49190614ebb565b50612e336040518060400160405280601981526020017f576974686472657720746f6b656e732066726f6d20416176650000000000000081525061137b565b600360009054906101000a900473ffffffffffffffffffffffffffffffffffffffff1673ffffffffffffffffffffffffffffffffffffffff1663bf92857c8a6040518263ffffffff1660e01b8152600401612e8e9190615310565b60c06040518083038186803b158015612ea657600080fd5b505afa158015612eba573d6000803e3d6000fd5b505050506040513d601f19601f82011682018060405250810190612ede9190614fa2565b909192509091509050508096508197505050612f2e6040518060400160405280600d81526020017f43757272656e74205443423a200000000000000000000000000000000000000081525061137b565b612f37866114ad565b612f756040518060400160405280600d81526020017f43757272656e74205444423a200000000000000000000000000000000000000081525061137b565b612f7e856114ad565b8373ffffffffffffffffffffffffffffffffffffffff166323b872dd8a308a6040518463ffffffff1660e01b8152600401612fbb9392919061537e565b602060405180830381600087803b158015612fd557600080fd5b505af1158015612fe9573d6000803e3d6000fd5b505050506040513d601f19601f8201168201806040525081019061300d9190614e61565b5061304c6040518060400160405280601981526020017f526563656976656420746f6b656e732066726f6d20757365720000000000000081525061137b565b61308a6040518060400160405280601281526020017f42616c616e6365206f6620746f6b656e3a20000000000000000000000000000081525061137b565b61311b8473ffffffffffffffffffffffffffffffffffffffff166370a08231306040518263ffffffff1660e01b81526004016130c69190615310565b60206040518083038186803b1580156130de57600080fd5b505afa1580156130f2573d6000803e3d6000fd5b505050506040513d601f19601f820116820180604052508101906131169190614ebb565b6114ad565b6000881115613648576131626040518060400160405280601b81526020017f546869732074726164652069732070726f66697461626c652e2e2e000000000081525061137b565b6131a06040518060400160405280601a81526020017f416d6f756e7420746f2073776170206f6e20556e692056333a2000000000000081525061137b565b6131a9886114ad565b6040518061010001604052808b73ffffffffffffffffffffffffffffffffffffffff16815260200160008054906101000a900473ffffffffffffffffffffffffffffffffffffffff1673ffffffffffffffffffffffffffffffffffffffff168152602001610bb862ffffff1681526020013073ffffffffffffffffffffffffffffffffffffffff168152602001610258426132449190615825565b815260200189815260200160008152602001600073ffffffffffffffffffffffffffffffffffffffff1681525092507f000000000000000000000000000000000000000000000000000000000000000073ffffffffffffffffffffffffffffffffffffffff1663f7729d438b60008054906101000a900473ffffffffffffffffffffffffffffffffffffffff16610bb88c60006040518663ffffffff1660e01b81526004016132f795949392919061532b565b602060405180830381600087803b15801561331157600080fd5b505af1158015613325573d6000803e3d6000fd5b505050506040513d601f19601f820116820180604052508101906133499190614ebb565b91507f000000000000000000000000000000000000000000000000000000000000000073ffffffffffffffffffffffffffffffffffffffff1663414bf389846040518263ffffffff1660e01b81526004016133a49190615696565b602060405180830381600087803b1580156133be57600080fd5b505af11580156133d2573d6000803e3d6000fd5b505050506040513d601f19601f820116820180604052508101906133f69190614ebb565b506134356040518060400160405280601981526020017f537761707065642070726f666974206f6e20556e69737761700000000000000081525061137b565b61343e826114ad565b60008054906101000a900473ffffffffffffffffffffffffffffffffffffffff1673ffffffffffffffffffffffffffffffffffffffff1663095ea7b3600160009054906101000a900473ffffffffffffffffffffffffffffffffffffffff16846040518363ffffffff1660e01b81526004016134bb92919061543f565b602060405180830381600087803b1580156134d557600080fd5b505af11580156134e9573d6000803e3d6000fd5b505050506040513d601f19601f8201168201806040525081019061350d9190614e61565b5061354c6040518060400160405280601381526020017f4161766520617070726f76656420666f723a200000000000000000000000000081525061137b565b613555826114ad565b600360009054906101000a900473ffffffffffffffffffffffffffffffffffffffff1673ffffffffffffffffffffffffffffffffffffffff1663617ba03760008054906101000a900473ffffffffffffffffffffffffffffffffffffffff16848c60006040518563ffffffff1660e01b81526004016135d7949392919061549f565b600060405180830381600087803b1580156135f157600080fd5b505af1158015613605573d6000803e3d6000fd5b505050506136476040518060400160405280601e81526020017f50726f66697420737570706c696564206261636b20746f20416176653a20000081525061137b565b5b5050505050505050505050565b6136936040518060400160405280601f81526020017f456e746572656420636c6f736553686f7274506f736974696f6e28292e2e2e0081525061137b565b600081856136a19190615825565b90506000806136e46040518060400160405280601081526020017f546f74616c20506f736974696f6e3a200000000000000000000000000000000081525061137b565b6136ed836114ad565b60008054906101000a900473ffffffffffffffffffffffffffffffffffffffff1673ffffffffffffffffffffffffffffffffffffffff1663095ea7b37f0000000000000000000000000000000000000000000000000000000000000000856040518363ffffffff1660e01b815260040161376892919061543f565b602060405180830381600087803b15801561378257600080fd5b505af1158015613796573d6000803e3d6000fd5b505050506040513d601f19601f820116820180604052508101906137ba9190614e61565b506137f96040518060400160405280601281526020017f556e6920563320617070726f7665642e2e2e000000000000000000000000000081525061137b565b600060405180610100016040528060008054906101000a900473ffffffffffffffffffffffffffffffffffffffff1673ffffffffffffffffffffffffffffffffffffffff1681526020018873ffffffffffffffffffffffffffffffffffffffff168152602001610bb862ffffff1681526020013073ffffffffffffffffffffffffffffffffffffffff168152602001610258426138969190615825565b815260200189815260200160008152602001600073ffffffffffffffffffffffffffffffffffffffff16815250905060007f000000000000000000000000000000000000000000000000000000000000000073ffffffffffffffffffffffffffffffffffffffff1663f7729d4360008054906101000a900473ffffffffffffffffffffffffffffffffffffffff168a610bb88d60006040518663ffffffff1660e01b815260040161394b95949392919061532b565b602060405180830381600087803b15801561396557600080fd5b505af1158015613979573d6000803e3d6000fd5b505050506040513d601f19601f8201168201806040525081019061399d9190614ebb565b90507f000000000000000000000000000000000000000000000000000000000000000073ffffffffffffffffffffffffffffffffffffffff1663414bf389836040518263ffffffff1660e01b81526004016139f89190615696565b602060405180830381600087803b158015613a1257600080fd5b505af1158015613a26573d6000803e3d6000fd5b505050506040513d601f19601f82011682018060405250810190613a4a9190614ebb565b50613a896040518060400160405280601281526020017f53776170207375636365737366756c2e2e2e000000000000000000000000000081525061137b565b613a92816114ad565b60008890508073ffffffffffffffffffffffffffffffffffffffff1663095ea7b3600160009054906101000a900473ffffffffffffffffffffffffffffffffffffffff16846040518363ffffffff1660e01b8152600401613af492919061543f565b602060405180830381600087803b158015613b0e57600080fd5b505af1158015613b22573d6000803e3d6000fd5b505050506040513d601f19601f82011682018060405250810190613b469190614e61565b50613b856040518060400160405280601381526020017f4161766520617070726f76656420666f723a200000000000000000000000000081525061137b565b613b8e826114ad565b600360009054906101000a900473ffffffffffffffffffffffffffffffffffffffff1673ffffffffffffffffffffffffffffffffffffffff1663bf92857c896040518263ffffffff1660e01b8152600401613be99190615310565b60c06040518083038186803b158015613c0157600080fd5b505afa158015613c15573d6000803e3d6000fd5b505050506040513d601f19601f82011682018060405250810190613c399190614fa2565b909192509091509050508095508196505050613c896040518060400160405280600d81526020017f43757272656e74205443423a200000000000000000000000000000000000000081525061137b565b613c92856114ad565b613cd06040518060400160405280600d81526020017f43757272656e74205444423a200000000000000000000000000000000000000081525061137b565b613cd9846114ad565b600360009054906101000a900473ffffffffffffffffffffffffffffffffffffffff1673ffffffffffffffffffffffffffffffffffffffff1663573ade818a8460028c6040518563ffffffff1660e01b8152600401613d3b94939291906154e4565b602060405180830381600087803b158015613d5557600080fd5b505af1158015613d69573d6000803e3d6000fd5b505050506040513d601f19601f82011682018060405250810190613d8d9190614ebb565b50613dcc6040518060400160405280601381526020017f5265706169642064656274206f6e20416176650000000000000000000000000081525061137b565b600360009054906101000a900473ffffffffffffffffffffffffffffffffffffffff1673ffffffffffffffffffffffffffffffffffffffff1663bf92857c896040518263ffffffff1660e01b8152600401613e279190615310565b60c06040518083038186803b158015613e3f57600080fd5b505afa158015613e53573d6000803e3d6000fd5b505050506040513d601f19601f82011682018060405250810190613e779190614fa2565b909192509091509050508095508196505050613ec76040518060400160405280600d81526020017f43757272656e74205443423a200000000000000000000000000000000000000081525061137b565b613ed0856114ad565b613f0e6040518060400160405280600d81526020017f43757272656e74205444423a200000000000000000000000000000000000000081525061137b565b613f17846114ad565b6000600260008060009054906101000a900473ffffffffffffffffffffffffffffffffffffffff1673ffffffffffffffffffffffffffffffffffffffff1673ffffffffffffffffffffffffffffffffffffffff16815260200190815260200160002060009054906101000a900473ffffffffffffffffffffffffffffffffffffffff169050613fda6040518060400160405280601581526020017f557365722061546f6b656e2062616c616e63653a20000000000000000000000081525061137b565b61406b8173ffffffffffffffffffffffffffffffffffffffff166370a082318b6040518263ffffffff1660e01b81526004016140169190615310565b60206040518083038186803b15801561402e57600080fd5b505afa158015614042573d6000803e3d6000fd5b505050506040513d601f19601f820116820180604052508101906140669190614ebb565b6114ad565b8073ffffffffffffffffffffffffffffffffffffffff166323b872dd8a308a6040518463ffffffff1660e01b81526004016140a89392919061537e565b602060405180830381600087803b1580156140c257600080fd5b505af11580156140d6573d6000803e3d6000fd5b505050506040513d601f19601f820116820180604052508101906140fa9190614e61565b506141396040518060400160405280601a81526020017f52656365697665642061546f6b656e732066726f6d207573657200000000000081525061137b565b6141776040518060400160405280601481526020017f42616c616e6365206f662061546f6b656e733a2000000000000000000000000081525061137b565b6142088173ffffffffffffffffffffffffffffffffffffffff166370a08231306040518263ffffffff1660e01b81526004016141b39190615310565b60206040518083038186803b1580156141cb57600080fd5b505afa1580156141df573d6000803e3d6000fd5b505050506040513d601f19601f820116820180604052508101906142039190614ebb565b6114ad565b600360009054906101000a900473ffffffffffffffffffffffffffffffffffffffff1673ffffffffffffffffffffffffffffffffffffffff166369328dec60008054906101000a900473ffffffffffffffffffffffffffffffffffffffff168373ffffffffffffffffffffffffffffffffffffffff166370a08231306040518263ffffffff1660e01b81526004016142a09190615310565b60206040518083038186803b1580156142b857600080fd5b505afa1580156142cc573d6000803e3d6000fd5b505050506040513d601f19601f820116820180604052508101906142f09190614ebb565b8c6040518463ffffffff1660e01b815260040161430f93929190615468565b602060405180830381600087803b15801561432957600080fd5b505af115801561433d573d6000803e3d6000fd5b505050506040513d601f19601f820116820180604052508101906143619190614ebb565b506143a06040518060400160405280601781526020017f576974686472657720555344432066726f6d204161766500000000000000000081525061137b565b600360009054906101000a900473ffffffffffffffffffffffffffffffffffffffff1673ffffffffffffffffffffffffffffffffffffffff1663bf92857c8a6040518263ffffffff1660e01b81526004016143fb9190615310565b60c06040518083038186803b15801561441357600080fd5b505afa158015614427573d6000803e3d6000fd5b505050506040513d601f19601f8201168201806040525081019061444b9190614fa2565b90919250909150905050809650819750505061449b6040518060400160405280600d81526020017f43757272656e74205443423a200000000000000000000000000000000000000081525061137b565b6144a4866114ad565b6144e26040518060400160405280600d81526020017f43757272656e74205444423a200000000000000000000000000000000000000081525061137b565b6144eb856114ad565b60008054906101000a900473ffffffffffffffffffffffffffffffffffffffff1673ffffffffffffffffffffffffffffffffffffffff166323b872dd8a308a6040518463ffffffff1660e01b81526004016145489392919061537e565b602060405180830381600087803b15801561456257600080fd5b505af1158015614576573d6000803e3d6000fd5b505050506040513d601f19601f8201168201806040525081019061459a9190614e61565b506145d96040518060400160405280601781526020017f526563656976656420555344432066726f6d207573657200000000000000000081525061137b565b6146176040518060400160405280601181526020017f42616c616e6365206f6620555344433a2000000000000000000000000000000081525061137b565b6146c860008054906101000a900473ffffffffffffffffffffffffffffffffffffffff1673ffffffffffffffffffffffffffffffffffffffff166370a08231306040518263ffffffff1660e01b81526004016146739190615310565b60206040518083038186803b15801561468b57600080fd5b505afa15801561469f573d6000803e3d6000fd5b505050506040513d601f19601f820116820180604052508101906146c39190614ebb565b6114ad565b60008811156149195761470f6040518060400160405280601b81526020017f546869732074726164652069732070726f66697461626c652e2e2e000000000081525061137b565b60008054906101000a900473ffffffffffffffffffffffffffffffffffffffff1673ffffffffffffffffffffffffffffffffffffffff1663095ea7b3600160009054906101000a900473ffffffffffffffffffffffffffffffffffffffff168a6040518363ffffffff1660e01b815260040161478c92919061543f565b602060405180830381600087803b1580156147a657600080fd5b505af11580156147ba573d6000803e3d6000fd5b505050506040513d601f19601f820116820180604052508101906147de9190614e61565b5061481d6040518060400160405280601381526020017f4161766520617070726f76656420666f723a200000000000000000000000000081525061137b565b614826886114ad565b600360009054906101000a900473ffffffffffffffffffffffffffffffffffffffff1673ffffffffffffffffffffffffffffffffffffffff1663617ba03760008054906101000a900473ffffffffffffffffffffffffffffffffffffffff168a8c60006040518563ffffffff1660e01b81526004016148a8949392919061549f565b600060405180830381600087803b1580156148c257600080fd5b505af11580156148d6573d6000803e3d6000fd5b505050506149186040518060400160405280601e81526020017f50726f66697420737570706c696564206261636b20746f20416176653a20000081525061137b565b5b5050505050505050505050565b60008151905060006a636f6e736f6c652e6c6f679050602083016000808483855afa5050505050565b6149e78282604051602401614965929190615613565b6040516020818303038152906040527fb60e72cc000000000000000000000000000000000000000000000000000000007bffffffffffffffffffffffffffffffffffffffffffffffffffffffff19166020820180517bffffffffffffffffffffffffffffffffffffffffffffffffffffffff8381831617835250505050614926565b5050565b614a8784848484604051602401614a059493929190615643565b6040516020818303038152906040527fc67ea9d1000000000000000000000000000000000000000000000000000000007bffffffffffffffffffffffffffffffffffffffffffffffffffffffff19166020820180517bffffffffffffffffffffffffffffffffffffffffffffffffffffffff8381831617835250505050614926565b50505050565b6000614aa0614a9b846156f2565b6156cd565b90508083825260208201905082856020860282011115614ac357614ac2615aca565b5b60005b85811015614af35781614ad98882614c8d565b845260208401935060208301925050600181019050614ac6565b5050509392505050565b6000614b10614b0b8461571e565b6156cd565b90508083825260208201905082856020860282011115614b3357614b32615aca565b5b60005b85811015614b635781614b498882614ca2565b845260208401935060208301925050600181019050614b36565b5050509392505050565b6000614b80614b7b8461574a565b6156cd565b905082815260208101848484011115614b9c57614b9b615acf565b5b614ba78482856159c5565b509392505050565b600081359050614bbe81615aef565b92915050565b600081519050614bd381615aef565b92915050565b600081519050614be881615b06565b92915050565b600082601f830112614c0357614c02615ac5565b5b8135614c13848260208601614a8d565b91505092915050565b600082601f830112614c3157614c30615ac5565b5b8135614c41848260208601614afd565b91505092915050565b600081519050614c5981615b1d565b92915050565b600082601f830112614c7457614c73615ac5565b5b8135614c84848260208601614b6d565b91505092915050565b600081359050614c9c81615b34565b92915050565b600081359050614cb181615b4b565b92915050565b600081519050614cc681615b4b565b92915050565b600081359050614cdb81615b62565b92915050565b600081519050614cf081615b62565b92915050565b600060208284031215614d0c57614d0b615ad9565b5b6000614d1a84828501614bc4565b91505092915050565b60008060008060808587031215614d3d57614d3c615ad9565b5b6000614d4b87828801614bd9565b9450506020614d5c87828801614bd9565b9350506040614d6d87828801614ce1565b9250506060614d7e87828801614cb7565b91505092959194509250565b60008060008060808587031215614da457614da3615ad9565b5b600085013567ffffffffffffffff811115614dc257614dc1615ad4565b5b614dce87828801614bee565b945050602085013567ffffffffffffffff811115614def57614dee615ad4565b5b614dfb87828801614c1c565b935050604085013567ffffffffffffffff811115614e1c57614e1b615ad4565b5b614e2887828801614c1c565b925050606085013567ffffffffffffffff811115614e4957614e48615ad4565b5b614e5587828801614c5f565b91505092959194509250565b600060208284031215614e7757614e76615ad9565b5b6000614e8584828501614c4a565b91505092915050565b600060208284031215614ea457614ea3615ad9565b5b6000614eb284828501614ca2565b91505092915050565b600060208284031215614ed157614ed0615ad9565b5b6000614edf84828501614cb7565b91505092915050565b600080600060608486031215614f0157614f00615ad9565b5b6000614f0f86828701614ca2565b9350506020614f2086828701614baf565b9250506040614f3186828701614ccc565b9150509250925092565b60008060008060808587031215614f5557614f54615ad9565b5b6000614f6387828801614ca2565b9450506020614f7487828801614baf565b9350506040614f8587828801614ccc565b9250506060614f9687828801614ca2565b91505092959194509250565b60008060008060008060c08789031215614fbf57614fbe615ad9565b5b6000614fcd89828a01614cb7565b9650506020614fde89828a01614cb7565b9550506040614fef89828a01614cb7565b945050606061500089828a01614cb7565b935050608061501189828a01614cb7565b92505060a061502289828a01614cb7565b9150509295509295509295565b600061503b8383615172565b60208301905092915050565b600061505383836152e3565b60208301905092915050565b6150688161587b565b82525050565b6150778161587b565b82525050565b60006150888261579b565b61509281856157e1565b935061509d8361577b565b8060005b838110156150ce5781516150b5888261502f565b97506150c0836157c7565b9250506001810190506150a1565b5085935050505092915050565b60006150e6826157a6565b6150f081856157f2565b93506150fb8361578b565b8060005b8381101561512c5781516151138882615047565b975061511e836157d4565b9250506001810190506150ff565b5085935050505092915050565b6000615144826157b1565b61514e8185615803565b935061515e8185602086016159d4565b61516781615ade565b840191505092915050565b61517b81615911565b82525050565b61518a81615923565b82525050565b61519981615935565b82525050565b6151a881615959565b82525050565b6151b781615947565b82525050565b6151c68161596b565b82525050565b6151d58161597d565b82525050565b6151e48161598f565b82525050565b60006151f5826157bc565b6151ff8185615814565b935061520f8185602086016159d4565b61521881615ade565b840191505092915050565b6101008201600082015161523a600085018261505f565b50602082015161524d602085018261505f565b50604082015161526060408501826152d4565b506060820151615273606085018261505f565b50608082015161528660808501826152e3565b5060a082015161529960a08501826152e3565b5060c08201516152ac60c08501826152e3565b5060e08201516152bf60e08501826152c5565b50505050565b6152ce816158cb565b82525050565b6152dd816158eb565b82525050565b6152ec816158fa565b82525050565b6152fb816158fa565b82525050565b61530a81615904565b82525050565b6000602082019050615325600083018461506e565b92915050565b600060a082019050615340600083018861506e565b61534d602083018761506e565b61535a60408301866151db565b61536760608301856152f2565b615374608083018461519f565b9695505050505050565b6000606082019050615393600083018661506e565b6153a0602083018561506e565b6153ad60408301846152f2565b949350505050565b60006080820190506153ca600083018761506e565b6153d7602083018661506e565b6153e46040830185615301565b6153f160608301846151bd565b95945050505050565b600060808201905061540f600083018761506e565b61541c602083018661506e565b6154296040830185615301565b61543660608301846152f2565b95945050505050565b6000604082019050615454600083018561506e565b61546160208301846152f2565b9392505050565b600060608201905061547d600083018661506e565b61548a60208301856152f2565b615497604083018461506e565b949350505050565b60006080820190506154b4600083018761506e565b6154c160208301866152f2565b6154ce604083018561506e565b6154db60608301846151ae565b95945050505050565b60006080820190506154f9600083018761506e565b61550660208301866152f2565b61551360408301856151cc565b615520606083018461506e565b95945050505050565b600060a08201905061553e600083018861506e565b61554b60208301876152f2565b61555860408301866151cc565b61556560608301856151ae565b615572608083018461506e565b9695505050505050565b60006020820190506155916000830184615181565b92915050565b60006080820190506155ac6000830187615190565b81810360208301526155be818661507d565b905081810360408301526155d281856150db565b905081810360608301526155e68184615139565b905095945050505050565b6000602082019050818103600083015261560b81846151ea565b905092915050565b6000604082019050818103600083015261562d81856151ea565b905061563c60208301846152f2565b9392505050565b6000608082019050818103600083015261565d81876151ea565b905061566c60208301866152f2565b818103604083015261567e81856151ea565b905061568d60608301846152f2565b95945050505050565b6000610100820190506156ac6000830184615223565b92915050565b60006020820190506156c760008301846152f2565b92915050565b60006156d76156e8565b90506156e38282615a07565b919050565b6000604051905090565b600067ffffffffffffffff82111561570d5761570c615a96565b5b602082029050602081019050919050565b600067ffffffffffffffff82111561573957615738615a96565b5b602082029050602081019050919050565b600067ffffffffffffffff82111561576557615764615a96565b5b61576e82615ade565b9050602081019050919050565b6000819050602082019050919050565b6000819050602082019050919050565b600081519050919050565b600081519050919050565b600081519050919050565b600081519050919050565b6000602082019050919050565b6000602082019050919050565b600082825260208201905092915050565b600082825260208201905092915050565b600082825260208201905092915050565b600082825260208201905092915050565b6000615830826158fa565b915061583b836158fa565b9250827fffffffffffffffffffffffffffffffffffffffffffffffffffffffffffffffff038211156158705761586f615a38565b5b828201905092915050565b6000615886826158cb565b9050919050565b6000615898826158cb565b9050919050565b60008115159050919050565b60006158b68261587b565b9050919050565b600061ffff82169050919050565b600073ffffffffffffffffffffffffffffffffffffffff82169050919050565b600062ffffff82169050919050565b6000819050919050565b600060ff82169050919050565b600061591c826159a1565b9050919050565b600061592e826159a1565b9050919050565b6000615940826159a1565b9050919050565b6000615952826158bd565b9050919050565b6000615964826158cb565b9050919050565b600061597682615904565b9050919050565b6000615988826158fa565b9050919050565b600061599a826158eb565b9050919050565b60006159ac826159b3565b9050919050565b60006159be826158cb565b9050919050565b82818337600083830152505050565b60005b838110156159f25780820151818401526020810190506159d7565b83811115615a01576000848401525b50505050565b615a1082615ade565b810181811067ffffffffffffffff82111715615a2f57615a2e615a96565b5b80604052505050565b7f4e487b7100000000000000000000000000000000000000000000000000000000600052601160045260246000fd5b7f4e487b7100000000000000000000000000000000000000000000000000000000600052603260045260246000fd5b7f4e487b7100000000000000000000000000000000000000000000000000000000600052604160045260246000fd5b600080fd5b600080fd5b600080fd5b600080fd5b600080fd5b6000601f19601f8301169050919050565b615af88161587b565b8114615b0357600080fd5b50565b615b0f8161588d565b8114615b1a57600080fd5b50565b615b268161589f565b8114615b3157600080fd5b50565b615b3d816158ab565b8114615b4857600080fd5b50565b615b54816158fa565b8114615b5f57600080fd5b50565b615b6b81615904565b8114615b7657600080fd5b5056fe5468697320636f6e7472616374206e6f7720686f6c647320746f6b656e2062616c616e6365206f663a204f70656e2073686f727420706f736974696f6e20726571756573742072656365697665642e2e2e436c6f73652073686f727420706f736974696f6e20726571756573742072656365697665642e2e2e456e74657265642066756e6374696f6e20726571756573744f70656e28292e2e2e4f70656e206c6f6e6720706f736974696f6e20726571756573742072656365697665642e2e2e436c6f7365206c6f6e6720706f736974696f6e20726571756573742072656365697665642e2e2e456e74657265642066756e6374696f6e2072657175657374436c6f736528292e2e2e5468697320636f6e7472616374206e6f7720686f6c64732055534443206f663a20a2646970667358221220a1b9ddcc7ac72e44f8d44ead4b734f8929b07938fa49f467ea550dffb78defa464736f6c63430008070033",
  "linkReferences": {},
  "deployedLinkReferences": {}
}