{
  "_format": "hh-sol-artifact-1",
  "contractName": "LoopingMATIC",
  "sourceName": "contracts/LoopingMATIC.sol",
  "abi": [
    {
      "inputs": [
        {
          "internalType": "address",
          "name": "iUniswapV3PoolAddress",
          "type": "address"
        },
        {
          "internalType": "address",
          "name": "iSwapRouterAddress",
          "type": "address"
        },
        {
          "internalType": "address",
          "name": "iQuoterAddress",
          "type": "address"
        },
        {
          "internalType": "address",
          "name": "iPoolAddressesProviderAddress",
          "type": "address"
        },
        {
          "internalType": "address",
          "name": "daiAddress",
          "type": "address"
        }
      ],
      "stateMutability": "nonpayable",
      "type": "constructor"
    },
    {
      "stateMutability": "payable",
      "type": "fallback"
    },
    {
      "inputs": [],
      "name": "getBalance",
      "outputs": [
        {
          "internalType": "uint256",
          "name": "",
          "type": "uint256"
        }
      ],
      "stateMutability": "view",
      "type": "function"
    },
    {
      "inputs": [
        {
          "internalType": "address",
          "name": "_address",
          "type": "address"
        }
      ],
      "name": "getDaiBalance",
      "outputs": [
        {
          "internalType": "uint256",
          "name": "",
          "type": "uint256"
        }
      ],
      "stateMutability": "view",
      "type": "function"
    },
    {
      "inputs": [
        {
          "internalType": "address",
          "name": "_address",
          "type": "address"
        }
      ],
      "name": "getMATICBalance",
      "outputs": [
        {
          "internalType": "uint256",
          "name": "",
          "type": "uint256"
        }
      ],
      "stateMutability": "view",
      "type": "function"
    },
    {
      "inputs": [
        {
          "internalType": "address",
          "name": "_address",
          "type": "address"
        }
      ],
      "name": "getWMATICBalance",
      "outputs": [
        {
          "internalType": "uint256",
          "name": "",
          "type": "uint256"
        }
      ],
      "stateMutability": "view",
      "type": "function"
    },
    {
      "inputs": [
        {
          "internalType": "uint256",
          "name": "leverage",
          "type": "uint256"
        }
      ],
      "name": "loop",
      "outputs": [],
      "stateMutability": "payable",
      "type": "function"
    },
    {
      "stateMutability": "payable",
      "type": "receive"
    }
  ],
  "bytecode": "0x6101406040523480156200001257600080fd5b5060405162001d9838038062001d988339818101604052810190620000389190620001fb565b8473ffffffffffffffffffffffffffffffffffffffff1660808173ffffffffffffffffffffffffffffffffffffffff16815250508373ffffffffffffffffffffffffffffffffffffffff1660a08173ffffffffffffffffffffffffffffffffffffffff16815250508273ffffffffffffffffffffffffffffffffffffffff1660c08173ffffffffffffffffffffffffffffffffffffffff16815250508173ffffffffffffffffffffffffffffffffffffffff1660e08173ffffffffffffffffffffffffffffffffffffffff16815250508073ffffffffffffffffffffffffffffffffffffffff166101008173ffffffffffffffffffffffffffffffffffffffff1681525050730d500b1d8e8ef31e21c99d1db9a6444d3adf127073ffffffffffffffffffffffffffffffffffffffff166101208173ffffffffffffffffffffffffffffffffffffffff1681525050505050505062000283565b600080fd5b600073ffffffffffffffffffffffffffffffffffffffff82169050919050565b6000620001c38262000196565b9050919050565b620001d581620001b6565b8114620001e157600080fd5b50565b600081519050620001f581620001ca565b92915050565b600080600080600060a086880312156200021a576200021962000191565b5b60006200022a88828901620001e4565b95505060206200023d88828901620001e4565b94505060406200025088828901620001e4565b93505060606200026388828901620001e4565b92505060806200027688828901620001e4565b9150509295509295909350565b60805160a05160c05160e0516101005161012051611aa2620002f66000396000818161070401526111c00152600081816107c301528181610882015261111d0152600081816101dc015261030b015260008181610b7e0152610dca01526000610e9901526000610a0d0152611aa26000f3fe60806040526004361061004e5760003560e01c80630b7d796e1461005757806312065fe0146100735780637c7cdc841461009e5780637e4287be146100db578063eff1648a1461011857610055565b3661005557005b005b610071600480360381019061006c919061129a565b610155565b005b34801561007f57600080fd5b506100886110f0565b60405161009591906112d6565b60405180910390f35b3480156100aa57600080fd5b506100c560048036038101906100c0919061134f565b6110f8565b6040516100d291906112d6565b60405180910390f35b3480156100e757600080fd5b5061010260048036038101906100fd919061134f565b611119565b60405161010f91906112d6565b60405180910390f35b34801561012457600080fd5b5061013f600480360381019061013a919061134f565b6111bc565b60405161014c91906112d6565b60405180910390f35b60003490506000730d500b1d8e8ef31e21c99d1db9a6444d3adf127073ffffffffffffffffffffffffffffffffffffffff1634604051610194906113ad565b60006040518083038185875af1925050503d80600081146101d1576040519150601f19603f3d011682016040523d82523d6000602084013e6101d6565b606091505b505090507f000000000000000000000000000000000000000000000000000000000000000073ffffffffffffffffffffffffffffffffffffffff1663026b1d5f6040518163ffffffff1660e01b8152600401602060405180830381865afa158015610245573d6000803e3d6000fd5b505050506040513d601f19601f8201168201806040525081019061026991906113d7565b6000806101000a81548173ffffffffffffffffffffffffffffffffffffffff021916908373ffffffffffffffffffffffffffffffffffffffff16021790555060008054906101000a900473ffffffffffffffffffffffffffffffffffffffff16600460006101000a81548173ffffffffffffffffffffffffffffffffffffffff021916908373ffffffffffffffffffffffffffffffffffffffff1602179055507f000000000000000000000000000000000000000000000000000000000000000073ffffffffffffffffffffffffffffffffffffffff1663e860accb6040518163ffffffff1660e01b8152600401602060405180830381865afa158015610374573d6000803e3d6000fd5b505050506040513d601f19601f8201168201806040525081019061039891906113d7565b600160006101000a81548173ffffffffffffffffffffffffffffffffffffffff021916908373ffffffffffffffffffffffffffffffffffffffff160217905550600160009054906101000a900473ffffffffffffffffffffffffffffffffffffffff16600560006101000a81548173ffffffffffffffffffffffffffffffffffffffff021916908373ffffffffffffffffffffffffffffffffffffffff160217905550600560009054906101000a900473ffffffffffffffffffffffffffffffffffffffff1673ffffffffffffffffffffffffffffffffffffffff1663d2493b6c730d500b1d8e8ef31e21c99d1db9a6444d3adf12706040518263ffffffff1660e01b81526004016104aa9190611413565b606060405180830381865afa1580156104c7573d6000803e3d6000fd5b505050506040513d601f19601f820116820180604052508101906104eb919061142e565b905050600360008291906101000a81548173ffffffffffffffffffffffffffffffffffffffff021916908373ffffffffffffffffffffffffffffffffffffffff16021790555050600360009054906101000a900473ffffffffffffffffffffffffffffffffffffffff16600760006101000a81548173ffffffffffffffffffffffffffffffffffffffff021916908373ffffffffffffffffffffffffffffffffffffffff160217905550600560009054906101000a900473ffffffffffffffffffffffffffffffffffffffff1673ffffffffffffffffffffffffffffffffffffffff1663d2493b6c738f3cf7ad23cd3cadbd9735aff958023239c6a0636040518263ffffffff1660e01b81526004016106049190611413565b606060405180830381865afa158015610621573d6000803e3d6000fd5b505050506040513d601f19601f82011682018060405250810190610645919061142e565b9091509050600260008291906101000a81548173ffffffffffffffffffffffffffffffffffffffff021916908373ffffffffffffffffffffffffffffffffffffffff16021790555050600260009054906101000a900473ffffffffffffffffffffffffffffffffffffffff16600660006101000a81548173ffffffffffffffffffffffffffffffffffffffff021916908373ffffffffffffffffffffffffffffffffffffffff160217905550600060038361070091906114b0565b90507f000000000000000000000000000000000000000000000000000000000000000073ffffffffffffffffffffffffffffffffffffffff1663095ea7b360008054906101000a900473ffffffffffffffffffffffffffffffffffffffff16836040518363ffffffff1660e01b815260040161077d92919061150a565b6020604051808303816000875af115801561079c573d6000803e3d6000fd5b505050506040513d601f19601f820116820180604052508101906107c0919061156b565b507f000000000000000000000000000000000000000000000000000000000000000073ffffffffffffffffffffffffffffffffffffffff1663095ea7b360008054906101000a900473ffffffffffffffffffffffffffffffffffffffff16836040518363ffffffff1660e01b815260040161083c92919061150a565b6020604051808303816000875af115801561085b573d6000803e3d6000fd5b505050506040513d601f19601f8201168201806040525081019061087f919061156b565b507f000000000000000000000000000000000000000000000000000000000000000073ffffffffffffffffffffffffffffffffffffffff1663095ea7b373e592427a0aece92de3edee1f18e0157c05861564836040518363ffffffff1660e01b81526004016108ef92919061150a565b6020604051808303816000875af115801561090e573d6000803e3d6000fd5b505050506040513d601f19601f82011682018060405250810190610932919061156b565b50600460009054906101000a900473ffffffffffffffffffffffffffffffffffffffff1673ffffffffffffffffffffffffffffffffffffffff1663617ba037730d500b1d8e8ef31e21c99d1db9a6444d3adf1270853360006040518563ffffffff1660e01b81526004016109a994939291906115eb565b600060405180830381600087803b1580156109c357600080fd5b505af11580156109d7573d6000803e3d6000fd5b5050505060008390506000670de0b6b3a764000086866109f791906114b0565b610a01919061165f565b905060008060008060007f000000000000000000000000000000000000000000000000000000000000000073ffffffffffffffffffffffffffffffffffffffff1663ddca3f436040518163ffffffff1660e01b8152600401602060405180830381865afa158015610a76573d6000803e3d6000fd5b505050506040513d601f19601f82011682018060405250810190610a9a91906116cb565b90506000600460009054906101000a900473ffffffffffffffffffffffffffffffffffffffff1673ffffffffffffffffffffffffffffffffffffffff1663bf92857c336040518263ffffffff1660e01b8152600401610af99190611413565b60c060405180830381865afa158015610b16573d6000803e3d6000fd5b505050506040513d601f19601f82011682018060405250810190610b3a919061170d565b505050925050506402540be40081610b5291906114b0565b90508787610b60919061179a565b9550808610610b6f5780610b71565b855b94505b868810156110e2577f000000000000000000000000000000000000000000000000000000000000000073ffffffffffffffffffffffffffffffffffffffff1663f7729d43730d500b1d8e8ef31e21c99d1db9a6444d3adf1270738f3cf7ad23cd3cadbd9735aff958023239c6a063858960006040518663ffffffff1660e01b8152600401610c0695949392919061180e565b6020604051808303816000875af1158015610c25573d6000803e3d6000fd5b505050506040513d601f19601f82011682018060405250810190610c499190611861565b9350600460009054906101000a900473ffffffffffffffffffffffffffffffffffffffff1673ffffffffffffffffffffffffffffffffffffffff1663a415bcad738f3cf7ad23cd3cadbd9735aff958023239c6a0638660026000336040518663ffffffff1660e01b8152600401610cc49594939291906118c9565b600060405180830381600087803b158015610cde57600080fd5b505af1158015610cf2573d6000803e3d6000fd5b505050506000604051806101000160405280738f3cf7ad23cd3cadbd9735aff958023239c6a06373ffffffffffffffffffffffffffffffffffffffff168152602001730d500b1d8e8ef31e21c99d1db9a6444d3adf127073ffffffffffffffffffffffffffffffffffffffff1681526020018462ffffff1681526020013073ffffffffffffffffffffffffffffffffffffffff16815260200161025842610d99919061191c565b815260200186815260200160008152602001600073ffffffffffffffffffffffffffffffffffffffff1681525090507f000000000000000000000000000000000000000000000000000000000000000073ffffffffffffffffffffffffffffffffffffffff1663f7729d43738f3cf7ad23cd3cadbd9735aff958023239c6a063730d500b1d8e8ef31e21c99d1db9a6444d3adf1270868960006040518663ffffffff1660e01b8152600401610e5295949392919061180e565b6020604051808303816000875af1158015610e71573d6000803e3d6000fd5b505050506040513d601f19601f82011682018060405250810190610e959190611861565b93507f000000000000000000000000000000000000000000000000000000000000000073ffffffffffffffffffffffffffffffffffffffff1663414bf389826040518263ffffffff1660e01b8152600401610ef09190611a50565b6020604051808303816000875af1158015610f0f573d6000803e3d6000fd5b505050506040513d601f19601f82011682018060405250810190610f339190611861565b50600460009054906101000a900473ffffffffffffffffffffffffffffffffffffffff1673ffffffffffffffffffffffffffffffffffffffff1663617ba037730d500b1d8e8ef31e21c99d1db9a6444d3adf1270863360006040518563ffffffff1660e01b8152600401610faa94939291906115eb565b600060405180830381600087803b158015610fc457600080fd5b505af1158015610fd8573d6000803e3d6000fd5b505050508389610fe8919061191c565b9850600460009054906101000a900473ffffffffffffffffffffffffffffffffffffffff1673ffffffffffffffffffffffffffffffffffffffff1663bf92857c336040518263ffffffff1660e01b81526004016110459190611413565b60c060405180830381865afa158015611062573d6000803e3d6000fd5b505050506040513d601f19601f82011682018060405250810190611086919061170d565b9091929394509091929350909150905050809250506402540be400826110ac91906114b0565b915088886110ba919061179a565b96508187106110c957816110cb565b865b9550600a8710156110dc57506110e2565b50610b74565b505050505050505050505050565b600047905090565b60008173ffffffffffffffffffffffffffffffffffffffff16319050919050565b60007f000000000000000000000000000000000000000000000000000000000000000073ffffffffffffffffffffffffffffffffffffffff166370a08231836040518263ffffffff1660e01b81526004016111749190611413565b602060405180830381865afa158015611191573d6000803e3d6000fd5b505050506040513d601f19601f820116820180604052508101906111b59190611861565b9050919050565b60007f000000000000000000000000000000000000000000000000000000000000000073ffffffffffffffffffffffffffffffffffffffff166370a08231836040518263ffffffff1660e01b81526004016112179190611413565b602060405180830381865afa158015611234573d6000803e3d6000fd5b505050506040513d601f19601f820116820180604052508101906112589190611861565b9050919050565b600080fd5b6000819050919050565b61127781611264565b811461128257600080fd5b50565b6000813590506112948161126e565b92915050565b6000602082840312156112b0576112af61125f565b5b60006112be84828501611285565b91505092915050565b6112d081611264565b82525050565b60006020820190506112eb60008301846112c7565b92915050565b600073ffffffffffffffffffffffffffffffffffffffff82169050919050565b600061131c826112f1565b9050919050565b61132c81611311565b811461133757600080fd5b50565b60008135905061134981611323565b92915050565b6000602082840312156113655761136461125f565b5b60006113738482850161133a565b91505092915050565b600081905092915050565b50565b600061139760008361137c565b91506113a282611387565b600082019050919050565b60006113b88261138a565b9150819050919050565b6000815190506113d181611323565b92915050565b6000602082840312156113ed576113ec61125f565b5b60006113fb848285016113c2565b91505092915050565b61140d81611311565b82525050565b60006020820190506114286000830184611404565b92915050565b6000806000606084860312156114475761144661125f565b5b6000611455868287016113c2565b9350506020611466868287016113c2565b9250506040611477868287016113c2565b9150509250925092565b7f4e487b7100000000000000000000000000000000000000000000000000000000600052601160045260246000fd5b60006114bb82611264565b91506114c683611264565b9250817fffffffffffffffffffffffffffffffffffffffffffffffffffffffffffffffff04831182151516156114ff576114fe611481565b5b828202905092915050565b600060408201905061151f6000830185611404565b61152c60208301846112c7565b9392505050565b60008115159050919050565b61154881611533565b811461155357600080fd5b50565b6000815190506115658161153f565b92915050565b6000602082840312156115815761158061125f565b5b600061158f84828501611556565b91505092915050565b6000819050919050565b600061ffff82169050919050565b6000819050919050565b60006115d56115d06115cb84611598565b6115b0565b6115a2565b9050919050565b6115e5816115ba565b82525050565b60006080820190506116006000830187611404565b61160d60208301866112c7565b61161a6040830185611404565b61162760608301846115dc565b95945050505050565b7f4e487b7100000000000000000000000000000000000000000000000000000000600052601260045260246000fd5b600061166a82611264565b915061167583611264565b92508261168557611684611630565b5b828204905092915050565b600062ffffff82169050919050565b6116a881611690565b81146116b357600080fd5b50565b6000815190506116c58161169f565b92915050565b6000602082840312156116e1576116e061125f565b5b60006116ef848285016116b6565b91505092915050565b6000815190506117078161126e565b92915050565b60008060008060008060c0878903121561172a5761172961125f565b5b600061173889828a016116f8565b965050602061174989828a016116f8565b955050604061175a89828a016116f8565b945050606061176b89828a016116f8565b935050608061177c89828a016116f8565b92505060a061178d89828a016116f8565b9150509295509295509295565b60006117a582611264565b91506117b083611264565b9250828210156117c3576117c2611481565b5b828203905092915050565b6117d781611690565b82525050565b60006117f86117f36117ee84611598565b6115b0565b6112f1565b9050919050565b611808816117dd565b82525050565b600060a0820190506118236000830188611404565b6118306020830187611404565b61183d60408301866117ce565b61184a60608301856112c7565b61185760808301846117ff565b9695505050505050565b6000602082840312156118775761187661125f565b5b6000611885848285016116f8565b91505092915050565b6000819050919050565b60006118b36118ae6118a98461188e565b6115b0565b611264565b9050919050565b6118c381611898565b82525050565b600060a0820190506118de6000830188611404565b6118eb60208301876112c7565b6118f860408301866118ba565b61190560608301856115dc565b6119126080830184611404565b9695505050505050565b600061192782611264565b915061193283611264565b9250827fffffffffffffffffffffffffffffffffffffffffffffffffffffffffffffffff0382111561196757611966611481565b5b828201905092915050565b61197b81611311565b82525050565b61198a81611690565b82525050565b61199981611264565b82525050565b6119a8816112f1565b82525050565b610100820160008201516119c56000850182611972565b5060208201516119d86020850182611972565b5060408201516119eb6040850182611981565b5060608201516119fe6060850182611972565b506080820151611a116080850182611990565b5060a0820151611a2460a0850182611990565b5060c0820151611a3760c0850182611990565b5060e0820151611a4a60e085018261199f565b50505050565b600061010082019050611a6660008301846119ae565b9291505056fea2646970667358221220cfc1856e112ed39e62917289178c9747f6017541274b52d58a4180628d2ec36a64736f6c634300080a0033",
  "linkReferences": {},
  "deployedLinkReferences": {}
}