{
  "_format": "hh-sol-artifact-1",
  "contractName": "AToken",
  "sourceName": "@aave/core-v3/contracts/protocol/tokenization/AToken.sol",
  "abi": [
    {
      "inputs": [
        {
          "internalType": "contract IPool",
          "name": "pool",
          "type": "address"
        }
      ],
      "stateMutability": "nonpayable",
      "type": "constructor"
    },
    {
      "anonymous": false,
      "inputs": [
        {
          "indexed": true,
          "internalType": "address",
          "name": "owner",
          "type": "address"
        },
        {
          "indexed": true,
          "internalType": "address",
          "name": "spender",
          "type": "address"
        },
        {
          "indexed": false,
          "internalType": "uint256",
          "name": "value",
          "type": "uint256"
        }
      ],
      "name": "Approval",
      "type": "event"
    },
    {
      "anonymous": false,
      "inputs": [
        {
          "indexed": true,
          "internalType": "address",
          "name": "from",
          "type": "address"
        },
        {
          "indexed": true,
          "internalType": "address",
          "name": "to",
          "type": "address"
        },
        {
          "indexed": false,
          "internalType": "uint256",
          "name": "value",
          "type": "uint256"
        },
        {
          "indexed": false,
          "internalType": "uint256",
          "name": "index",
          "type": "uint256"
        }
      ],
      "name": "BalanceTransfer",
      "type": "event"
    },
    {
      "anonymous": false,
      "inputs": [
        {
          "indexed": true,
          "internalType": "address",
          "name": "from",
          "type": "address"
        },
        {
          "indexed": true,
          "internalType": "address",
          "name": "target",
          "type": "address"
        },
        {
          "indexed": false,
          "internalType": "uint256",
          "name": "value",
          "type": "uint256"
        },
        {
          "indexed": false,
          "internalType": "uint256",
          "name": "balanceIncrease",
          "type": "uint256"
        },
        {
          "indexed": false,
          "internalType": "uint256",
          "name": "index",
          "type": "uint256"
        }
      ],
      "name": "Burn",
      "type": "event"
    },
    {
      "anonymous": false,
      "inputs": [
        {
          "indexed": true,
          "internalType": "address",
          "name": "underlyingAsset",
          "type": "address"
        },
        {
          "indexed": true,
          "internalType": "address",
          "name": "pool",
          "type": "address"
        },
        {
          "indexed": false,
          "internalType": "address",
          "name": "treasury",
          "type": "address"
        },
        {
          "indexed": false,
          "internalType": "address",
          "name": "incentivesController",
          "type": "address"
        },
        {
          "indexed": false,
          "internalType": "uint8",
          "name": "aTokenDecimals",
          "type": "uint8"
        },
        {
          "indexed": false,
          "internalType": "string",
          "name": "aTokenName",
          "type": "string"
        },
        {
          "indexed": false,
          "internalType": "string",
          "name": "aTokenSymbol",
          "type": "string"
        },
        {
          "indexed": false,
          "internalType": "bytes",
          "name": "params",
          "type": "bytes"
        }
      ],
      "name": "Initialized",
      "type": "event"
    },
    {
      "anonymous": false,
      "inputs": [
        {
          "indexed": true,
          "internalType": "address",
          "name": "caller",
          "type": "address"
        },
        {
          "indexed": true,
          "internalType": "address",
          "name": "onBehalfOf",
          "type": "address"
        },
        {
          "indexed": false,
          "internalType": "uint256",
          "name": "value",
          "type": "uint256"
        },
        {
          "indexed": false,
          "internalType": "uint256",
          "name": "balanceIncrease",
          "type": "uint256"
        },
        {
          "indexed": false,
          "internalType": "uint256",
          "name": "index",
          "type": "uint256"
        }
      ],
      "name": "Mint",
      "type": "event"
    },
    {
      "anonymous": false,
      "inputs": [
        {
          "indexed": true,
          "internalType": "address",
          "name": "from",
          "type": "address"
        },
        {
          "indexed": true,
          "internalType": "address",
          "name": "to",
          "type": "address"
        },
        {
          "indexed": false,
          "internalType": "uint256",
          "name": "value",
          "type": "uint256"
        }
      ],
      "name": "Transfer",
      "type": "event"
    },
    {
      "inputs": [],
      "name": "ATOKEN_REVISION",
      "outputs": [
        {
          "internalType": "uint256",
          "name": "",
          "type": "uint256"
        }
      ],
      "stateMutability": "view",
      "type": "function"
    },
    {
      "inputs": [],
      "name": "DOMAIN_SEPARATOR",
      "outputs": [
        {
          "internalType": "bytes32",
          "name": "",
          "type": "bytes32"
        }
      ],
      "stateMutability": "view",
      "type": "function"
    },
    {
      "inputs": [],
      "name": "EIP712_REVISION",
      "outputs": [
        {
          "internalType": "bytes",
          "name": "",
          "type": "bytes"
        }
      ],
      "stateMutability": "view",
      "type": "function"
    },
    {
      "inputs": [],
      "name": "PERMIT_TYPEHASH",
      "outputs": [
        {
          "internalType": "bytes32",
          "name": "",
          "type": "bytes32"
        }
      ],
      "stateMutability": "view",
      "type": "function"
    },
    {
      "inputs": [],
      "name": "POOL",
      "outputs": [
        {
          "internalType": "contract IPool",
          "name": "",
          "type": "address"
        }
      ],
      "stateMutability": "view",
      "type": "function"
    },
    {
      "inputs": [],
      "name": "RESERVE_TREASURY_ADDRESS",
      "outputs": [
        {
          "internalType": "address",
          "name": "",
          "type": "address"
        }
      ],
      "stateMutability": "view",
      "type": "function"
    },
    {
      "inputs": [],
      "name": "UNDERLYING_ASSET_ADDRESS",
      "outputs": [
        {
          "internalType": "address",
          "name": "",
          "type": "address"
        }
      ],
      "stateMutability": "view",
      "type": "function"
    },
    {
      "inputs": [
        {
          "internalType": "address",
          "name": "owner",
          "type": "address"
        },
        {
          "internalType": "address",
          "name": "spender",
          "type": "address"
        }
      ],
      "name": "allowance",
      "outputs": [
        {
          "internalType": "uint256",
          "name": "",
          "type": "uint256"
        }
      ],
      "stateMutability": "view",
      "type": "function"
    },
    {
      "inputs": [
        {
          "internalType": "address",
          "name": "spender",
          "type": "address"
        },
        {
          "internalType": "uint256",
          "name": "amount",
          "type": "uint256"
        }
      ],
      "name": "approve",
      "outputs": [
        {
          "internalType": "bool",
          "name": "",
          "type": "bool"
        }
      ],
      "stateMutability": "nonpayable",
      "type": "function"
    },
    {
      "inputs": [
        {
          "internalType": "address",
          "name": "user",
          "type": "address"
        }
      ],
      "name": "balanceOf",
      "outputs": [
        {
          "internalType": "uint256",
          "name": "",
          "type": "uint256"
        }
      ],
      "stateMutability": "view",
      "type": "function"
    },
    {
      "inputs": [
        {
          "internalType": "address",
          "name": "from",
          "type": "address"
        },
        {
          "internalType": "address",
          "name": "receiverOfUnderlying",
          "type": "address"
        },
        {
          "internalType": "uint256",
          "name": "amount",
          "type": "uint256"
        },
        {
          "internalType": "uint256",
          "name": "index",
          "type": "uint256"
        }
      ],
      "name": "burn",
      "outputs": [],
      "stateMutability": "nonpayable",
      "type": "function"
    },
    {
      "inputs": [],
      "name": "decimals",
      "outputs": [
        {
          "internalType": "uint8",
          "name": "",
          "type": "uint8"
        }
      ],
      "stateMutability": "view",
      "type": "function"
    },
    {
      "inputs": [
        {
          "internalType": "address",
          "name": "spender",
          "type": "address"
        },
        {
          "internalType": "uint256",
          "name": "subtractedValue",
          "type": "uint256"
        }
      ],
      "name": "decreaseAllowance",
      "outputs": [
        {
          "internalType": "bool",
          "name": "",
          "type": "bool"
        }
      ],
      "stateMutability": "nonpayable",
      "type": "function"
    },
    {
      "inputs": [],
      "name": "getIncentivesController",
      "outputs": [
        {
          "internalType": "contract IAaveIncentivesController",
          "name": "",
          "type": "address"
        }
      ],
      "stateMutability": "view",
      "type": "function"
    },
    {
      "inputs": [
        {
          "internalType": "address",
          "name": "user",
          "type": "address"
        }
      ],
      "name": "getPreviousIndex",
      "outputs": [
        {
          "internalType": "uint256",
          "name": "",
          "type": "uint256"
        }
      ],
      "stateMutability": "view",
      "type": "function"
    },
    {
      "inputs": [
        {
          "internalType": "address",
          "name": "user",
          "type": "address"
        }
      ],
      "name": "getScaledUserBalanceAndSupply",
      "outputs": [
        {
          "internalType": "uint256",
          "name": "",
          "type": "uint256"
        },
        {
          "internalType": "uint256",
          "name": "",
          "type": "uint256"
        }
      ],
      "stateMutability": "view",
      "type": "function"
    },
    {
      "inputs": [
        {
          "internalType": "address",
          "name": "user",
          "type": "address"
        },
        {
          "internalType": "address",
          "name": "onBehalfOf",
          "type": "address"
        },
        {
          "internalType": "uint256",
          "name": "amount",
          "type": "uint256"
        }
      ],
      "name": "handleRepayment",
      "outputs": [],
      "stateMutability": "nonpayable",
      "type": "function"
    },
    {
      "inputs": [
        {
          "internalType": "address",
          "name": "spender",
          "type": "address"
        },
        {
          "internalType": "uint256",
          "name": "addedValue",
          "type": "uint256"
        }
      ],
      "name": "increaseAllowance",
      "outputs": [
        {
          "internalType": "bool",
          "name": "",
          "type": "bool"
        }
      ],
      "stateMutability": "nonpayable",
      "type": "function"
    },
    {
      "inputs": [
        {
          "internalType": "contract IPool",
          "name": "initializingPool",
          "type": "address"
        },
        {
          "internalType": "address",
          "name": "treasury",
          "type": "address"
        },
        {
          "internalType": "address",
          "name": "underlyingAsset",
          "type": "address"
        },
        {
          "internalType": "contract IAaveIncentivesController",
          "name": "incentivesController",
          "type": "address"
        },
        {
          "internalType": "uint8",
          "name": "aTokenDecimals",
          "type": "uint8"
        },
        {
          "internalType": "string",
          "name": "aTokenName",
          "type": "string"
        },
        {
          "internalType": "string",
          "name": "aTokenSymbol",
          "type": "string"
        },
        {
          "internalType": "bytes",
          "name": "params",
          "type": "bytes"
        }
      ],
      "name": "initialize",
      "outputs": [],
      "stateMutability": "nonpayable",
      "type": "function"
    },
    {
      "inputs": [
        {
          "internalType": "address",
          "name": "caller",
          "type": "address"
        },
        {
          "internalType": "address",
          "name": "onBehalfOf",
          "type": "address"
        },
        {
          "internalType": "uint256",
          "name": "amount",
          "type": "uint256"
        },
        {
          "internalType": "uint256",
          "name": "index",
          "type": "uint256"
        }
      ],
      "name": "mint",
      "outputs": [
        {
          "internalType": "bool",
          "name": "",
          "type": "bool"
        }
      ],
      "stateMutability": "nonpayable",
      "type": "function"
    },
    {
      "inputs": [
        {
          "internalType": "uint256",
          "name": "amount",
          "type": "uint256"
        },
        {
          "internalType": "uint256",
          "name": "index",
          "type": "uint256"
        }
      ],
      "name": "mintToTreasury",
      "outputs": [],
      "stateMutability": "nonpayable",
      "type": "function"
    },
    {
      "inputs": [],
      "name": "name",
      "outputs": [
        {
          "internalType": "string",
          "name": "",
          "type": "string"
        }
      ],
      "stateMutability": "view",
      "type": "function"
    },
    {
      "inputs": [
        {
          "internalType": "address",
          "name": "owner",
          "type": "address"
        }
      ],
      "name": "nonces",
      "outputs": [
        {
          "internalType": "uint256",
          "name": "",
          "type": "uint256"
        }
      ],
      "stateMutability": "view",
      "type": "function"
    },
    {
      "inputs": [
        {
          "internalType": "address",
          "name": "owner",
          "type": "address"
        },
        {
          "internalType": "address",
          "name": "spender",
          "type": "address"
        },
        {
          "internalType": "uint256",
          "name": "value",
          "type": "uint256"
        },
        {
          "internalType": "uint256",
          "name": "deadline",
          "type": "uint256"
        },
        {
          "internalType": "uint8",
          "name": "v",
          "type": "uint8"
        },
        {
          "internalType": "bytes32",
          "name": "r",
          "type": "bytes32"
        },
        {
          "internalType": "bytes32",
          "name": "s",
          "type": "bytes32"
        }
      ],
      "name": "permit",
      "outputs": [],
      "stateMutability": "nonpayable",
      "type": "function"
    },
    {
      "inputs": [
        {
          "internalType": "address",
          "name": "token",
          "type": "address"
        },
        {
          "internalType": "address",
          "name": "to",
          "type": "address"
        },
        {
          "internalType": "uint256",
          "name": "amount",
          "type": "uint256"
        }
      ],
      "name": "rescueTokens",
      "outputs": [],
      "stateMutability": "nonpayable",
      "type": "function"
    },
    {
      "inputs": [
        {
          "internalType": "address",
          "name": "user",
          "type": "address"
        }
      ],
      "name": "scaledBalanceOf",
      "outputs": [
        {
          "internalType": "uint256",
          "name": "",
          "type": "uint256"
        }
      ],
      "stateMutability": "view",
      "type": "function"
    },
    {
      "inputs": [],
      "name": "scaledTotalSupply",
      "outputs": [
        {
          "internalType": "uint256",
          "name": "",
          "type": "uint256"
        }
      ],
      "stateMutability": "view",
      "type": "function"
    },
    {
      "inputs": [
        {
          "internalType": "contract IAaveIncentivesController",
          "name": "controller",
          "type": "address"
        }
      ],
      "name": "setIncentivesController",
      "outputs": [],
      "stateMutability": "nonpayable",
      "type": "function"
    },
    {
      "inputs": [],
      "name": "symbol",
      "outputs": [
        {
          "internalType": "string",
          "name": "",
          "type": "string"
        }
      ],
      "stateMutability": "view",
      "type": "function"
    },
    {
      "inputs": [],
      "name": "totalSupply",
      "outputs": [
        {
          "internalType": "uint256",
          "name": "",
          "type": "uint256"
        }
      ],
      "stateMutability": "view",
      "type": "function"
    },
    {
      "inputs": [
        {
          "internalType": "address",
          "name": "recipient",
          "type": "address"
        },
        {
          "internalType": "uint256",
          "name": "amount",
          "type": "uint256"
        }
      ],
      "name": "transfer",
      "outputs": [
        {
          "internalType": "bool",
          "name": "",
          "type": "bool"
        }
      ],
      "stateMutability": "nonpayable",
      "type": "function"
    },
    {
      "inputs": [
        {
          "internalType": "address",
          "name": "sender",
          "type": "address"
        },
        {
          "internalType": "address",
          "name": "recipient",
          "type": "address"
        },
        {
          "internalType": "uint256",
          "name": "amount",
          "type": "uint256"
        }
      ],
      "name": "transferFrom",
      "outputs": [
        {
          "internalType": "bool",
          "name": "",
          "type": "bool"
        }
      ],
      "stateMutability": "nonpayable",
      "type": "function"
    },
    {
      "inputs": [
        {
          "internalType": "address",
          "name": "from",
          "type": "address"
        },
        {
          "internalType": "address",
          "name": "to",
          "type": "address"
        },
        {
          "internalType": "uint256",
          "name": "value",
          "type": "uint256"
        }
      ],
      "name": "transferOnLiquidation",
      "outputs": [],
      "stateMutability": "nonpayable",
      "type": "function"
    },
    {
      "inputs": [
        {
          "internalType": "address",
          "name": "target",
          "type": "address"
        },
        {
          "internalType": "uint256",
          "name": "amount",
          "type": "uint256"
        }
      ],
      "name": "transferUnderlyingTo",
      "outputs": [],
      "stateMutability": "nonpayable",
      "type": "function"
    }
  ],
  "bytecode": "0x60e0604052600080553480156200001557600080fd5b50604051620050933803806200509383398181016040528101906200003b919062000321565b806040518060400160405280600b81526020017f41544f4b454e5f494d504c0000000000000000000000000000000000000000008152506040518060400160405280600b81526020017f41544f4b454e5f494d504c000000000000000000000000000000000000000000815250600083838383838383838373ffffffffffffffffffffffffffffffffffffffff16630542975c6040518163ffffffff1660e01b8152600401602060405180830381865afa158015620000fe573d6000803e3d6000fd5b505050506040513d601f19601f8201168201806040525081019062000124919062000398565b73ffffffffffffffffffffffffffffffffffffffff1660808173ffffffffffffffffffffffffffffffffffffffff168152505082603790805190602001906200016f929190620001f3565b50816038908051906020019062000188929190620001f3565b5080603960006101000a81548160ff021916908360ff1602179055508373ffffffffffffffffffffffffffffffffffffffff1660a08173ffffffffffffffffffffffffffffffffffffffff16815250505050505050505050505050504660c08181525050506200042f565b8280546200020190620003f9565b90600052602060002090601f01602090048101928262000225576000855562000271565b82601f106200024057805160ff191683800117855562000271565b8280016001018555821562000271579182015b828111156200027057825182559160200191906001019062000253565b5b50905062000280919062000284565b5090565b5b808211156200029f57600081600090555060010162000285565b5090565b600080fd5b600073ffffffffffffffffffffffffffffffffffffffff82169050919050565b6000620002d582620002a8565b9050919050565b6000620002e982620002c8565b9050919050565b620002fb81620002dc565b81146200030757600080fd5b50565b6000815190506200031b81620002f0565b92915050565b6000602082840312156200033a5762000339620002a3565b5b60006200034a848285016200030a565b91505092915050565b60006200036082620002c8565b9050919050565b620003728162000353565b81146200037e57600080fd5b50565b600081519050620003928162000367565b92915050565b600060208284031215620003b157620003b0620002a3565b5b6000620003c18482850162000381565b91505092915050565b7f4e487b7100000000000000000000000000000000000000000000000000000000600052602260045260246000fd5b600060028204905060018216806200041257607f821691505b60208210811415620004295762000428620003ca565b5b50919050565b60805160a05160c051614bd2620004c1600039600061239d0152600081816107c50152818161094a01528181610b8501528181610e2a01528181610f4901528181611021015281816110fb01528181611182015281816112610152818161149201528181611b3e01528181611f6a01528181612b640152612c500152600081816115780152611da20152614bd26000f3fe608060405234801561001057600080fd5b50600436106102065760003560e01c8063781603761161011a578063b1bf962d116100ad578063d7020d0a1161007c578063d7020d0a1461061a578063dd62ed3e14610636578063e075398614610666578063e655dbd814610696578063f866c319146106b257610206565b8063b1bf962d14610594578063b3f1c93d146105b2578063cea9d26f146105e2578063d505accf146105fe57610206565b8063a457c2d7116100e9578063a457c2d7146104f8578063a9059cbb14610528578063ae16733514610558578063b16a19de1461057657610206565b806378160376146104705780637df5bd3b1461048e5780637ecebe00146104aa57806395d89b41146104da57610206565b806330adf81f1161019d5780634efecaa51161016c5780634efecaa5146103cc5780636fd97676146103e857806370a08231146104045780637535d2461461043457806375d264131461045257610206565b806330adf81f14610342578063313ce567146103605780633644e5151461037e578063395093511461039c57610206565b806318160ddd116101d957806318160ddd146102a8578063183fb413146102c65780631da24f3e146102e257806323b872dd1461031257610206565b806306fdde031461020b578063095ea7b3146102295780630afbcdc9146102595780630bd7ad3b1461028a575b600080fd5b6102136106ce565b6040516102209190613bca565b60405180910390f35b610243600480360381019061023e9190613c8a565b610760565b6040516102509190613ce5565b60405180910390f35b610273600480360381019061026e9190613d00565b61077e565b604051610281929190613d3c565b60405180910390f35b61029261079b565b60405161029f9190613d65565b60405180910390f35b6102b06107a0565b6040516102bd9190613d65565b60405180910390f35b6102e060048036038101906102db9190613ef0565b610895565b005b6102fc60048036038101906102f79190613d00565b610c49565b6040516103099190613d65565b60405180910390f35b61032c60048036038101906103279190614008565b610c5b565b6040516103399190613ce5565b60405180910390f35b61034a610d32565b6040516103579190614074565b60405180910390f35b610368610d56565b604051610375919061409e565b60405180910390f35b610386610d6d565b6040516103939190614074565b60405180910390f35b6103b660048036038101906103b19190613c8a565b610d7c565b6040516103c39190613ce5565b60405180910390f35b6103e660048036038101906103e19190613c8a565b610e28565b005b61040260048036038101906103fd9190614008565b610f47565b005b61041e60048036038101906104199190613d00565b61101a565b60405161042b9190613d65565b60405180910390f35b61043c6110f9565b6040516104499190614118565b60405180910390f35b61045a61111d565b6040516104679190614154565b60405180910390f35b610478611147565b60405161048591906141c4565b60405180910390f35b6104a860048036038101906104a391906141e6565b611180565b005b6104c460048036038101906104bf9190613d00565b6112b0565b6040516104d19190613d65565b60405180910390f35b6104e26112c2565b6040516104ef9190613bca565b60405180910390f35b610512600480360381019061050d9190613c8a565b611354565b60405161051f9190613ce5565b60405180910390f35b610542600480360381019061053d9190613c8a565b611400565b60405161054f9190613ce5565b60405180910390f35b61056061142b565b60405161056d9190614235565b60405180910390f35b61057e611455565b60405161058b9190614235565b60405180910390f35b61059c61147f565b6040516105a99190613d65565b60405180910390f35b6105cc60048036038101906105c79190614250565b61148e565b6040516105d99190613ce5565b60405180910390f35b6105fc60048036038101906105f79190614008565b611574565b005b610618600480360381019061061391906142e3565b6117f4565b005b610634600480360381019061062f9190614250565b611b3c565b005b610650600480360381019061064b9190614385565b611c9d565b60405161065d9190613d65565b60405180910390f35b610680600480360381019061067b9190613d00565b611d24565b60405161068d9190613d65565b60405180910390f35b6106b060048036038101906106ab91906143c5565b611d9e565b005b6106cc60048036038101906106c79190614008565b611f68565b005b6060603780546106dd90614421565b80601f016020809104026020016040519081016040528092919081815260200182805461070990614421565b80156107565780601f1061072b57610100808354040283529160200191610756565b820191906000526020600020905b81548152906001019060200180831161073957829003601f168201915b5050505050905090565b600061077461076d612048565b8484612050565b6001905092915050565b60008061078a8361213b565b6107926121b5565b91509150915091565b600181565b6000806107ab6121b5565b905060008114156107c0576000915050610892565b61088e7f000000000000000000000000000000000000000000000000000000000000000073ffffffffffffffffffffffffffffffffffffffff1663d15e0053603d60009054906101000a900473ffffffffffffffffffffffffffffffffffffffff166040518263ffffffff1660e01b815260040161083e9190614235565b602060405180830381865afa15801561085b573d6000803e3d6000fd5b505050506040513d601f19601f8201168201806040525081019061087f9190614468565b826121bf90919063ffffffff16565b9150505b90565b600061089f61220a565b9050600160009054906101000a900460ff16806108c057506108bf612213565b5b806108cc575060005481115b61090b576040517f08c379a000000000000000000000000000000000000000000000000000000000815260040161090290614507565b60405180910390fd5b6000600160009054906101000a900460ff1615905080156109485760018060006101000a81548160ff021916908315150217905550816000819055505b7f000000000000000000000000000000000000000000000000000000000000000073ffffffffffffffffffffffffffffffffffffffff168d73ffffffffffffffffffffffffffffffffffffffff16146040518060400160405280600281526020017f383700000000000000000000000000000000000000000000000000000000000081525090610a0e576040517f08c379a0000000000000000000000000000000000000000000000000000000008152600401610a059190613bca565b60405180910390fd5b50610a5c88888080601f016020809104026020016040519081016040528093929190818152602001838380828437600081840152601f19601f82011690508083019250505050505050612224565b610aa986868080601f016020809104026020016040519081016040528093929190818152602001838380828437600081840152601f19601f8201169050808301925050505050505061223e565b610ab289612258565b8b603c60006101000a81548173ffffffffffffffffffffffffffffffffffffffff021916908373ffffffffffffffffffffffffffffffffffffffff1602179055508a603d60006101000a81548173ffffffffffffffffffffffffffffffffffffffff021916908373ffffffffffffffffffffffffffffffffffffffff16021790555089603960016101000a81548173ffffffffffffffffffffffffffffffffffffffff021916908373ffffffffffffffffffffffffffffffffffffffff160217905550610b7d612276565b603b819055507f000000000000000000000000000000000000000000000000000000000000000073ffffffffffffffffffffffffffffffffffffffff168b73ffffffffffffffffffffffffffffffffffffffff167fb19e051f8af41150ccccb3fc2c2d8d15f4a4cf434f32a559ba75fe73d6eea20b8e8d8d8d8d8d8d8d8d604051610c1099989796959493929190614590565b60405180910390a38015610c3a576000600160006101000a81548160ff0219169083151502179055505b50505050505050505050505050565b6000610c548261213b565b9050919050565b600080610c6783612316565b9050610d1b85610c75612048565b836fffffffffffffffffffffffffffffffff16603560008a73ffffffffffffffffffffffffffffffffffffffff1673ffffffffffffffffffffffffffffffffffffffff1681526020019081526020016000206000610cd1612048565b73ffffffffffffffffffffffffffffffffffffffff1673ffffffffffffffffffffffffffffffffffffffff16815260200190815260200160002054610d16919061463b565b612050565b610d26858583612375565b60019150509392505050565b7f6e71edae12b1b97f4d1f60370fef10105fa2faae0126114a169c64845d6126c981565b6000603960009054906101000a900460ff16905090565b6000610d77612399565b905090565b6000610e1e610d89612048565b848460356000610d97612048565b73ffffffffffffffffffffffffffffffffffffffff1673ffffffffffffffffffffffffffffffffffffffff16815260200190815260200160002060008873ffffffffffffffffffffffffffffffffffffffff1673ffffffffffffffffffffffffffffffffffffffff16815260200190815260200160002054610e19919061466f565b612050565b6001905092915050565b7f000000000000000000000000000000000000000000000000000000000000000073ffffffffffffffffffffffffffffffffffffffff16610e67612048565b73ffffffffffffffffffffffffffffffffffffffff16146040518060400160405280600281526020017f323300000000000000000000000000000000000000000000000000000000000081525090610ef5576040517f08c379a0000000000000000000000000000000000000000000000000000000008152600401610eec9190613bca565b60405180910390fd5b50610f438282603d60009054906101000a900473ffffffffffffffffffffffffffffffffffffffff1673ffffffffffffffffffffffffffffffffffffffff166123db9092919063ffffffff16565b5050565b7f000000000000000000000000000000000000000000000000000000000000000073ffffffffffffffffffffffffffffffffffffffff16610f86612048565b73ffffffffffffffffffffffffffffffffffffffff16146040518060400160405280600281526020017f323300000000000000000000000000000000000000000000000000000000000081525090611014576040517f08c379a000000000000000000000000000000000000000000000000000000000815260040161100b9190613bca565b60405180910390fd5b50505050565b60006110f27f000000000000000000000000000000000000000000000000000000000000000073ffffffffffffffffffffffffffffffffffffffff1663d15e0053603d60009054906101000a900473ffffffffffffffffffffffffffffffffffffffff166040518263ffffffff1660e01b815260040161109a9190614235565b602060405180830381865afa1580156110b7573d6000803e3d6000fd5b505050506040513d601f19601f820116820180604052508101906110db9190614468565b6110e48461213b565b6121bf90919063ffffffff16565b9050919050565b7f000000000000000000000000000000000000000000000000000000000000000081565b6000603960019054906101000a900473ffffffffffffffffffffffffffffffffffffffff16905090565b6040518060400160405280600181526020017f310000000000000000000000000000000000000000000000000000000000000081525081565b7f000000000000000000000000000000000000000000000000000000000000000073ffffffffffffffffffffffffffffffffffffffff166111bf612048565b73ffffffffffffffffffffffffffffffffffffffff16146040518060400160405280600281526020017f32330000000000000000000000000000000000000000000000000000000000008152509061124d576040517f08c379a00000000000000000000000000000000000000000000000000000000081526004016112449190613bca565b60405180910390fd5b50600082141561125c576112ac565b6112aa7f0000000000000000000000000000000000000000000000000000000000000000603c60009054906101000a900473ffffffffffffffffffffffffffffffffffffffff168484612477565b505b5050565b60006112bb82612741565b9050919050565b6060603880546112d190614421565b80601f01602080910402602001604051908101604052809291908181526020018280546112fd90614421565b801561134a5780601f1061131f5761010080835404028352916020019161134a565b820191906000526020600020905b81548152906001019060200180831161132d57829003601f168201915b5050505050905090565b60006113f6611361612048565b84846035600061136f612048565b73ffffffffffffffffffffffffffffffffffffffff1673ffffffffffffffffffffffffffffffffffffffff16815260200190815260200160002060008873ffffffffffffffffffffffffffffffffffffffff1673ffffffffffffffffffffffffffffffffffffffff168152602001908152602001600020546113f1919061463b565b612050565b6001905092915050565b60008061140c83612316565b9050611420611419612048565b8583612375565b600191505092915050565b6000603c60009054906101000a900473ffffffffffffffffffffffffffffffffffffffff16905090565b6000603d60009054906101000a900473ffffffffffffffffffffffffffffffffffffffff16905090565b60006114896121b5565b905090565b60007f000000000000000000000000000000000000000000000000000000000000000073ffffffffffffffffffffffffffffffffffffffff166114cf612048565b73ffffffffffffffffffffffffffffffffffffffff16146040518060400160405280600281526020017f32330000000000000000000000000000000000000000000000000000000000008152509061155d576040517f08c379a00000000000000000000000000000000000000000000000000000000081526004016115549190613bca565b60405180910390fd5b5061156a85858585612477565b9050949350505050565b60007f000000000000000000000000000000000000000000000000000000000000000073ffffffffffffffffffffffffffffffffffffffff1663707cd7166040518163ffffffff1660e01b8152600401602060405180830381865afa1580156115e1573d6000803e3d6000fd5b505050506040513d601f19601f8201168201806040525081019061160591906146da565b90508073ffffffffffffffffffffffffffffffffffffffff16637be53ca1336040518263ffffffff1660e01b81526004016116409190614235565b602060405180830381865afa15801561165d573d6000803e3d6000fd5b505050506040513d601f19601f820116820180604052508101906116819190614733565b6040518060400160405280600181526020017f3100000000000000000000000000000000000000000000000000000000000000815250906116f8576040517f08c379a00000000000000000000000000000000000000000000000000000000081526004016116ef9190613bca565b60405180910390fd5b50603d60009054906101000a900473ffffffffffffffffffffffffffffffffffffffff1673ffffffffffffffffffffffffffffffffffffffff168473ffffffffffffffffffffffffffffffffffffffff1614156040518060400160405280600281526020017f3835000000000000000000000000000000000000000000000000000000000000815250906117c2576040517f08c379a00000000000000000000000000000000000000000000000000000000081526004016117b99190613bca565b60405180910390fd5b506117ee83838673ffffffffffffffffffffffffffffffffffffffff166123db9092919063ffffffff16565b50505050565b600073ffffffffffffffffffffffffffffffffffffffff168773ffffffffffffffffffffffffffffffffffffffff1614156040518060400160405280600281526020017f37370000000000000000000000000000000000000000000000000000000000008152509061189c576040517f08c379a00000000000000000000000000000000000000000000000000000000081526004016118939190613bca565b60405180910390fd5b50834211156040518060400160405280600281526020017f373800000000000000000000000000000000000000000000000000000000000081525090611918576040517f08c379a000000000000000000000000000000000000000000000000000000000815260040161190f9190613bca565b60405180910390fd5b506000603a60008973ffffffffffffffffffffffffffffffffffffffff1673ffffffffffffffffffffffffffffffffffffffff1681526020019081526020016000205490506000611967610d6d565b7f6e71edae12b1b97f4d1f60370fef10105fa2faae0126114a169c64845d6126c98a8a8a868b6040516020016119a296959493929190614760565b604051602081830303815290604052805190602001206040516020016119c9929190614839565b60405160208183030381529060405280519060200120905060018186868660405160008152602001604052604051611a049493929190614870565b6020604051602081039080840390855afa158015611a26573d6000803e3d6000fd5b5050506020604051035173ffffffffffffffffffffffffffffffffffffffff168973ffffffffffffffffffffffffffffffffffffffff16146040518060400160405280600281526020017f373900000000000000000000000000000000000000000000000000000000000081525090611ad5576040517f08c379a0000000000000000000000000000000000000000000000000000000008152600401611acc9190613bca565b60405180910390fd5b50600182611ae3919061466f565b603a60008b73ffffffffffffffffffffffffffffffffffffffff1673ffffffffffffffffffffffffffffffffffffffff16815260200190815260200160002081905550611b31898989612050565b505050505050505050565b7f000000000000000000000000000000000000000000000000000000000000000073ffffffffffffffffffffffffffffffffffffffff16611b7b612048565b73ffffffffffffffffffffffffffffffffffffffff16146040518060400160405280600281526020017f323300000000000000000000000000000000000000000000000000000000000081525090611c09576040517f08c379a0000000000000000000000000000000000000000000000000000000008152600401611c009190613bca565b60405180910390fd5b50611c168484848461278a565b3073ffffffffffffffffffffffffffffffffffffffff168373ffffffffffffffffffffffffffffffffffffffff1614611c9757611c968383603d60009054906101000a900473ffffffffffffffffffffffffffffffffffffffff1673ffffffffffffffffffffffffffffffffffffffff166123db9092919063ffffffff16565b5b50505050565b6000603560008473ffffffffffffffffffffffffffffffffffffffff1673ffffffffffffffffffffffffffffffffffffffff16815260200190815260200160002060008373ffffffffffffffffffffffffffffffffffffffff1673ffffffffffffffffffffffffffffffffffffffff16815260200190815260200160002054905092915050565b6000603460008373ffffffffffffffffffffffffffffffffffffffff1673ffffffffffffffffffffffffffffffffffffffff16815260200190815260200160002060000160109054906101000a90046fffffffffffffffffffffffffffffffff166fffffffffffffffffffffffffffffffff169050919050565b60007f000000000000000000000000000000000000000000000000000000000000000073ffffffffffffffffffffffffffffffffffffffff1663707cd7166040518163ffffffff1660e01b8152600401602060405180830381865afa158015611e0b573d6000803e3d6000fd5b505050506040513d601f19601f82011682018060405250810190611e2f91906146da565b90508073ffffffffffffffffffffffffffffffffffffffff16637be53ca1336040518263ffffffff1660e01b8152600401611e6a9190614235565b602060405180830381865afa158015611e87573d6000803e3d6000fd5b505050506040513d601f19601f82011682018060405250810190611eab9190614733565b6040518060400160405280600181526020017f310000000000000000000000000000000000000000000000000000000000000081525090611f22576040517f08c379a0000000000000000000000000000000000000000000000000000000008152600401611f199190613bca565b60405180910390fd5b5081603960016101000a81548173ffffffffffffffffffffffffffffffffffffffff021916908373ffffffffffffffffffffffffffffffffffffffff1602179055505050565b7f000000000000000000000000000000000000000000000000000000000000000073ffffffffffffffffffffffffffffffffffffffff16611fa7612048565b73ffffffffffffffffffffffffffffffffffffffff16146040518060400160405280600281526020017f323300000000000000000000000000000000000000000000000000000000000081525090612035576040517f08c379a000000000000000000000000000000000000000000000000000000000815260040161202c9190613bca565b60405180910390fd5b506120438383836000612b39565b505050565b600033905090565b80603560008573ffffffffffffffffffffffffffffffffffffffff1673ffffffffffffffffffffffffffffffffffffffff16815260200190815260200160002060008473ffffffffffffffffffffffffffffffffffffffff1673ffffffffffffffffffffffffffffffffffffffff168152602001908152602001600020819055508173ffffffffffffffffffffffffffffffffffffffff168373ffffffffffffffffffffffffffffffffffffffff167f8c5be1e5ebec7d5bd14f71427d1e84f3dd0314c0f7b2291e5b200ac8c7c3b9258360405161212e9190613d65565b60405180910390a3505050565b6000603460008373ffffffffffffffffffffffffffffffffffffffff1673ffffffffffffffffffffffffffffffffffffffff16815260200190815260200160002060000160009054906101000a90046fffffffffffffffffffffffffffffffff166fffffffffffffffffffffffffffffffff169050919050565b6000603654905090565b6000816b019d971e4fe8401e7400000060001903048311158215176121e357600080fd5b6b033b2e3c9fd0803ce80000006b019d971e4fe8401e740000008385020104905092915050565b60006001905090565b600080303b90506000811491505090565b806037908051906020019061223a929190613a8e565b5050565b8060389080519060200190612254929190613a8e565b5050565b80603960006101000a81548160ff021916908360ff16021790555050565b60007f8b73c3c69bb8fe3d512ecc4cf759cc79239f7b179b0ffacaa9a75d522b39400f6122a1612d67565b805190602001206040518060400160405280600181526020017f31000000000000000000000000000000000000000000000000000000000000008152508051906020012046306040516020016122fb9594939291906148b5565b60405160208183030381529060405280519060200120905090565b60006fffffffffffffffffffffffffffffffff801682111561236d576040517f08c379a00000000000000000000000000000000000000000000000000000000081526004016123649061497a565b60405180910390fd5b819050919050565b6123948383836fffffffffffffffffffffffffffffffff166001612b39565b505050565b60007f00000000000000000000000000000000000000000000000000000000000000004614156123cd57603b5490506123d8565b6123d5612276565b90505b90565b600063a9059cbb60e01b905060405181815273ffffffffffffffffffffffffffffffffffffffff841660048201528260248201526000806044836000895af1612428573d6000803e3d6000fd5b5061243284612d76565b612471576040517f08c379a0000000000000000000000000000000000000000000000000000000008152600401612468906149e6565b60405180910390fd5b50505050565b60008061248d8385612e4390919063ffffffff16565b905060008114156040518060400160405280600281526020017f32340000000000000000000000000000000000000000000000000000000000008152509061250b576040517f08c379a00000000000000000000000000000000000000000000000000000000081526004016125029190613bca565b60405180910390fd5b5060006125178661213b565b9050600061259e603460008973ffffffffffffffffffffffffffffffffffffffff1673ffffffffffffffffffffffffffffffffffffffff16815260200190815260200160002060000160109054906101000a90046fffffffffffffffffffffffffffffffff166fffffffffffffffffffffffffffffffff16836121bf90919063ffffffff16565b6125b186846121bf90919063ffffffff16565b6125bb919061463b565b90506125c685612316565b603460008973ffffffffffffffffffffffffffffffffffffffff1673ffffffffffffffffffffffffffffffffffffffff16815260200190815260200160002060000160106101000a8154816fffffffffffffffffffffffffffffffff02191690836fffffffffffffffffffffffffffffffff1602179055506126508761264b85612316565b612e8a565b6000818761265e919061466f565b90508773ffffffffffffffffffffffffffffffffffffffff16600073ffffffffffffffffffffffffffffffffffffffff167fddf252ad1be2c89b69c2b068fc378daa952ba7f163c4a11628f55a4df523b3ef836040516126be9190613d65565b60405180910390a38773ffffffffffffffffffffffffffffffffffffffff168973ffffffffffffffffffffffffffffffffffffffff167f458f5fa412d0f69b08dd84872b0215675cc67bc1d5b6fd93300a1c3878b8619683858a60405161272793929190614a06565b60405180910390a360008314945050505050949350505050565b6000603a60008373ffffffffffffffffffffffffffffffffffffffff1673ffffffffffffffffffffffffffffffffffffffff168152602001908152602001600020549050919050565b600061279f8284612e4390919063ffffffff16565b905060008114156040518060400160405280600281526020017f32350000000000000000000000000000000000000000000000000000000000008152509061281d576040517f08c379a00000000000000000000000000000000000000000000000000000000081526004016128149190613bca565b60405180910390fd5b5060006128298661213b565b905060006128b0603460008973ffffffffffffffffffffffffffffffffffffffff1673ffffffffffffffffffffffffffffffffffffffff16815260200190815260200160002060000160109054906101000a90046fffffffffffffffffffffffffffffffff166fffffffffffffffffffffffffffffffff16836121bf90919063ffffffff16565b6128c385846121bf90919063ffffffff16565b6128cd919061463b565b90506128d884612316565b603460008973ffffffffffffffffffffffffffffffffffffffff1673ffffffffffffffffffffffffffffffffffffffff16815260200190815260200160002060000160106101000a8154816fffffffffffffffffffffffffffffffff02191690836fffffffffffffffffffffffffffffffff1602179055506129628761295d85612316565b61306e565b84811115612a4f5760008582612978919061463b565b90508773ffffffffffffffffffffffffffffffffffffffff16600073ffffffffffffffffffffffffffffffffffffffff167fddf252ad1be2c89b69c2b068fc378daa952ba7f163c4a11628f55a4df523b3ef836040516129d89190613d65565b60405180910390a38773ffffffffffffffffffffffffffffffffffffffff168873ffffffffffffffffffffffffffffffffffffffff167f458f5fa412d0f69b08dd84872b0215675cc67bc1d5b6fd93300a1c3878b86196838589604051612a4193929190614a06565b60405180910390a350612b30565b60008186612a5d919061463b565b9050600073ffffffffffffffffffffffffffffffffffffffff168873ffffffffffffffffffffffffffffffffffffffff167fddf252ad1be2c89b69c2b068fc378daa952ba7f163c4a11628f55a4df523b3ef83604051612abd9190613d65565b60405180910390a38673ffffffffffffffffffffffffffffffffffffffff168873ffffffffffffffffffffffffffffffffffffffff167f4cf25bc1d991c17529c25213d3cc0cda295eeaad5f13f361969b12ea48015f90838589604051612b2693929190614a06565b60405180910390a3505b50505050505050565b6000603d60009054906101000a900473ffffffffffffffffffffffffffffffffffffffff16905060007f000000000000000000000000000000000000000000000000000000000000000073ffffffffffffffffffffffffffffffffffffffff1663d15e0053836040518263ffffffff1660e01b8152600401612bbb9190614235565b602060405180830381865afa158015612bd8573d6000803e3d6000fd5b505050506040513d601f19601f82011682018060405250810190612bfc9190614468565b90506000612c1b82612c0d8961213b565b6121bf90919063ffffffff16565b90506000612c3a83612c2c8961213b565b6121bf90919063ffffffff16565b9050612c4888888886613252565b8415612ce4577f000000000000000000000000000000000000000000000000000000000000000073ffffffffffffffffffffffffffffffffffffffff1663d5ed3933858a8a8a87876040518763ffffffff1660e01b8152600401612cb196959493929190614a3d565b600060405180830381600087803b158015612ccb57600080fd5b505af1158015612cdf573d6000803e3d6000fd5b505050505b8673ffffffffffffffffffffffffffffffffffffffff168873ffffffffffffffffffffffffffffffffffffffff167f4beccb90f994c31aced7a23b5611020728a23d8ec5cddd1a3e9d97b96fda8666612d46868a612e4390919063ffffffff16565b86604051612d55929190613d3c565b60405180910390a35050505050505050565b6060612d716106ce565b905090565b6000612db4565b7f08c379a0000000000000000000000000000000000000000000000000000000006000526020600452806024528160445260646000fd5b3d60008114612df55760208114612e3057612df07f475076323a206d616c666f726d6564207472616e7366657220726573756c7400601f612d7d565b612e3d565b823b612e2757612e267f475076323a206e6f74206120636f6e74726163740000000000000000000000006014612d7d565b5b60019150612e3d565b3d6000803e600051151591505b50919050565b60006b033b2e3c9fd0803ce80000006002830460001903048311151582151715612e6c57600080fd5b81600283046b033b2e3c9fd0803ce800000085020104905092915050565b60006036549050816fffffffffffffffffffffffffffffffff1681612eaf919061466f565b6036819055506000603460008573ffffffffffffffffffffffffffffffffffffffff1673ffffffffffffffffffffffffffffffffffffffff16815260200190815260200160002060000160009054906101000a90046fffffffffffffffffffffffffffffffff1690508281612f249190614aba565b603460008673ffffffffffffffffffffffffffffffffffffffff1673ffffffffffffffffffffffffffffffffffffffff16815260200190815260200160002060000160006101000a8154816fffffffffffffffffffffffffffffffff02191690836fffffffffffffffffffffffffffffffff1602179055506000603960019054906101000a900473ffffffffffffffffffffffffffffffffffffffff169050600073ffffffffffffffffffffffffffffffffffffffff168173ffffffffffffffffffffffffffffffffffffffff1614613067578073ffffffffffffffffffffffffffffffffffffffff166331873e2e8685856040518463ffffffff1660e01b815260040161303493929190614b31565b600060405180830381600087803b15801561304e57600080fd5b505af1158015613062573d6000803e3d6000fd5b505050505b5050505050565b60006036549050816fffffffffffffffffffffffffffffffff1681613093919061463b565b6036819055506000603460008573ffffffffffffffffffffffffffffffffffffffff1673ffffffffffffffffffffffffffffffffffffffff16815260200190815260200160002060000160009054906101000a90046fffffffffffffffffffffffffffffffff16905082816131089190614b68565b603460008673ffffffffffffffffffffffffffffffffffffffff1673ffffffffffffffffffffffffffffffffffffffff16815260200190815260200160002060000160006101000a8154816fffffffffffffffffffffffffffffffff02191690836fffffffffffffffffffffffffffffffff1602179055506000603960019054906101000a900473ffffffffffffffffffffffffffffffffffffffff169050600073ffffffffffffffffffffffffffffffffffffffff168173ffffffffffffffffffffffffffffffffffffffff161461324b578073ffffffffffffffffffffffffffffffffffffffff166331873e2e8685856040518463ffffffff1660e01b815260040161321893929190614b31565b600060405180830381600087803b15801561323257600080fd5b505af1158015613246573d6000803e3d6000fd5b505050505b5050505050565b600061325d8561213b565b905060006132e4603460008873ffffffffffffffffffffffffffffffffffffffff1673ffffffffffffffffffffffffffffffffffffffff16815260200190815260200160002060000160109054906101000a90046fffffffffffffffffffffffffffffffff166fffffffffffffffffffffffffffffffff16836121bf90919063ffffffff16565b6132f784846121bf90919063ffffffff16565b613301919061463b565b9050600061330e8661213b565b90506000613395603460008973ffffffffffffffffffffffffffffffffffffffff1673ffffffffffffffffffffffffffffffffffffffff16815260200190815260200160002060000160109054906101000a90046fffffffffffffffffffffffffffffffff166fffffffffffffffffffffffffffffffff16836121bf90919063ffffffff16565b6133a886846121bf90919063ffffffff16565b6133b2919061463b565b90506133bd85612316565b603460008a73ffffffffffffffffffffffffffffffffffffffff1673ffffffffffffffffffffffffffffffffffffffff16815260200190815260200160002060000160106101000a8154816fffffffffffffffffffffffffffffffff02191690836fffffffffffffffffffffffffffffffff16021790555061343e85612316565b603460008973ffffffffffffffffffffffffffffffffffffffff1673ffffffffffffffffffffffffffffffffffffffff16815260200190815260200160002060000160106101000a8154816fffffffffffffffffffffffffffffffff02191690836fffffffffffffffffffffffffffffffff1602179055506134db88886134d66134d1898b612e4390919063ffffffff16565b612316565b613742565b60008311156135bb578773ffffffffffffffffffffffffffffffffffffffff16600073ffffffffffffffffffffffffffffffffffffffff167fddf252ad1be2c89b69c2b068fc378daa952ba7f163c4a11628f55a4df523b3ef856040516135429190613d65565b60405180910390a38773ffffffffffffffffffffffffffffffffffffffff16613569612048565b73ffffffffffffffffffffffffffffffffffffffff167f458f5fa412d0f69b08dd84872b0215675cc67bc1d5b6fd93300a1c3878b861968586896040516135b293929190614a06565b60405180910390a35b8673ffffffffffffffffffffffffffffffffffffffff168873ffffffffffffffffffffffffffffffffffffffff16141580156135f75750600081115b156136d3578673ffffffffffffffffffffffffffffffffffffffff16600073ffffffffffffffffffffffffffffffffffffffff167fddf252ad1be2c89b69c2b068fc378daa952ba7f163c4a11628f55a4df523b3ef8360405161365a9190613d65565b60405180910390a38673ffffffffffffffffffffffffffffffffffffffff16613681612048565b73ffffffffffffffffffffffffffffffffffffffff167f458f5fa412d0f69b08dd84872b0215675cc67bc1d5b6fd93300a1c3878b861968384896040516136ca93929190614a06565b60405180910390a35b8673ffffffffffffffffffffffffffffffffffffffff168873ffffffffffffffffffffffffffffffffffffffff167fddf252ad1be2c89b69c2b068fc378daa952ba7f163c4a11628f55a4df523b3ef886040516137309190613d65565b60405180910390a35050505050505050565b6000603460008573ffffffffffffffffffffffffffffffffffffffff1673ffffffffffffffffffffffffffffffffffffffff16815260200190815260200160002060000160009054906101000a90046fffffffffffffffffffffffffffffffff16905081816137b19190614b68565b603460008673ffffffffffffffffffffffffffffffffffffffff1673ffffffffffffffffffffffffffffffffffffffff16815260200190815260200160002060000160006101000a8154816fffffffffffffffffffffffffffffffff02191690836fffffffffffffffffffffffffffffffff1602179055506000603460008573ffffffffffffffffffffffffffffffffffffffff1673ffffffffffffffffffffffffffffffffffffffff16815260200190815260200160002060000160009054906101000a90046fffffffffffffffffffffffffffffffff16905082816138989190614aba565b603460008673ffffffffffffffffffffffffffffffffffffffff1673ffffffffffffffffffffffffffffffffffffffff16815260200190815260200160002060000160006101000a8154816fffffffffffffffffffffffffffffffff02191690836fffffffffffffffffffffffffffffffff1602179055506000603960019054906101000a900473ffffffffffffffffffffffffffffffffffffffff169050600073ffffffffffffffffffffffffffffffffffffffff168173ffffffffffffffffffffffffffffffffffffffff1614613a8657600060365490508173ffffffffffffffffffffffffffffffffffffffff166331873e2e8883876040518463ffffffff1660e01b81526004016139af93929190614b31565b600060405180830381600087803b1580156139c957600080fd5b505af11580156139dd573d6000803e3d6000fd5b505050508573ffffffffffffffffffffffffffffffffffffffff168773ffffffffffffffffffffffffffffffffffffffff1614613a84578173ffffffffffffffffffffffffffffffffffffffff166331873e2e8783866040518463ffffffff1660e01b8152600401613a5193929190614b31565b600060405180830381600087803b158015613a6b57600080fd5b505af1158015613a7f573d6000803e3d6000fd5b505050505b505b505050505050565b828054613a9a90614421565b90600052602060002090601f016020900481019282613abc5760008555613b03565b82601f10613ad557805160ff1916838001178555613b03565b82800160010185558215613b03579182015b82811115613b02578251825591602001919060010190613ae7565b5b509050613b109190613b14565b5090565b5b80821115613b2d576000816000905550600101613b15565b5090565b600081519050919050565b600082825260208201905092915050565b60005b83811015613b6b578082015181840152602081019050613b50565b83811115613b7a576000848401525b50505050565b6000601f19601f8301169050919050565b6000613b9c82613b31565b613ba68185613b3c565b9350613bb6818560208601613b4d565b613bbf81613b80565b840191505092915050565b60006020820190508181036000830152613be48184613b91565b905092915050565b600080fd5b600080fd5b600073ffffffffffffffffffffffffffffffffffffffff82169050919050565b6000613c2182613bf6565b9050919050565b613c3181613c16565b8114613c3c57600080fd5b50565b600081359050613c4e81613c28565b92915050565b6000819050919050565b613c6781613c54565b8114613c7257600080fd5b50565b600081359050613c8481613c5e565b92915050565b60008060408385031215613ca157613ca0613bec565b5b6000613caf85828601613c3f565b9250506020613cc085828601613c75565b9150509250929050565b60008115159050919050565b613cdf81613cca565b82525050565b6000602082019050613cfa6000830184613cd6565b92915050565b600060208284031215613d1657613d15613bec565b5b6000613d2484828501613c3f565b91505092915050565b613d3681613c54565b82525050565b6000604082019050613d516000830185613d2d565b613d5e6020830184613d2d565b9392505050565b6000602082019050613d7a6000830184613d2d565b92915050565b6000613d8b82613c16565b9050919050565b613d9b81613d80565b8114613da657600080fd5b50565b600081359050613db881613d92565b92915050565b6000613dc982613c16565b9050919050565b613dd981613dbe565b8114613de457600080fd5b50565b600081359050613df681613dd0565b92915050565b600060ff82169050919050565b613e1281613dfc565b8114613e1d57600080fd5b50565b600081359050613e2f81613e09565b92915050565b600080fd5b600080fd5b600080fd5b60008083601f840112613e5a57613e59613e35565b5b8235905067ffffffffffffffff811115613e7757613e76613e3a565b5b602083019150836001820283011115613e9357613e92613e3f565b5b9250929050565b60008083601f840112613eb057613eaf613e35565b5b8235905067ffffffffffffffff811115613ecd57613ecc613e3a565b5b602083019150836001820283011115613ee957613ee8613e3f565b5b9250929050565b60008060008060008060008060008060006101008c8e031215613f1657613f15613bec565b5b6000613f248e828f01613da9565b9b50506020613f358e828f01613c3f565b9a50506040613f468e828f01613c3f565b9950506060613f578e828f01613de7565b9850506080613f688e828f01613e20565b97505060a08c013567ffffffffffffffff811115613f8957613f88613bf1565b5b613f958e828f01613e44565b965096505060c08c013567ffffffffffffffff811115613fb857613fb7613bf1565b5b613fc48e828f01613e44565b945094505060e08c013567ffffffffffffffff811115613fe757613fe6613bf1565b5b613ff38e828f01613e9a565b92509250509295989b509295989b9093969950565b60008060006060848603121561402157614020613bec565b5b600061402f86828701613c3f565b935050602061404086828701613c3f565b925050604061405186828701613c75565b9150509250925092565b6000819050919050565b61406e8161405b565b82525050565b60006020820190506140896000830184614065565b92915050565b61409881613dfc565b82525050565b60006020820190506140b3600083018461408f565b92915050565b6000819050919050565b60006140de6140d96140d484613bf6565b6140b9565b613bf6565b9050919050565b60006140f0826140c3565b9050919050565b6000614102826140e5565b9050919050565b614112816140f7565b82525050565b600060208201905061412d6000830184614109565b92915050565b600061413e826140e5565b9050919050565b61414e81614133565b82525050565b60006020820190506141696000830184614145565b92915050565b600081519050919050565b600082825260208201905092915050565b60006141968261416f565b6141a0818561417a565b93506141b0818560208601613b4d565b6141b981613b80565b840191505092915050565b600060208201905081810360008301526141de818461418b565b905092915050565b600080604083850312156141fd576141fc613bec565b5b600061420b85828601613c75565b925050602061421c85828601613c75565b9150509250929050565b61422f81613c16565b82525050565b600060208201905061424a6000830184614226565b92915050565b6000806000806080858703121561426a57614269613bec565b5b600061427887828801613c3f565b945050602061428987828801613c3f565b935050604061429a87828801613c75565b92505060606142ab87828801613c75565b91505092959194509250565b6142c08161405b565b81146142cb57600080fd5b50565b6000813590506142dd816142b7565b92915050565b600080600080600080600060e0888a03121561430257614301613bec565b5b60006143108a828b01613c3f565b97505060206143218a828b01613c3f565b96505060406143328a828b01613c75565b95505060606143438a828b01613c75565b94505060806143548a828b01613e20565b93505060a06143658a828b016142ce565b92505060c06143768a828b016142ce565b91505092959891949750929550565b6000806040838503121561439c5761439b613bec565b5b60006143aa85828601613c3f565b92505060206143bb85828601613c3f565b9150509250929050565b6000602082840312156143db576143da613bec565b5b60006143e984828501613de7565b91505092915050565b7f4e487b7100000000000000000000000000000000000000000000000000000000600052602260045260246000fd5b6000600282049050600182168061443957607f821691505b6020821081141561444d5761444c6143f2565b5b50919050565b60008151905061446281613c5e565b92915050565b60006020828403121561447e5761447d613bec565b5b600061448c84828501614453565b91505092915050565b7f436f6e747261637420696e7374616e63652068617320616c726561647920626560008201527f656e20696e697469616c697a6564000000000000000000000000000000000000602082015250565b60006144f1602e83613b3c565b91506144fc82614495565b604082019050919050565b60006020820190508181036000830152614520816144e4565b9050919050565b82818337600083830152505050565b60006145428385613b3c565b935061454f838584614527565b61455883613b80565b840190509392505050565b600061456f838561417a565b935061457c838584614527565b61458583613b80565b840190509392505050565b600060c0820190506145a5600083018c614226565b6145b2602083018b614226565b6145bf604083018a61408f565b81810360608301526145d281888a614536565b905081810360808301526145e7818688614536565b905081810360a08301526145fc818486614563565b90509a9950505050505050505050565b7f4e487b7100000000000000000000000000000000000000000000000000000000600052601160045260246000fd5b600061464682613c54565b915061465183613c54565b9250828210156146645761466361460c565b5b828203905092915050565b600061467a82613c54565b915061468583613c54565b9250827fffffffffffffffffffffffffffffffffffffffffffffffffffffffffffffffff038211156146ba576146b961460c565b5b828201905092915050565b6000815190506146d481613c28565b92915050565b6000602082840312156146f0576146ef613bec565b5b60006146fe848285016146c5565b91505092915050565b61471081613cca565b811461471b57600080fd5b50565b60008151905061472d81614707565b92915050565b60006020828403121561474957614748613bec565b5b60006147578482850161471e565b91505092915050565b600060c0820190506147756000830189614065565b6147826020830188614226565b61478f6040830187614226565b61479c6060830186613d2d565b6147a96080830185613d2d565b6147b660a0830184613d2d565b979650505050505050565b600081905092915050565b7f1901000000000000000000000000000000000000000000000000000000000000600082015250565b60006148026002836147c1565b915061480d826147cc565b600282019050919050565b6000819050919050565b61483361482e8261405b565b614818565b82525050565b6000614844826147f5565b91506148508285614822565b6020820191506148608284614822565b6020820191508190509392505050565b60006080820190506148856000830187614065565b614892602083018661408f565b61489f6040830185614065565b6148ac6060830184614065565b95945050505050565b600060a0820190506148ca6000830188614065565b6148d76020830187614065565b6148e46040830186614065565b6148f16060830185613d2d565b6148fe6080830184614226565b9695505050505050565b7f53616665436173743a2076616c756520646f65736e27742066697420696e203160008201527f3238206269747300000000000000000000000000000000000000000000000000602082015250565b6000614964602783613b3c565b915061496f82614908565b604082019050919050565b6000602082019050818103600083015261499381614957565b9050919050565b7f475076323a206661696c6564207472616e736665720000000000000000000000600082015250565b60006149d0601583613b3c565b91506149db8261499a565b602082019050919050565b600060208201905081810360008301526149ff816149c3565b9050919050565b6000606082019050614a1b6000830186613d2d565b614a286020830185613d2d565b614a356040830184613d2d565b949350505050565b600060c082019050614a526000830189614226565b614a5f6020830188614226565b614a6c6040830187614226565b614a796060830186613d2d565b614a866080830185613d2d565b614a9360a0830184613d2d565b979650505050505050565b60006fffffffffffffffffffffffffffffffff82169050919050565b6000614ac582614a9e565b9150614ad083614a9e565b9250826fffffffffffffffffffffffffffffffff03821115614af557614af461460c565b5b828201905092915050565b6000614b1b614b16614b1184614a9e565b6140b9565b613c54565b9050919050565b614b2b81614b00565b82525050565b6000606082019050614b466000830186614226565b614b536020830185613d2d565b614b606040830184614b22565b949350505050565b6000614b7382614a9e565b9150614b7e83614a9e565b925082821015614b9157614b9061460c565b5b82820390509291505056fea264697066735822122016344a4f2cff4ff4a2892b2ee580c9b90e50e973d057985e0d55023883b30ee964736f6c634300080a0033",
  "linkReferences": {},
  "deployedLinkReferences": {}
}