{
  "_format": "hh-sol-artifact-1",
  "contractName": "ReserveConfiguration",
  "sourceName": "@aave/core-v3/contracts/protocol/libraries/configuration/ReserveConfiguration.sol",
  "abi": [
    {
      "inputs": [],
      "name": "DEBT_CEILING_DECIMALS",
      "outputs": [
        {
          "internalType": "uint256",
          "name": "",
          "type": "uint256"
        }
      ],
      "stateMutability": "view",
      "type": "function"
    },
    {
      "inputs": [],
      "name": "MAX_RESERVES_COUNT",
      "outputs": [
        {
          "internalType": "uint16",
          "name": "",
          "type": "uint16"
        }
      ],
      "stateMutability": "view",
      "type": "function"
    }
  ],
  "bytecode": "0x61011a610053600b82828239805160001a607314610046577f4e487b7100000000000000000000000000000000000000000000000000000000600052600060045260246000fd5b30600052607381538281f3fe7300000000000000000000000000000000000000003014608060405260043610603d5760003560e01c8063280d5de914604257806331b561ba14605c575b600080fd5b60486076565b604051605391906097565b60405180910390f35b6062607b565b604051606d919060cb565b60405180910390f35b600281565b608081565b6000819050919050565b6091816080565b82525050565b600060208201905060aa6000830184608a565b92915050565b600061ffff82169050919050565b60c58160b0565b82525050565b600060208201905060de600083018460be565b9291505056fea2646970667358221220c33db9884ae549a7f25013a4fec33310cd3fd9d2da887b18ef31d749ae9cf19164736f6c63430008110033",
  "linkReferences": {},
  "deployedLinkReferences": {}
}