{
  "_format": "hh-sol-artifact-1",
  "contractName": "AaveProtocolDataProvider",
  "sourceName": "@aave/core-v3/contracts/misc/AaveProtocolDataProvider.sol",
  "abi": [
    {
      "inputs": [
        {
          "internalType": "contract IPoolAddressesProvider",
          "name": "addressesProvider",
          "type": "address"
        }
      ],
      "stateMutability": "nonpayable",
      "type": "constructor"
    },
    {
      "inputs": [],
      "name": "ADDRESSES_PROVIDER",
      "outputs": [
        {
          "internalType": "contract IPoolAddressesProvider",
          "name": "",
          "type": "address"
        }
      ],
      "stateMutability": "view",
      "type": "function"
    },
    {
      "inputs": [
        {
          "internalType": "address",
          "name": "asset",
          "type": "address"
        }
      ],
      "name": "getATokenTotalSupply",
      "outputs": [
        {
          "internalType": "uint256",
          "name": "",
          "type": "uint256"
        }
      ],
      "stateMutability": "view",
      "type": "function"
    },
    {
      "inputs": [],
      "name": "getAllATokens",
      "outputs": [
        {
          "components": [
            {
              "internalType": "string",
              "name": "symbol",
              "type": "string"
            },
            {
              "internalType": "address",
              "name": "tokenAddress",
              "type": "address"
            }
          ],
          "internalType": "struct IPoolDataProvider.TokenData[]",
          "name": "",
          "type": "tuple[]"
        }
      ],
      "stateMutability": "view",
      "type": "function"
    },
    {
      "inputs": [],
      "name": "getAllReservesTokens",
      "outputs": [
        {
          "components": [
            {
              "internalType": "string",
              "name": "symbol",
              "type": "string"
            },
            {
              "internalType": "address",
              "name": "tokenAddress",
              "type": "address"
            }
          ],
          "internalType": "struct IPoolDataProvider.TokenData[]",
          "name": "",
          "type": "tuple[]"
        }
      ],
      "stateMutability": "view",
      "type": "function"
    },
    {
      "inputs": [
        {
          "internalType": "address",
          "name": "asset",
          "type": "address"
        }
      ],
      "name": "getDebtCeiling",
      "outputs": [
        {
          "internalType": "uint256",
          "name": "",
          "type": "uint256"
        }
      ],
      "stateMutability": "view",
      "type": "function"
    },
    {
      "inputs": [],
      "name": "getDebtCeilingDecimals",
      "outputs": [
        {
          "internalType": "uint256",
          "name": "",
          "type": "uint256"
        }
      ],
      "stateMutability": "pure",
      "type": "function"
    },
    {
      "inputs": [
        {
          "internalType": "address",
          "name": "asset",
          "type": "address"
        }
      ],
      "name": "getFlashLoanEnabled",
      "outputs": [
        {
          "internalType": "bool",
          "name": "",
          "type": "bool"
        }
      ],
      "stateMutability": "view",
      "type": "function"
    },
    {
      "inputs": [
        {
          "internalType": "address",
          "name": "asset",
          "type": "address"
        }
      ],
      "name": "getInterestRateStrategyAddress",
      "outputs": [
        {
          "internalType": "address",
          "name": "irStrategyAddress",
          "type": "address"
        }
      ],
      "stateMutability": "view",
      "type": "function"
    },
    {
      "inputs": [
        {
          "internalType": "address",
          "name": "asset",
          "type": "address"
        }
      ],
      "name": "getLiquidationProtocolFee",
      "outputs": [
        {
          "internalType": "uint256",
          "name": "",
          "type": "uint256"
        }
      ],
      "stateMutability": "view",
      "type": "function"
    },
    {
      "inputs": [
        {
          "internalType": "address",
          "name": "asset",
          "type": "address"
        }
      ],
      "name": "getPaused",
      "outputs": [
        {
          "internalType": "bool",
          "name": "isPaused",
          "type": "bool"
        }
      ],
      "stateMutability": "view",
      "type": "function"
    },
    {
      "inputs": [
        {
          "internalType": "address",
          "name": "asset",
          "type": "address"
        }
      ],
      "name": "getReserveCaps",
      "outputs": [
        {
          "internalType": "uint256",
          "name": "borrowCap",
          "type": "uint256"
        },
        {
          "internalType": "uint256",
          "name": "supplyCap",
          "type": "uint256"
        }
      ],
      "stateMutability": "view",
      "type": "function"
    },
    {
      "inputs": [
        {
          "internalType": "address",
          "name": "asset",
          "type": "address"
        }
      ],
      "name": "getReserveConfigurationData",
      "outputs": [
        {
          "internalType": "uint256",
          "name": "decimals",
          "type": "uint256"
        },
        {
          "internalType": "uint256",
          "name": "ltv",
          "type": "uint256"
        },
        {
          "internalType": "uint256",
          "name": "liquidationThreshold",
          "type": "uint256"
        },
        {
          "internalType": "uint256",
          "name": "liquidationBonus",
          "type": "uint256"
        },
        {
          "internalType": "uint256",
          "name": "reserveFactor",
          "type": "uint256"
        },
        {
          "internalType": "bool",
          "name": "usageAsCollateralEnabled",
          "type": "bool"
        },
        {
          "internalType": "bool",
          "name": "borrowingEnabled",
          "type": "bool"
        },
        {
          "internalType": "bool",
          "name": "stableBorrowRateEnabled",
          "type": "bool"
        },
        {
          "internalType": "bool",
          "name": "isActive",
          "type": "bool"
        },
        {
          "internalType": "bool",
          "name": "isFrozen",
          "type": "bool"
        }
      ],
      "stateMutability": "view",
      "type": "function"
    },
    {
      "inputs": [
        {
          "internalType": "address",
          "name": "asset",
          "type": "address"
        }
      ],
      "name": "getReserveData",
      "outputs": [
        {
          "internalType": "uint256",
          "name": "unbacked",
          "type": "uint256"
        },
        {
          "internalType": "uint256",
          "name": "accruedToTreasuryScaled",
          "type": "uint256"
        },
        {
          "internalType": "uint256",
          "name": "totalAToken",
          "type": "uint256"
        },
        {
          "internalType": "uint256",
          "name": "totalStableDebt",
          "type": "uint256"
        },
        {
          "internalType": "uint256",
          "name": "totalVariableDebt",
          "type": "uint256"
        },
        {
          "internalType": "uint256",
          "name": "liquidityRate",
          "type": "uint256"
        },
        {
          "internalType": "uint256",
          "name": "variableBorrowRate",
          "type": "uint256"
        },
        {
          "internalType": "uint256",
          "name": "stableBorrowRate",
          "type": "uint256"
        },
        {
          "internalType": "uint256",
          "name": "averageStableBorrowRate",
          "type": "uint256"
        },
        {
          "internalType": "uint256",
          "name": "liquidityIndex",
          "type": "uint256"
        },
        {
          "internalType": "uint256",
          "name": "variableBorrowIndex",
          "type": "uint256"
        },
        {
          "internalType": "uint40",
          "name": "lastUpdateTimestamp",
          "type": "uint40"
        }
      ],
      "stateMutability": "view",
      "type": "function"
    },
    {
      "inputs": [
        {
          "internalType": "address",
          "name": "asset",
          "type": "address"
        }
      ],
      "name": "getReserveEModeCategory",
      "outputs": [
        {
          "internalType": "uint256",
          "name": "",
          "type": "uint256"
        }
      ],
      "stateMutability": "view",
      "type": "function"
    },
    {
      "inputs": [
        {
          "internalType": "address",
          "name": "asset",
          "type": "address"
        }
      ],
      "name": "getReserveTokensAddresses",
      "outputs": [
        {
          "internalType": "address",
          "name": "aTokenAddress",
          "type": "address"
        },
        {
          "internalType": "address",
          "name": "stableDebtTokenAddress",
          "type": "address"
        },
        {
          "internalType": "address",
          "name": "variableDebtTokenAddress",
          "type": "address"
        }
      ],
      "stateMutability": "view",
      "type": "function"
    },
    {
      "inputs": [
        {
          "internalType": "address",
          "name": "asset",
          "type": "address"
        }
      ],
      "name": "getSiloedBorrowing",
      "outputs": [
        {
          "internalType": "bool",
          "name": "",
          "type": "bool"
        }
      ],
      "stateMutability": "view",
      "type": "function"
    },
    {
      "inputs": [
        {
          "internalType": "address",
          "name": "asset",
          "type": "address"
        }
      ],
      "name": "getTotalDebt",
      "outputs": [
        {
          "internalType": "uint256",
          "name": "",
          "type": "uint256"
        }
      ],
      "stateMutability": "view",
      "type": "function"
    },
    {
      "inputs": [
        {
          "internalType": "address",
          "name": "asset",
          "type": "address"
        }
      ],
      "name": "getUnbackedMintCap",
      "outputs": [
        {
          "internalType": "uint256",
          "name": "",
          "type": "uint256"
        }
      ],
      "stateMutability": "view",
      "type": "function"
    },
    {
      "inputs": [
        {
          "internalType": "address",
          "name": "asset",
          "type": "address"
        },
        {
          "internalType": "address",
          "name": "user",
          "type": "address"
        }
      ],
      "name": "getUserReserveData",
      "outputs": [
        {
          "internalType": "uint256",
          "name": "currentATokenBalance",
          "type": "uint256"
        },
        {
          "internalType": "uint256",
          "name": "currentStableDebt",
          "type": "uint256"
        },
        {
          "internalType": "uint256",
          "name": "currentVariableDebt",
          "type": "uint256"
        },
        {
          "internalType": "uint256",
          "name": "principalStableDebt",
          "type": "uint256"
        },
        {
          "internalType": "uint256",
          "name": "scaledVariableDebt",
          "type": "uint256"
        },
        {
          "internalType": "uint256",
          "name": "stableBorrowRate",
          "type": "uint256"
        },
        {
          "internalType": "uint256",
          "name": "liquidityRate",
          "type": "uint256"
        },
        {
          "internalType": "uint40",
          "name": "stableRateLastUpdated",
          "type": "uint40"
        },
        {
          "internalType": "bool",
          "name": "usageAsCollateralEnabled",
          "type": "bool"
        }
      ],
      "stateMutability": "view",
      "type": "function"
    }
  ],
  "bytecode": "0x60a06040523480156200001157600080fd5b5060405162003a6138038062003a618339818101604052810190620000379190620000f0565b8073ffffffffffffffffffffffffffffffffffffffff1660808173ffffffffffffffffffffffffffffffffffffffff16815250505062000122565b600080fd5b600073ffffffffffffffffffffffffffffffffffffffff82169050919050565b6000620000a48262000077565b9050919050565b6000620000b88262000097565b9050919050565b620000ca81620000ab565b8114620000d657600080fd5b50565b600081519050620000ea81620000bf565b92915050565b60006020828403121562000109576200010862000072565b5b60006200011984828501620000d9565b91505092915050565b6080516138a5620001bc6000396000818161048f015281816104b6015281816105e0015281816106ed01528181610bd701528181610f9c015281816110b5015281816111da01528181611337015281816114540152818161165c015281816117e60152818161190d01528181611a2501528181611ea401528181611fce015281816120fc0152818161221b015261250b01526138a56000f3fe608060405234801561001057600080fd5b50600436106101215760003560e01c806351460e25116100ad578063b55d990411610071578063b55d9904146103ad578063d2493b6c146103dd578063d7ed3ef41461040f578063f561ae411461043f578063fcf40a621461045d57610121565b806351460e25146102e15780636744362a1461031157806369b169e1146103415780637ba1ae361461035f578063b316ff891461038f57610121565b80633c798109116100f45780633c798109146101e75780633cb8a622146102175780633e1501411461024757806346fbe558146102805780634d44ac4f146102b157610121565b80630542975c14610126578063163a0f201461014457806328dd2d011461017457806335ea6a75146101ac575b600080fd5b61012e61048d565b60405161013b9190612b0d565b60405180910390f35b61015e60048036038101906101599190612b7a565b6104b1565b60405161016b9190612bc0565b60405180910390f35b61018e60048036038101906101899190612bdb565b6105cf565b6040516101a399989796959493929190612c56565b60405180910390f35b6101c660048036038101906101c19190612b7a565b610bc1565b6040516101de9c9b9a99989796959493929190612ce3565b60405180910390f35b61020160048036038101906101fc9190612b7a565b610f95565b60405161020e9190612bc0565b60405180910390f35b610231600480360381019061022c9190612b7a565b6110ae565b60405161023e9190612bc0565b60405180910390f35b610261600480360381019061025c9190612b7a565b6111c7565b6040516102779a99989796959493929190612d9d565b60405180910390f35b61029a60048036038101906102959190612b7a565b61132f565b6040516102a8929190612e39565b60405180910390f35b6102cb60048036038101906102c69190612b7a565b61144f565b6040516102d89190612bc0565b60405180910390f35b6102fb60048036038101906102f69190612b7a565b611657565b6040516103089190612bc0565b60405180910390f35b61032b60048036038101906103269190612b7a565b6117e1565b6040516103389190612e71565b60405180910390f35b6103496118fd565b6040516103569190612bc0565b60405180910390f35b61037960048036038101906103749190612b7a565b611906565b6040516103869190612bc0565b60405180910390f35b610397611a1f565b6040516103a49190613033565b60405180910390f35b6103c760048036038101906103c29190612b7a565b611e9d565b6040516103d49190613055565b60405180910390f35b6103f760048036038101906103f29190612b7a565b611fc6565b60405161040693929190613070565b60405180910390f35b61042960048036038101906104249190612b7a565b6120f7565b6040516104369190613055565b60405180910390f35b610447612215565b6040516104549190613033565b60405180910390f35b61047760048036038101906104729190612b7a565b612504565b6040516104849190613055565b60405180910390f35b7f000000000000000000000000000000000000000000000000000000000000000081565b6000807f000000000000000000000000000000000000000000000000000000000000000073ffffffffffffffffffffffffffffffffffffffff1663026b1d5f6040518163ffffffff1660e01b8152600401602060405180830381865afa15801561051f573d6000803e3d6000fd5b505050506040513d601f19601f8201168201806040525081019061054391906130bc565b73ffffffffffffffffffffffffffffffffffffffff1663c44b11f7846040518263ffffffff1660e01b815260040161057b9190612e71565b602060405180830381865afa158015610598573d6000803e3d6000fd5b505050506040513d601f19601f820116820180604052508101906105bc91906131d1565b90506105c78161261d565b915050919050565b6000806000806000806000806000807f000000000000000000000000000000000000000000000000000000000000000073ffffffffffffffffffffffffffffffffffffffff1663026b1d5f6040518163ffffffff1660e01b8152600401602060405180830381865afa158015610649573d6000803e3d6000fd5b505050506040513d601f19601f8201168201806040525081019061066d91906130bc565b73ffffffffffffffffffffffffffffffffffffffff166335ea6a758d6040518263ffffffff1660e01b81526004016106a59190612e71565b6101e060405180830381865afa1580156106c3573d6000803e3d6000fd5b505050506040513d601f19601f820116820180604052508101906106e79190613410565b905060007f000000000000000000000000000000000000000000000000000000000000000073ffffffffffffffffffffffffffffffffffffffff1663026b1d5f6040518163ffffffff1660e01b8152600401602060405180830381865afa158015610756573d6000803e3d6000fd5b505050506040513d601f19601f8201168201806040525081019061077a91906130bc565b73ffffffffffffffffffffffffffffffffffffffff16634417a5838d6040518263ffffffff1660e01b81526004016107b29190612e71565b602060405180830381865afa1580156107cf573d6000803e3d6000fd5b505050506040513d601f19601f820116820180604052508101906107f3919061347a565b905081610100015173ffffffffffffffffffffffffffffffffffffffff166370a082318d6040518263ffffffff1660e01b81526004016108339190612e71565b602060405180830381865afa158015610850573d6000803e3d6000fd5b505050506040513d601f19601f8201168201806040525081019061087491906134a7565b9a5081610140015173ffffffffffffffffffffffffffffffffffffffff166370a082318d6040518263ffffffff1660e01b81526004016108b49190612e71565b602060405180830381865afa1580156108d1573d6000803e3d6000fd5b505050506040513d601f19601f820116820180604052508101906108f591906134a7565b985081610120015173ffffffffffffffffffffffffffffffffffffffff166370a082318d6040518263ffffffff1660e01b81526004016109359190612e71565b602060405180830381865afa158015610952573d6000803e3d6000fd5b505050506040513d601f19601f8201168201806040525081019061097691906134a7565b995081610120015173ffffffffffffffffffffffffffffffffffffffff1663c634dfaa8d6040518263ffffffff1660e01b81526004016109b69190612e71565b602060405180830381865afa1580156109d3573d6000803e3d6000fd5b505050506040513d601f19601f820116820180604052508101906109f791906134a7565b975081610140015173ffffffffffffffffffffffffffffffffffffffff16631da24f3e8d6040518263ffffffff1660e01b8152600401610a379190612e71565b602060405180830381865afa158015610a54573d6000803e3d6000fd5b505050506040513d601f19601f82011682018060405250810190610a7891906134a7565b965081604001516fffffffffffffffffffffffffffffffff16945081610120015173ffffffffffffffffffffffffffffffffffffffff1663e78c9b3b8d6040518263ffffffff1660e01b8152600401610ad19190612e71565b602060405180830381865afa158015610aee573d6000803e3d6000fd5b505050506040513d601f19601f82011682018060405250810190610b1291906134a7565b955081610120015173ffffffffffffffffffffffffffffffffffffffff166379ce6b8c8d6040518263ffffffff1660e01b8152600401610b529190612e71565b602060405180830381865afa158015610b6f573d6000803e3d6000fd5b505050506040513d601f19601f82011682018060405250810190610b9391906134d4565b9350610bb08260e0015161ffff168261265290919063ffffffff16565b925050509295985092959850929598565b60008060008060008060008060008060008060007f000000000000000000000000000000000000000000000000000000000000000073ffffffffffffffffffffffffffffffffffffffff1663026b1d5f6040518163ffffffff1660e01b8152600401602060405180830381865afa158015610c40573d6000803e3d6000fd5b505050506040513d601f19601f82011682018060405250810190610c6491906130bc565b73ffffffffffffffffffffffffffffffffffffffff166335ea6a758f6040518263ffffffff1660e01b8152600401610c9c9190612e71565b6101e060405180830381865afa158015610cba573d6000803e3d6000fd5b505050506040513d601f19601f82011682018060405250810190610cde9190613410565b9050806101a0015181610180015182610100015173ffffffffffffffffffffffffffffffffffffffff166318160ddd6040518163ffffffff1660e01b8152600401602060405180830381865afa158015610d3c573d6000803e3d6000fd5b505050506040513d601f19601f82011682018060405250810190610d6091906134a7565b83610120015173ffffffffffffffffffffffffffffffffffffffff166318160ddd6040518163ffffffff1660e01b8152600401602060405180830381865afa158015610db0573d6000803e3d6000fd5b505050506040513d601f19601f82011682018060405250810190610dd491906134a7565b84610140015173ffffffffffffffffffffffffffffffffffffffff166318160ddd6040518163ffffffff1660e01b8152600401602060405180830381865afa158015610e24573d6000803e3d6000fd5b505050506040513d601f19601f82011682018060405250810190610e4891906134a7565b856040015186608001518760a0015188610120015173ffffffffffffffffffffffffffffffffffffffff166390f6fcf26040518163ffffffff1660e01b8152600401602060405180830381865afa158015610ea7573d6000803e3d6000fd5b505050506040513d601f19601f82011682018060405250810190610ecb91906134a7565b89602001518a606001518b60c001518b6fffffffffffffffffffffffffffffffff169b508a6fffffffffffffffffffffffffffffffff169a50866fffffffffffffffffffffffffffffffff169650856fffffffffffffffffffffffffffffffff169550846fffffffffffffffffffffffffffffffff169450826fffffffffffffffffffffffffffffffff169250816fffffffffffffffffffffffffffffffff1691509c509c509c509c509c509c509c509c509c509c509c509c505091939597999b5091939597999b565b60006110a77f000000000000000000000000000000000000000000000000000000000000000073ffffffffffffffffffffffffffffffffffffffff1663026b1d5f6040518163ffffffff1660e01b8152600401602060405180830381865afa158015611005573d6000803e3d6000fd5b505050506040513d601f19601f8201168201806040525081019061102991906130bc565b73ffffffffffffffffffffffffffffffffffffffff1663c44b11f7846040518263ffffffff1660e01b81526004016110619190612e71565b602060405180830381865afa15801561107e573d6000803e3d6000fd5b505050506040513d601f19601f820116820180604052508101906110a291906131d1565b6126f1565b9050919050565b60006111c07f000000000000000000000000000000000000000000000000000000000000000073ffffffffffffffffffffffffffffffffffffffff1663026b1d5f6040518163ffffffff1660e01b8152600401602060405180830381865afa15801561111e573d6000803e3d6000fd5b505050506040513d601f19601f8201168201806040525081019061114291906130bc565b73ffffffffffffffffffffffffffffffffffffffff1663c44b11f7846040518263ffffffff1660e01b815260040161117a9190612e71565b602060405180830381865afa158015611197573d6000803e3d6000fd5b505050506040513d601f19601f820116820180604052508101906111bb91906131d1565b612726565b9050919050565b60008060008060008060008060008060007f000000000000000000000000000000000000000000000000000000000000000073ffffffffffffffffffffffffffffffffffffffff1663026b1d5f6040518163ffffffff1660e01b8152600401602060405180830381865afa158015611243573d6000803e3d6000fd5b505050506040513d601f19601f8201168201806040525081019061126791906130bc565b73ffffffffffffffffffffffffffffffffffffffff1663c44b11f78d6040518263ffffffff1660e01b815260040161129f9190612e71565b602060405180830381865afa1580156112bc573d6000803e3d6000fd5b505050506040513d601f19601f820116820180604052508101906112e091906131d1565b90506112eb8161275b565b50809b50819f50829c50839d50849e5050505050506113098161286f565b508097508198508295508396505050505060008914159550509193959799509193959799565b6000806114427f000000000000000000000000000000000000000000000000000000000000000073ffffffffffffffffffffffffffffffffffffffff1663026b1d5f6040518163ffffffff1660e01b8152600401602060405180830381865afa1580156113a0573d6000803e3d6000fd5b505050506040513d601f19601f820116820180604052508101906113c491906130bc565b73ffffffffffffffffffffffffffffffffffffffff1663c44b11f7856040518263ffffffff1660e01b81526004016113fc9190612e71565b602060405180830381865afa158015611419573d6000803e3d6000fd5b505050506040513d601f19601f8201168201806040525081019061143d91906131d1565b61295b565b8092508193505050915091565b6000807f000000000000000000000000000000000000000000000000000000000000000073ffffffffffffffffffffffffffffffffffffffff1663026b1d5f6040518163ffffffff1660e01b8152600401602060405180830381865afa1580156114bd573d6000803e3d6000fd5b505050506040513d601f19601f820116820180604052508101906114e191906130bc565b73ffffffffffffffffffffffffffffffffffffffff166335ea6a75846040518263ffffffff1660e01b81526004016115199190612e71565b6101e060405180830381865afa158015611537573d6000803e3d6000fd5b505050506040513d601f19601f8201168201806040525081019061155b9190613410565b905080610140015173ffffffffffffffffffffffffffffffffffffffff166318160ddd6040518163ffffffff1660e01b8152600401602060405180830381865afa1580156115ad573d6000803e3d6000fd5b505050506040513d601f19601f820116820180604052508101906115d191906134a7565b81610120015173ffffffffffffffffffffffffffffffffffffffff166318160ddd6040518163ffffffff1660e01b8152600401602060405180830381865afa158015611621573d6000803e3d6000fd5b505050506040513d601f19601f8201168201806040525081019061164591906134a7565b61164f9190613530565b915050919050565b6000807f000000000000000000000000000000000000000000000000000000000000000073ffffffffffffffffffffffffffffffffffffffff1663026b1d5f6040518163ffffffff1660e01b8152600401602060405180830381865afa1580156116c5573d6000803e3d6000fd5b505050506040513d601f19601f820116820180604052508101906116e991906130bc565b73ffffffffffffffffffffffffffffffffffffffff166335ea6a75846040518263ffffffff1660e01b81526004016117219190612e71565b6101e060405180830381865afa15801561173f573d6000803e3d6000fd5b505050506040513d601f19601f820116820180604052508101906117639190613410565b905080610100015173ffffffffffffffffffffffffffffffffffffffff166318160ddd6040518163ffffffff1660e01b8152600401602060405180830381865afa1580156117b5573d6000803e3d6000fd5b505050506040513d601f19601f820116820180604052508101906117d991906134a7565b915050919050565b6000807f000000000000000000000000000000000000000000000000000000000000000073ffffffffffffffffffffffffffffffffffffffff1663026b1d5f6040518163ffffffff1660e01b8152600401602060405180830381865afa15801561184f573d6000803e3d6000fd5b505050506040513d601f19601f8201168201806040525081019061187391906130bc565b73ffffffffffffffffffffffffffffffffffffffff166335ea6a75846040518263ffffffff1660e01b81526004016118ab9190612e71565b6101e060405180830381865afa1580156118c9573d6000803e3d6000fd5b505050506040513d601f19601f820116820180604052508101906118ed9190613410565b9050806101600151915050919050565b60006002905090565b6000611a187f000000000000000000000000000000000000000000000000000000000000000073ffffffffffffffffffffffffffffffffffffffff1663026b1d5f6040518163ffffffff1660e01b8152600401602060405180830381865afa158015611976573d6000803e3d6000fd5b505050506040513d601f19601f8201168201806040525081019061199a91906130bc565b73ffffffffffffffffffffffffffffffffffffffff1663c44b11f7846040518263ffffffff1660e01b81526004016119d29190612e71565b602060405180830381865afa1580156119ef573d6000803e3d6000fd5b505050506040513d601f19601f82011682018060405250810190611a1391906131d1565b6129c1565b9050919050565b606060007f000000000000000000000000000000000000000000000000000000000000000073ffffffffffffffffffffffffffffffffffffffff1663026b1d5f6040518163ffffffff1660e01b8152600401602060405180830381865afa158015611a8e573d6000803e3d6000fd5b505050506040513d601f19601f82011682018060405250810190611ab291906130bc565b905060008173ffffffffffffffffffffffffffffffffffffffff1663d1946dbc6040518163ffffffff1660e01b8152600401600060405180830381865afa158015611b01573d6000803e3d6000fd5b505050506040513d6000823e3d601f19601f82011682018060405250810190611b2a9190613653565b90506000815167ffffffffffffffff811115611b4957611b486130ee565b5b604051908082528060200260200182016040528015611b8257816020015b611b6f612a5e565b815260200190600190039081611b675790505b50905060005b8251811015611e9357739f8f72aa9304c8b593d555f12ef6589cc3a579a273ffffffffffffffffffffffffffffffffffffffff16838281518110611bcf57611bce61369c565b5b602002602001015173ffffffffffffffffffffffffffffffffffffffff161415611c905760405180604001604052806040518060400160405280600381526020017f4d4b5200000000000000000000000000000000000000000000000000000000008152508152602001848381518110611c4c57611c4b61369c565b5b602002602001015173ffffffffffffffffffffffffffffffffffffffff16815250828281518110611c8057611c7f61369c565b5b6020026020010181905250611e80565b73eeeeeeeeeeeeeeeeeeeeeeeeeeeeeeeeeeeeeeee73ffffffffffffffffffffffffffffffffffffffff16838281518110611cce57611ccd61369c565b5b602002602001015173ffffffffffffffffffffffffffffffffffffffff161415611d8f5760405180604001604052806040518060400160405280600381526020017f45544800000000000000000000000000000000000000000000000000000000008152508152602001848381518110611d4b57611d4a61369c565b5b602002602001015173ffffffffffffffffffffffffffffffffffffffff16815250828281518110611d7f57611d7e61369c565b5b6020026020010181905250611e80565b6040518060400160405280848381518110611dad57611dac61369c565b5b602002602001015173ffffffffffffffffffffffffffffffffffffffff166395d89b416040518163ffffffff1660e01b8152600401600060405180830381865afa158015611dff573d6000803e3d6000fd5b505050506040513d6000823e3d601f19601f82011682018060405250810190611e289190613771565b8152602001848381518110611e4057611e3f61369c565b5b602002602001015173ffffffffffffffffffffffffffffffffffffffff16815250828281518110611e7457611e7361369c565b5b60200260200101819052505b8080611e8b906137ba565b915050611b88565b5080935050505090565b6000611faf7f000000000000000000000000000000000000000000000000000000000000000073ffffffffffffffffffffffffffffffffffffffff1663026b1d5f6040518163ffffffff1660e01b8152600401602060405180830381865afa158015611f0d573d6000803e3d6000fd5b505050506040513d601f19601f82011682018060405250810190611f3191906130bc565b73ffffffffffffffffffffffffffffffffffffffff1663c44b11f7846040518263ffffffff1660e01b8152600401611f699190612e71565b602060405180830381865afa158015611f86573d6000803e3d6000fd5b505050506040513d601f19601f82011682018060405250810190611faa91906131d1565b61286f565b909192935090919250909150905080915050919050565b6000806000807f000000000000000000000000000000000000000000000000000000000000000073ffffffffffffffffffffffffffffffffffffffff1663026b1d5f6040518163ffffffff1660e01b8152600401602060405180830381865afa158015612037573d6000803e3d6000fd5b505050506040513d601f19601f8201168201806040525081019061205b91906130bc565b73ffffffffffffffffffffffffffffffffffffffff166335ea6a75866040518263ffffffff1660e01b81526004016120939190612e71565b6101e060405180830381865afa1580156120b1573d6000803e3d6000fd5b505050506040513d601f19601f820116820180604052508101906120d59190613410565b9050806101000151816101200151826101400151935093509350509193909250565b6000807f000000000000000000000000000000000000000000000000000000000000000073ffffffffffffffffffffffffffffffffffffffff1663026b1d5f6040518163ffffffff1660e01b8152600401602060405180830381865afa158015612165573d6000803e3d6000fd5b505050506040513d601f19601f8201168201806040525081019061218991906130bc565b73ffffffffffffffffffffffffffffffffffffffff1663c44b11f7846040518263ffffffff1660e01b81526004016121c19190612e71565b602060405180830381865afa1580156121de573d6000803e3d6000fd5b505050506040513d601f19601f8201168201806040525081019061220291906131d1565b905061220d816129f6565b915050919050565b606060007f000000000000000000000000000000000000000000000000000000000000000073ffffffffffffffffffffffffffffffffffffffff1663026b1d5f6040518163ffffffff1660e01b8152600401602060405180830381865afa158015612284573d6000803e3d6000fd5b505050506040513d601f19601f820116820180604052508101906122a891906130bc565b905060008173ffffffffffffffffffffffffffffffffffffffff1663d1946dbc6040518163ffffffff1660e01b8152600401600060405180830381865afa1580156122f7573d6000803e3d6000fd5b505050506040513d6000823e3d601f19601f820116820180604052508101906123209190613653565b90506000815167ffffffffffffffff81111561233f5761233e6130ee565b5b60405190808252806020026020018201604052801561237857816020015b612365612a5e565b81526020019060019003908161235d5790505b50905060005b82518110156124fa5760008473ffffffffffffffffffffffffffffffffffffffff166335ea6a758584815181106123b8576123b761369c565b5b60200260200101516040518263ffffffff1660e01b81526004016123dc9190612e71565b6101e060405180830381865afa1580156123fa573d6000803e3d6000fd5b505050506040513d601f19601f8201168201806040525081019061241e9190613410565b9050604051806040016040528082610100015173ffffffffffffffffffffffffffffffffffffffff166395d89b416040518163ffffffff1660e01b8152600401600060405180830381865afa15801561247b573d6000803e3d6000fd5b505050506040513d6000823e3d601f19601f820116820180604052508101906124a49190613771565b815260200182610100015173ffffffffffffffffffffffffffffffffffffffff168152508383815181106124db576124da61369c565b5b60200260200101819052505080806124f2906137ba565b91505061237e565b5080935050505090565b60006126167f000000000000000000000000000000000000000000000000000000000000000073ffffffffffffffffffffffffffffffffffffffff1663026b1d5f6040518163ffffffff1660e01b8152600401602060405180830381865afa158015612574573d6000803e3d6000fd5b505050506040513d601f19601f8201168201806040525081019061259891906130bc565b73ffffffffffffffffffffffffffffffffffffffff1663c44b11f7846040518263ffffffff1660e01b81526004016125d09190612e71565b602060405180830381865afa1580156125ed573d6000803e3d6000fd5b505050506040513d601f19601f8201168201806040525081019061261191906131d1565b612a2a565b9050919050565b600060a87fffffffffffffffffffff00ffffffffffffffffffffffffffffffffffffffffff19836000015116901c9050919050565b6000608061ffff1682106040518060400160405280600281526020017f3734000000000000000000000000000000000000000000000000000000000000815250906126d3576040517f08c379a00000000000000000000000000000000000000000000000000000000081526004016126ca919061384d565b60405180910390fd5b506000600180600185901b018560000151901c161415905092915050565b600060d47ff0000000000fffffffffffffffffffffffffffffffffffffffffffffffffffff19836000015116901c9050919050565b600060987fffffffffffffffffffffff0000ffffffffffffffffffffffffffffffffffffff19836000015116901c9050919050565b6000806000806000806000876000015190507fffffffffffffffffffffffffffffffffffffffffffffffffffffffffffff000019811660107fffffffffffffffffffffffffffffffffffffffffffffffffffffffff0000ffff198316901c60207fffffffffffffffffffffffffffffffffffffffffffffffffffff0000ffffffff198416901c60307fffffffffffffffffffffffffffffffffffffffffffffffffff00ffffffffffff198516901c60407fffffffffffffffffffffffffffffffffffffffffffff0000ffffffffffffffff198616901c60a87fffffffffffffffffffff00ffffffffffffffffffffffffffffffffffffffffff198716901c9650965096509650965096505091939550919395565b6000806000806000808660000151905060007ffffffffffffffffffffffffffffffffffffffffffffffffffeffffffffffffff198216141560007ffffffffffffffffffffffffffffffffffffffffffffffffffdffffffffffffff198316141560007ffffffffffffffffffffffffffffffffffffffffffffffffffbffffffffffffff198416141560007ffffffffffffffffffffffffffffffffffffffffffffffffff7ffffffffffffff198516141560007fffffffffffffffffffffffffffffffffffffffffffffffffefffffffffffffff1986161415955095509550955095505091939590929450565b60008060008360000151905060507ffffffffffffffffffffffffffffffffffff000000000ffffffffffffffffffff198216901c60747fffffffffffffffffffffffffff000000000fffffffffffffffffffffffffffff198316901c9250925050915091565b600060b07ffffffffffff000000000ffffffffffffffffffffffffffffffffffffffffffff19836000015116901c9050919050565b6000807fffffffffffffffffffffffffffffffffffffffffffffffff7fffffffffffffff1983600001511614159050919050565b6000807fffffffffffffffffffffffffffffffffffffffffffffffffbfffffffffffffff1983600001511614159050919050565b604051806040016040528060608152602001600073ffffffffffffffffffffffffffffffffffffffff1681525090565b600073ffffffffffffffffffffffffffffffffffffffff82169050919050565b6000819050919050565b6000612ad3612ace612ac984612a8e565b612aae565b612a8e565b9050919050565b6000612ae582612ab8565b9050919050565b6000612af782612ada565b9050919050565b612b0781612aec565b82525050565b6000602082019050612b226000830184612afe565b92915050565b6000604051905090565b600080fd5b600080fd5b6000612b4782612a8e565b9050919050565b612b5781612b3c565b8114612b6257600080fd5b50565b600081359050612b7481612b4e565b92915050565b600060208284031215612b9057612b8f612b32565b5b6000612b9e84828501612b65565b91505092915050565b6000819050919050565b612bba81612ba7565b82525050565b6000602082019050612bd56000830184612bb1565b92915050565b60008060408385031215612bf257612bf1612b32565b5b6000612c0085828601612b65565b9250506020612c1185828601612b65565b9150509250929050565b600064ffffffffff82169050919050565b612c3581612c1b565b82525050565b60008115159050919050565b612c5081612c3b565b82525050565b600061012082019050612c6c600083018c612bb1565b612c79602083018b612bb1565b612c86604083018a612bb1565b612c936060830189612bb1565b612ca06080830188612bb1565b612cad60a0830187612bb1565b612cba60c0830186612bb1565b612cc760e0830185612c2c565b612cd5610100830184612c47565b9a9950505050505050505050565b600061018082019050612cf9600083018f612bb1565b612d06602083018e612bb1565b612d13604083018d612bb1565b612d20606083018c612bb1565b612d2d608083018b612bb1565b612d3a60a083018a612bb1565b612d4760c0830189612bb1565b612d5460e0830188612bb1565b612d62610100830187612bb1565b612d70610120830186612bb1565b612d7e610140830185612bb1565b612d8c610160830184612c2c565b9d9c50505050505050505050505050565b600061014082019050612db3600083018d612bb1565b612dc0602083018c612bb1565b612dcd604083018b612bb1565b612dda606083018a612bb1565b612de76080830189612bb1565b612df460a0830188612c47565b612e0160c0830187612c47565b612e0e60e0830186612c47565b612e1c610100830185612c47565b612e2a610120830184612c47565b9b9a5050505050505050505050565b6000604082019050612e4e6000830185612bb1565b612e5b6020830184612bb1565b9392505050565b612e6b81612b3c565b82525050565b6000602082019050612e866000830184612e62565b92915050565b600081519050919050565b600082825260208201905092915050565b6000819050602082019050919050565b600081519050919050565b600082825260208201905092915050565b60005b83811015612ef2578082015181840152602081019050612ed7565b83811115612f01576000848401525b50505050565b6000601f19601f8301169050919050565b6000612f2382612eb8565b612f2d8185612ec3565b9350612f3d818560208601612ed4565b612f4681612f07565b840191505092915050565b612f5a81612b3c565b82525050565b60006040830160008301518482036000860152612f7d8282612f18565b9150506020830151612f926020860182612f51565b508091505092915050565b6000612fa98383612f60565b905092915050565b6000602082019050919050565b6000612fc982612e8c565b612fd38185612e97565b935083602082028501612fe585612ea8565b8060005b8581101561302157848403895281516130028582612f9d565b945061300d83612fb1565b925060208a01995050600181019050612fe9565b50829750879550505050505092915050565b6000602082019050818103600083015261304d8184612fbe565b905092915050565b600060208201905061306a6000830184612c47565b92915050565b60006060820190506130856000830186612e62565b6130926020830185612e62565b61309f6040830184612e62565b949350505050565b6000815190506130b681612b4e565b92915050565b6000602082840312156130d2576130d1612b32565b5b60006130e0848285016130a7565b91505092915050565b600080fd5b7f4e487b7100000000000000000000000000000000000000000000000000000000600052604160045260246000fd5b61312682612f07565b810181811067ffffffffffffffff82111715613145576131446130ee565b5b80604052505050565b6000613158612b28565b9050613164828261311d565b919050565b61317281612ba7565b811461317d57600080fd5b50565b60008151905061318f81613169565b92915050565b6000602082840312156131ab576131aa6130e9565b5b6131b5602061314e565b905060006131c584828501613180565b60008301525092915050565b6000602082840312156131e7576131e6612b32565b5b60006131f584828501613195565b91505092915050565b60006fffffffffffffffffffffffffffffffff82169050919050565b613223816131fe565b811461322e57600080fd5b50565b6000815190506132408161321a565b92915050565b61324f81612c1b565b811461325a57600080fd5b50565b60008151905061326c81613246565b92915050565b600061ffff82169050919050565b61328981613272565b811461329457600080fd5b50565b6000815190506132a681613280565b92915050565b60006101e082840312156132c3576132c26130e9565b5b6132ce6101e061314e565b905060006132de84828501613195565b60008301525060206132f284828501613231565b602083015250604061330684828501613231565b604083015250606061331a84828501613231565b606083015250608061332e84828501613231565b60808301525060a061334284828501613231565b60a08301525060c06133568482850161325d565b60c08301525060e061336a84828501613297565b60e08301525061010061337f848285016130a7565b61010083015250610120613395848285016130a7565b610120830152506101406133ab848285016130a7565b610140830152506101606133c1848285016130a7565b610160830152506101806133d784828501613231565b610180830152506101a06133ed84828501613231565b6101a0830152506101c061340384828501613231565b6101c08301525092915050565b60006101e0828403121561342757613426612b32565b5b6000613435848285016132ac565b91505092915050565b600060208284031215613454576134536130e9565b5b61345e602061314e565b9050600061346e84828501613180565b60008301525092915050565b6000602082840312156134905761348f612b32565b5b600061349e8482850161343e565b91505092915050565b6000602082840312156134bd576134bc612b32565b5b60006134cb84828501613180565b91505092915050565b6000602082840312156134ea576134e9612b32565b5b60006134f88482850161325d565b91505092915050565b7f4e487b7100000000000000000000000000000000000000000000000000000000600052601160045260246000fd5b600061353b82612ba7565b915061354683612ba7565b9250827fffffffffffffffffffffffffffffffffffffffffffffffffffffffffffffffff0382111561357b5761357a613501565b5b828201905092915050565b600080fd5b600067ffffffffffffffff8211156135a6576135a56130ee565b5b602082029050602081019050919050565b600080fd5b60006135cf6135ca8461358b565b61314e565b905080838252602082019050602084028301858111156135f2576135f16135b7565b5b835b8181101561361b578061360788826130a7565b8452602084019350506020810190506135f4565b5050509392505050565b600082601f83011261363a57613639613586565b5b815161364a8482602086016135bc565b91505092915050565b60006020828403121561366957613668612b32565b5b600082015167ffffffffffffffff81111561368757613686612b37565b5b61369384828501613625565b91505092915050565b7f4e487b7100000000000000000000000000000000000000000000000000000000600052603260045260246000fd5b600080fd5b600067ffffffffffffffff8211156136eb576136ea6130ee565b5b6136f482612f07565b9050602081019050919050565b600061371461370f846136d0565b61314e565b9050828152602081018484840111156137305761372f6136cb565b5b61373b848285612ed4565b509392505050565b600082601f83011261375857613757613586565b5b8151613768848260208601613701565b91505092915050565b60006020828403121561378757613786612b32565b5b600082015167ffffffffffffffff8111156137a5576137a4612b37565b5b6137b184828501613743565b91505092915050565b60006137c582612ba7565b91507fffffffffffffffffffffffffffffffffffffffffffffffffffffffffffffffff8214156137f8576137f7613501565b5b600182019050919050565b600082825260208201905092915050565b600061381f82612eb8565b6138298185613803565b9350613839818560208601612ed4565b61384281612f07565b840191505092915050565b600060208201905081810360008301526138678184613814565b90509291505056fea26469706673582212206f59fabb0dfd57cfdd60597c4668d2c89ad2b9dd2bda6958936a2899a93e7d5964736f6c634300080a0033",
  "linkReferences": {},
  "deployedLinkReferences": {}
}