{
  "_format": "hh-sol-artifact-1",
  "contractName": "CrossMarginTrading",
  "sourceName": "contracts/CrossMarginTrading.sol",
  "abi": [
    {
      "inputs": [],
      "stateMutability": "nonpayable",
      "type": "constructor"
    },
    {
      "stateMutability": "payable",
      "type": "fallback"
    },
    {
      "inputs": [
        {
          "internalType": "uint256",
          "name": "amount",
          "type": "uint256"
        }
      ],
      "name": "depositIntoMarginAccount",
      "outputs": [],
      "stateMutability": "nonpayable",
      "type": "function"
    },
    {
      "inputs": [],
      "name": "i_swapRouter",
      "outputs": [
        {
          "internalType": "contract ISwapRouter",
          "name": "",
          "type": "address"
        }
      ],
      "stateMutability": "view",
      "type": "function"
    },
    {
      "inputs": [
        {
          "internalType": "contract IERC20[]",
          "name": "tokens",
          "type": "address[]"
        },
        {
          "internalType": "uint256[]",
          "name": "amounts",
          "type": "uint256[]"
        },
        {
          "internalType": "uint256[]",
          "name": "",
          "type": "uint256[]"
        },
        {
          "internalType": "bytes",
          "name": "userData",
          "type": "bytes"
        }
      ],
      "name": "receiveFlashLoan",
      "outputs": [],
      "stateMutability": "nonpayable",
      "type": "function"
    },
    {
      "inputs": [
        {
          "internalType": "uint256",
          "name": "repay",
          "type": "uint256"
        },
        {
          "internalType": "address",
          "name": "tokenAddress",
          "type": "address"
        },
        {
          "internalType": "uint8",
          "name": "direction",
          "type": "uint8"
        },
        {
          "internalType": "uint256",
          "name": "profit",
          "type": "uint256"
        }
      ],
      "name": "requestClose",
      "outputs": [],
      "stateMutability": "nonpayable",
      "type": "function"
    },
    {
      "inputs": [
        {
          "internalType": "uint256",
          "name": "amount",
          "type": "uint256"
        },
        {
          "internalType": "address",
          "name": "tokenAddress",
          "type": "address"
        },
        {
          "internalType": "uint8",
          "name": "direction",
          "type": "uint8"
        }
      ],
      "name": "requestOpen",
      "outputs": [],
      "stateMutability": "nonpayable",
      "type": "function"
    },
    {
      "inputs": [
        {
          "internalType": "uint256",
          "name": "amount",
          "type": "uint256"
        }
      ],
      "name": "withdrawFromMarginAccount",
      "outputs": [],
      "stateMutability": "nonpayable",
      "type": "function"
    },
    {
      "stateMutability": "payable",
      "type": "receive"
    }
  ],
  "bytecode": "0x61010060405234801561001157600080fd5b5073e592427a0aece92de3edee1f18e0157c0586156473ffffffffffffffffffffffffffffffffffffffff1660808173ffffffffffffffffffffffffffffffffffffffff1660601b8152505073b27308f9f90d607463bb33ea1bebb41c27ce5ab673ffffffffffffffffffffffffffffffffffffffff1660a08173ffffffffffffffffffffffffffffffffffffffff1660601b8152505073a97684ead0e402dc232d5a977953df7ecbab3cdb73ffffffffffffffffffffffffffffffffffffffff1660c08173ffffffffffffffffffffffffffffffffffffffff1660601b8152505073ba12222222228d8ba445958a75a0704d566bf2c873ffffffffffffffffffffffffffffffffffffffff1660e08173ffffffffffffffffffffffffffffffffffffffff1660601b81525050732791bca1f2de4661ed88a30c99a7a9449aa841746000806101000a81548173ffffffffffffffffffffffffffffffffffffffff021916908373ffffffffffffffffffffffffffffffffffffffff16021790555073625e7708f30ca75bfd92586e17077590c60eb4cd60026000732791bca1f2de4661ed88a30c99a7a9449aa8417473ffffffffffffffffffffffffffffffffffffffff1673ffffffffffffffffffffffffffffffffffffffff16815260200190815260200160002060006101000a81548173ffffffffffffffffffffffffffffffffffffffff021916908373ffffffffffffffffffffffffffffffffffffffff160217905550736d80113e533a2c0fe82eabd35f1875dcea89ea9760026000730d500b1d8e8ef31e21c99d1db9a6444d3adf127073ffffffffffffffffffffffffffffffffffffffff1673ffffffffffffffffffffffffffffffffffffffff16815260200190815260200160002060006101000a81548173ffffffffffffffffffffffffffffffffffffffff021916908373ffffffffffffffffffffffffffffffffffffffff16021790555073e50fa9b3c56ffb159cb0fca61f5c9d750e8128c860026000737ceb23fd6bc0add59e62ac25578270cff1b9f61973ffffffffffffffffffffffffffffffffffffffff1673ffffffffffffffffffffffffffffffffffffffff16815260200190815260200160002060006101000a81548173ffffffffffffffffffffffffffffffffffffffff021916908373ffffffffffffffffffffffffffffffffffffffff16021790555073078f358208685046a11c85e8ad32895ded33a24960026000731bfd67037b42cf73acf2047067bd4f2c47d9bfd673ffffffffffffffffffffffffffffffffffffffff1673ffffffffffffffffffffffffffffffffffffffff16815260200190815260200160002060006101000a81548173ffffffffffffffffffffffffffffffffffffffff021916908373ffffffffffffffffffffffffffffffffffffffff16021790555073ea1132120ddcdda2f119e99fa7a27a0d036f7ac960026000733a58a54c066fdc0f2d55fc9c89f0415c92ebf3c473ffffffffffffffffffffffffffffffffffffffff1673ffffffffffffffffffffffffffffffffffffffff16815260200190815260200160002060006101000a81548173ffffffffffffffffffffffffffffffffffffffff021916908373ffffffffffffffffffffffffffffffffffffffff16021790555073191c10aa4af7c30e871e70c95db0e4eb77237530600260007353e0bca35ec356bd5dddfebbd1fc0fd03fabad3973ffffffffffffffffffffffffffffffffffffffff1673ffffffffffffffffffffffffffffffffffffffff16815260200190815260200160002060006101000a81548173ffffffffffffffffffffffffffffffffffffffff021916908373ffffffffffffffffffffffffffffffffffffffff16021790555060805160601c60a05160601c60c05160601c60e05160601c613d8b61062b6000396000818161033a0152818161096c0152610e6d0152600081816103d50152610a060152600081816110a7015281816115af01528181611aed015281816121a7015261266701526000818161015c01528181610f470152818161117f0152818161144f015281816116870152818161198d01528181611bc50152818161227f01528181612507015261273f0152613d8b6000f3fe6080604052600436106100595760003560e01c806358fb80541461006257806397a014891461008d578063b87e8729146100b6578063b9fb1259146100df578063d254127414610108578063f04f27071461013157610060565b3661006057005b005b34801561006e57600080fd5b5061007761015a565b604051610084919061388e565b60405180910390f35b34801561009957600080fd5b506100b460048036038101906100af91906132b9565b61017e565b005b3480156100c257600080fd5b506100dd60048036038101906100d8919061320c565b6103d3565b005b3480156100eb57600080fd5b5061010660048036038101906101019190613266565b6107af565b005b34801561011457600080fd5b5061012f600480360381019061012a919061320c565b610a04565b005b34801561013d57600080fd5b5061015860048036038101906101539190613108565b610d7c565b005b7f000000000000000000000000000000000000000000000000000000000000000081565b60003390506000600167ffffffffffffffff8111156101a05761019f613c72565b5b6040519080825280602002602001820160405280156101ce5781602001602082028036833780820191505090505b5090506000600167ffffffffffffffff8111156101ee576101ed613c72565b5b60405190808252806020026020018201604052801561021c5781602001602082028036833780820191505090505b50905060008684878760405160200161023894939291906136b2565b604051602081830303815290604052905060028660ff16146102c75760008054906101000a900473ffffffffffffffffffffffffffffffffffffffff168360008151811061028957610288613c43565b5b602002602001019073ffffffffffffffffffffffffffffffffffffffff16908173ffffffffffffffffffffffffffffffffffffffff16815250610316565b86836000815181106102dc576102db613c43565b5b602002602001019073ffffffffffffffffffffffffffffffffffffffff16908173ffffffffffffffffffffffffffffffffffffffff168152505b50878260008151811061032c5761032b613c43565b5b6020026020010181815250507f000000000000000000000000000000000000000000000000000000000000000073ffffffffffffffffffffffffffffffffffffffff16635c38449e308585856040518563ffffffff1660e01b81526004016103979493929190613834565b600060405180830381600087803b1580156103b157600080fd5b505af11580156103c5573d6000803e3d6000fd5b505050505050505050505050565b7f000000000000000000000000000000000000000000000000000000000000000073ffffffffffffffffffffffffffffffffffffffff1663026b1d5f6040518163ffffffff1660e01b815260040160206040518083038186803b15801561043957600080fd5b505afa15801561044d573d6000803e3d6000fd5b505050506040513d601f19601f820116820180604052508101906104719190613074565b600160006101000a81548173ffffffffffffffffffffffffffffffffffffffff021916908373ffffffffffffffffffffffffffffffffffffffff160217905550600160009054906101000a900473ffffffffffffffffffffffffffffffffffffffff16600360006101000a81548173ffffffffffffffffffffffffffffffffffffffff021916908373ffffffffffffffffffffffffffffffffffffffff1602179055506000600260008060009054906101000a900473ffffffffffffffffffffffffffffffffffffffff1673ffffffffffffffffffffffffffffffffffffffff1673ffffffffffffffffffffffffffffffffffffffff16815260200190815260200160002060009054906101000a900473ffffffffffffffffffffffffffffffffffffffff1690508073ffffffffffffffffffffffffffffffffffffffff166323b872dd3330856040518463ffffffff1660e01b81526004016105d693929190613636565b602060405180830381600087803b1580156105f057600080fd5b505af1158015610604573d6000803e3d6000fd5b505050506040513d601f19601f8201168201806040525081019061062891906131df565b508073ffffffffffffffffffffffffffffffffffffffff1663095ea7b3600360009054906101000a900473ffffffffffffffffffffffffffffffffffffffff16846040518363ffffffff1660e01b81526004016106869291906136f7565b602060405180830381600087803b1580156106a057600080fd5b505af11580156106b4573d6000803e3d6000fd5b505050506040513d601f19601f820116820180604052508101906106d891906131df565b50600360009054906101000a900473ffffffffffffffffffffffffffffffffffffffff1673ffffffffffffffffffffffffffffffffffffffff166369328dec60008054906101000a900473ffffffffffffffffffffffffffffffffffffffff1684336040518463ffffffff1660e01b815260040161075893929190613720565b602060405180830381600087803b15801561077257600080fd5b505af1158015610786573d6000803e3d6000fd5b505050506040513d601f19601f820116820180604052508101906107aa9190613239565b505050565b60003390506000600167ffffffffffffffff8111156107d1576107d0613c72565b5b6040519080825280602002602001820160405280156107ff5781602001602082028036833780820191505090505b5090506000600167ffffffffffffffff81111561081f5761081e613c72565b5b60405190808252806020026020018201604052801561084d5781602001602082028036833780820191505090505b5090506000858486600060405160200161086a949392919061366d565b604051602081830303815290604052905060008560ff16146108d957858360008151811061089b5761089a613c43565b5b602002602001019073ffffffffffffffffffffffffffffffffffffffff16908173ffffffffffffffffffffffffffffffffffffffff16815250610948565b60008054906101000a900473ffffffffffffffffffffffffffffffffffffffff168360008151811061090e5761090d613c43565b5b602002602001019073ffffffffffffffffffffffffffffffffffffffff16908173ffffffffffffffffffffffffffffffffffffffff168152505b50868260008151811061095e5761095d613c43565b5b6020026020010181815250507f000000000000000000000000000000000000000000000000000000000000000073ffffffffffffffffffffffffffffffffffffffff16635c38449e308585856040518563ffffffff1660e01b81526004016109c99493929190613834565b600060405180830381600087803b1580156109e357600080fd5b505af11580156109f7573d6000803e3d6000fd5b5050505050505050505050565b7f000000000000000000000000000000000000000000000000000000000000000073ffffffffffffffffffffffffffffffffffffffff1663026b1d5f6040518163ffffffff1660e01b815260040160206040518083038186803b158015610a6a57600080fd5b505afa158015610a7e573d6000803e3d6000fd5b505050506040513d601f19601f82011682018060405250810190610aa29190613074565b600160006101000a81548173ffffffffffffffffffffffffffffffffffffffff021916908373ffffffffffffffffffffffffffffffffffffffff160217905550600160009054906101000a900473ffffffffffffffffffffffffffffffffffffffff16600360006101000a81548173ffffffffffffffffffffffffffffffffffffffff021916908373ffffffffffffffffffffffffffffffffffffffff16021790555060008054906101000a900473ffffffffffffffffffffffffffffffffffffffff1673ffffffffffffffffffffffffffffffffffffffff166323b872dd3330846040518463ffffffff1660e01b8152600401610ba293929190613636565b602060405180830381600087803b158015610bbc57600080fd5b505af1158015610bd0573d6000803e3d6000fd5b505050506040513d601f19601f82011682018060405250810190610bf491906131df565b5060008054906101000a900473ffffffffffffffffffffffffffffffffffffffff1673ffffffffffffffffffffffffffffffffffffffff1663095ea7b3600160009054906101000a900473ffffffffffffffffffffffffffffffffffffffff16836040518363ffffffff1660e01b8152600401610c729291906136f7565b602060405180830381600087803b158015610c8c57600080fd5b505af1158015610ca0573d6000803e3d6000fd5b505050506040513d601f19601f82011682018060405250810190610cc491906131df565b50600360009054906101000a900473ffffffffffffffffffffffffffffffffffffffff1673ffffffffffffffffffffffffffffffffffffffff1663617ba03760008054906101000a900473ffffffffffffffffffffffffffffffffffffffff16833360006040518563ffffffff1660e01b8152600401610d479493929190613757565b600060405180830381600087803b158015610d6157600080fd5b505af1158015610d75573d6000803e3d6000fd5b5050505050565b600084600081518110610d9257610d91613c43565b5b60200260200101519050600084600081518110610db257610db1613c43565b5b6020026020010151905060008060008086806020019051810190610dd691906130a1565b935093509350935060008260ff161415610dfa57610df5858585610f09565b610e4f565b60018260ff161415610e1657610e11858585611431565b610e4e565b60028260ff161415610e3357610e2e8585858461195a565b610e4d565b60038260ff161415610e4c57610e4b858585846124b9565b5b5b5b5b8573ffffffffffffffffffffffffffffffffffffffff1663a9059cbb7f0000000000000000000000000000000000000000000000000000000000000000876040518363ffffffff1660e01b8152600401610eaa9291906136f7565b602060405180830381600087803b158015610ec457600080fd5b505af1158015610ed8573d6000803e3d6000fd5b505050506040513d601f19601f82011682018060405250810190610efc91906131df565b5050505050505050505050565b60008054906101000a900473ffffffffffffffffffffffffffffffffffffffff1673ffffffffffffffffffffffffffffffffffffffff1663095ea7b37f0000000000000000000000000000000000000000000000000000000000000000856040518363ffffffff1660e01b8152600401610f849291906136f7565b602060405180830381600087803b158015610f9e57600080fd5b505af1158015610fb2573d6000803e3d6000fd5b505050506040513d601f19601f82011682018060405250810190610fd691906131df565b50600060405180610100016040528060008054906101000a900473ffffffffffffffffffffffffffffffffffffffff1673ffffffffffffffffffffffffffffffffffffffff1681526020018473ffffffffffffffffffffffffffffffffffffffff168152602001610bb862ffffff1681526020013073ffffffffffffffffffffffffffffffffffffffff168152602001610258426110749190613a01565b815260200185815260200160008152602001600073ffffffffffffffffffffffffffffffffffffffff16815250905060007f000000000000000000000000000000000000000000000000000000000000000073ffffffffffffffffffffffffffffffffffffffff1663f7729d4360008054906101000a900473ffffffffffffffffffffffffffffffffffffffff1686610bb88960006040518663ffffffff1660e01b81526004016111299594939291906135e3565b602060405180830381600087803b15801561114357600080fd5b505af1158015611157573d6000803e3d6000fd5b505050506040513d601f19601f8201168201806040525081019061117b9190613239565b90507f000000000000000000000000000000000000000000000000000000000000000073ffffffffffffffffffffffffffffffffffffffff1663414bf389836040518263ffffffff1660e01b81526004016111d691906138a9565b602060405180830381600087803b1580156111f057600080fd5b505af1158015611204573d6000803e3d6000fd5b505050506040513d601f19601f820116820180604052508101906112289190613239565b5060008490508073ffffffffffffffffffffffffffffffffffffffff1663095ea7b3600160009054906101000a900473ffffffffffffffffffffffffffffffffffffffff16846040518363ffffffff1660e01b815260040161128b9291906136f7565b602060405180830381600087803b1580156112a557600080fd5b505af11580156112b9573d6000803e3d6000fd5b505050506040513d601f19601f820116820180604052508101906112dd91906131df565b50600360009054906101000a900473ffffffffffffffffffffffffffffffffffffffff1673ffffffffffffffffffffffffffffffffffffffff1663617ba03786848760006040518563ffffffff1660e01b81526004016113409493929190613757565b600060405180830381600087803b15801561135a57600080fd5b505af115801561136e573d6000803e3d6000fd5b50505050600360009054906101000a900473ffffffffffffffffffffffffffffffffffffffff1673ffffffffffffffffffffffffffffffffffffffff1663a415bcad60008054906101000a900473ffffffffffffffffffffffffffffffffffffffff168860026000896040518663ffffffff1660e01b81526004016113f79594939291906137e1565b600060405180830381600087803b15801561141157600080fd5b505af1158015611425573d6000803e3d6000fd5b50505050505050505050565b8173ffffffffffffffffffffffffffffffffffffffff1663095ea7b37f0000000000000000000000000000000000000000000000000000000000000000856040518363ffffffff1660e01b815260040161148c9291906136f7565b602060405180830381600087803b1580156114a657600080fd5b505af11580156114ba573d6000803e3d6000fd5b505050506040513d601f19601f820116820180604052508101906114de91906131df565b5060006040518061010001604052808473ffffffffffffffffffffffffffffffffffffffff16815260200160008054906101000a900473ffffffffffffffffffffffffffffffffffffffff1673ffffffffffffffffffffffffffffffffffffffff168152602001610bb862ffffff1681526020013073ffffffffffffffffffffffffffffffffffffffff1681526020016102584261157c9190613a01565b815260200185815260200160008152602001600073ffffffffffffffffffffffffffffffffffffffff16815250905060007f000000000000000000000000000000000000000000000000000000000000000073ffffffffffffffffffffffffffffffffffffffff1663f7729d438560008054906101000a900473ffffffffffffffffffffffffffffffffffffffff16610bb88960006040518663ffffffff1660e01b81526004016116319594939291906135e3565b602060405180830381600087803b15801561164b57600080fd5b505af115801561165f573d6000803e3d6000fd5b505050506040513d601f19601f820116820180604052508101906116839190613239565b90507f000000000000000000000000000000000000000000000000000000000000000073ffffffffffffffffffffffffffffffffffffffff1663414bf389836040518263ffffffff1660e01b81526004016116de91906138a9565b602060405180830381600087803b1580156116f857600080fd5b505af115801561170c573d6000803e3d6000fd5b505050506040513d601f19601f820116820180604052508101906117309190613239565b5060008060009054906101000a900473ffffffffffffffffffffffffffffffffffffffff1690508073ffffffffffffffffffffffffffffffffffffffff1663095ea7b3600160009054906101000a900473ffffffffffffffffffffffffffffffffffffffff16846040518363ffffffff1660e01b81526004016117b49291906136f7565b602060405180830381600087803b1580156117ce57600080fd5b505af11580156117e2573d6000803e3d6000fd5b505050506040513d601f19601f8201168201806040525081019061180691906131df565b50600360009054906101000a900473ffffffffffffffffffffffffffffffffffffffff1673ffffffffffffffffffffffffffffffffffffffff1663617ba03760008054906101000a900473ffffffffffffffffffffffffffffffffffffffff16848760006040518563ffffffff1660e01b81526004016118899493929190613757565b600060405180830381600087803b1580156118a357600080fd5b505af11580156118b7573d6000803e3d6000fd5b50505050600360009054906101000a900473ffffffffffffffffffffffffffffffffffffffff1673ffffffffffffffffffffffffffffffffffffffff1663a415bcad868860026000896040518663ffffffff1660e01b81526004016119209594939291906137e1565b600060405180830381600087803b15801561193a57600080fd5b505af115801561194e573d6000803e3d6000fd5b50505050505050505050565b600081856119689190613a01565b905060008490508073ffffffffffffffffffffffffffffffffffffffff1663095ea7b37f0000000000000000000000000000000000000000000000000000000000000000846040518363ffffffff1660e01b81526004016119ca9291906136f7565b602060405180830381600087803b1580156119e457600080fd5b505af11580156119f8573d6000803e3d6000fd5b505050506040513d601f19601f82011682018060405250810190611a1c91906131df565b5060006040518061010001604052808773ffffffffffffffffffffffffffffffffffffffff16815260200160008054906101000a900473ffffffffffffffffffffffffffffffffffffffff1673ffffffffffffffffffffffffffffffffffffffff168152602001610bb862ffffff1681526020013073ffffffffffffffffffffffffffffffffffffffff16815260200161025842611aba9190613a01565b815260200188815260200160008152602001600073ffffffffffffffffffffffffffffffffffffffff16815250905060007f000000000000000000000000000000000000000000000000000000000000000073ffffffffffffffffffffffffffffffffffffffff1663f7729d438860008054906101000a900473ffffffffffffffffffffffffffffffffffffffff16610bb88c60006040518663ffffffff1660e01b8152600401611b6f9594939291906135e3565b602060405180830381600087803b158015611b8957600080fd5b505af1158015611b9d573d6000803e3d6000fd5b505050506040513d601f19601f82011682018060405250810190611bc19190613239565b90507f000000000000000000000000000000000000000000000000000000000000000073ffffffffffffffffffffffffffffffffffffffff1663414bf389836040518263ffffffff1660e01b8152600401611c1c91906138a9565b602060405180830381600087803b158015611c3657600080fd5b505af1158015611c4a573d6000803e3d6000fd5b505050506040513d601f19601f82011682018060405250810190611c6e9190613239565b5060008054906101000a900473ffffffffffffffffffffffffffffffffffffffff1673ffffffffffffffffffffffffffffffffffffffff1663095ea7b3600160009054906101000a900473ffffffffffffffffffffffffffffffffffffffff16836040518363ffffffff1660e01b8152600401611cec9291906136f7565b602060405180830381600087803b158015611d0657600080fd5b505af1158015611d1a573d6000803e3d6000fd5b505050506040513d601f19601f82011682018060405250810190611d3e91906131df565b50600360009054906101000a900473ffffffffffffffffffffffffffffffffffffffff1673ffffffffffffffffffffffffffffffffffffffff1663573ade8160008054906101000a900473ffffffffffffffffffffffffffffffffffffffff168360028a6040518563ffffffff1660e01b8152600401611dc1949392919061379c565b602060405180830381600087803b158015611ddb57600080fd5b505af1158015611def573d6000803e3d6000fd5b505050506040513d601f19601f82011682018060405250810190611e139190613239565b506000600260008973ffffffffffffffffffffffffffffffffffffffff1673ffffffffffffffffffffffffffffffffffffffff16815260200190815260200160002060009054906101000a900473ffffffffffffffffffffffffffffffffffffffff1690508073ffffffffffffffffffffffffffffffffffffffff166323b872dd8830886040518463ffffffff1660e01b8152600401611eb593929190613636565b602060405180830381600087803b158015611ecf57600080fd5b505af1158015611ee3573d6000803e3d6000fd5b505050506040513d601f19601f82011682018060405250810190611f0791906131df565b50600360009054906101000a900473ffffffffffffffffffffffffffffffffffffffff1673ffffffffffffffffffffffffffffffffffffffff166369328dec898373ffffffffffffffffffffffffffffffffffffffff166370a08231306040518263ffffffff1660e01b8152600401611f8091906135c8565b60206040518083038186803b158015611f9857600080fd5b505afa158015611fac573d6000803e3d6000fd5b505050506040513d601f19601f82011682018060405250810190611fd09190613239565b8a6040518463ffffffff1660e01b8152600401611fef93929190613720565b602060405180830381600087803b15801561200957600080fd5b505af115801561201d573d6000803e3d6000fd5b505050506040513d601f19601f820116820180604052508101906120419190613239565b508373ffffffffffffffffffffffffffffffffffffffff166323b872dd8830886040518463ffffffff1660e01b815260040161207f93929190613636565b602060405180830381600087803b15801561209957600080fd5b505af11580156120ad573d6000803e3d6000fd5b505050506040513d601f19601f820116820180604052508101906120d191906131df565b5060008611156124ae576040518061010001604052808973ffffffffffffffffffffffffffffffffffffffff16815260200160008054906101000a900473ffffffffffffffffffffffffffffffffffffffff1673ffffffffffffffffffffffffffffffffffffffff168152602001610bb862ffffff1681526020013073ffffffffffffffffffffffffffffffffffffffff168152602001610258426121769190613a01565b815260200187815260200160008152602001600073ffffffffffffffffffffffffffffffffffffffff1681525092507f000000000000000000000000000000000000000000000000000000000000000073ffffffffffffffffffffffffffffffffffffffff1663f7729d438960008054906101000a900473ffffffffffffffffffffffffffffffffffffffff16610bb88a60006040518663ffffffff1660e01b81526004016122299594939291906135e3565b602060405180830381600087803b15801561224357600080fd5b505af1158015612257573d6000803e3d6000fd5b505050506040513d601f19601f8201168201806040525081019061227b9190613239565b91507f000000000000000000000000000000000000000000000000000000000000000073ffffffffffffffffffffffffffffffffffffffff1663414bf389846040518263ffffffff1660e01b81526004016122d691906138a9565b602060405180830381600087803b1580156122f057600080fd5b505af1158015612304573d6000803e3d6000fd5b505050506040513d601f19601f820116820180604052508101906123289190613239565b5060008054906101000a900473ffffffffffffffffffffffffffffffffffffffff1673ffffffffffffffffffffffffffffffffffffffff1663095ea7b3600160009054906101000a900473ffffffffffffffffffffffffffffffffffffffff16846040518363ffffffff1660e01b81526004016123a69291906136f7565b602060405180830381600087803b1580156123c057600080fd5b505af11580156123d4573d6000803e3d6000fd5b505050506040513d601f19601f820116820180604052508101906123f891906131df565b50600360009054906101000a900473ffffffffffffffffffffffffffffffffffffffff1673ffffffffffffffffffffffffffffffffffffffff1663617ba03760008054906101000a900473ffffffffffffffffffffffffffffffffffffffff16848a60006040518563ffffffff1660e01b815260040161247b9493929190613757565b600060405180830381600087803b15801561249557600080fd5b505af11580156124a9573d6000803e3d6000fd5b505050505b505050505050505050565b600081856124c79190613a01565b905060008054906101000a900473ffffffffffffffffffffffffffffffffffffffff1673ffffffffffffffffffffffffffffffffffffffff1663095ea7b37f0000000000000000000000000000000000000000000000000000000000000000836040518363ffffffff1660e01b81526004016125449291906136f7565b602060405180830381600087803b15801561255e57600080fd5b505af1158015612572573d6000803e3d6000fd5b505050506040513d601f19601f8201168201806040525081019061259691906131df565b50600060405180610100016040528060008054906101000a900473ffffffffffffffffffffffffffffffffffffffff1673ffffffffffffffffffffffffffffffffffffffff1681526020018673ffffffffffffffffffffffffffffffffffffffff168152602001610bb862ffffff1681526020013073ffffffffffffffffffffffffffffffffffffffff168152602001610258426126349190613a01565b815260200187815260200160008152602001600073ffffffffffffffffffffffffffffffffffffffff16815250905060007f000000000000000000000000000000000000000000000000000000000000000073ffffffffffffffffffffffffffffffffffffffff1663f7729d4360008054906101000a900473ffffffffffffffffffffffffffffffffffffffff1688610bb88b60006040518663ffffffff1660e01b81526004016126e99594939291906135e3565b602060405180830381600087803b15801561270357600080fd5b505af1158015612717573d6000803e3d6000fd5b505050506040513d601f19601f8201168201806040525081019061273b9190613239565b90507f000000000000000000000000000000000000000000000000000000000000000073ffffffffffffffffffffffffffffffffffffffff1663414bf389836040518263ffffffff1660e01b815260040161279691906138a9565b602060405180830381600087803b1580156127b057600080fd5b505af11580156127c4573d6000803e3d6000fd5b505050506040513d601f19601f820116820180604052508101906127e89190613239565b5060008690508073ffffffffffffffffffffffffffffffffffffffff1663095ea7b3600160009054906101000a900473ffffffffffffffffffffffffffffffffffffffff16846040518363ffffffff1660e01b815260040161284b9291906136f7565b602060405180830381600087803b15801561286557600080fd5b505af1158015612879573d6000803e3d6000fd5b505050506040513d601f19601f8201168201806040525081019061289d91906131df565b50600360009054906101000a900473ffffffffffffffffffffffffffffffffffffffff1673ffffffffffffffffffffffffffffffffffffffff1663573ade81888460028a6040518563ffffffff1660e01b8152600401612900949392919061379c565b602060405180830381600087803b15801561291a57600080fd5b505af115801561292e573d6000803e3d6000fd5b505050506040513d601f19601f820116820180604052508101906129529190613239565b506000600260008060009054906101000a900473ffffffffffffffffffffffffffffffffffffffff1673ffffffffffffffffffffffffffffffffffffffff1673ffffffffffffffffffffffffffffffffffffffff16815260200190815260200160002060009054906101000a900473ffffffffffffffffffffffffffffffffffffffff1690508073ffffffffffffffffffffffffffffffffffffffff166323b872dd8830886040518463ffffffff1660e01b8152600401612a1593929190613636565b602060405180830381600087803b158015612a2f57600080fd5b505af1158015612a43573d6000803e3d6000fd5b505050506040513d601f19601f82011682018060405250810190612a6791906131df565b50600360009054906101000a900473ffffffffffffffffffffffffffffffffffffffff1673ffffffffffffffffffffffffffffffffffffffff166369328dec60008054906101000a900473ffffffffffffffffffffffffffffffffffffffff168373ffffffffffffffffffffffffffffffffffffffff166370a08231306040518263ffffffff1660e01b8152600401612b0091906135c8565b60206040518083038186803b158015612b1857600080fd5b505afa158015612b2c573d6000803e3d6000fd5b505050506040513d601f19601f82011682018060405250810190612b509190613239565b8a6040518463ffffffff1660e01b8152600401612b6f93929190613720565b602060405180830381600087803b158015612b8957600080fd5b505af1158015612b9d573d6000803e3d6000fd5b505050506040513d601f19601f82011682018060405250810190612bc19190613239565b5060008054906101000a900473ffffffffffffffffffffffffffffffffffffffff1673ffffffffffffffffffffffffffffffffffffffff166323b872dd8830886040518463ffffffff1660e01b8152600401612c1f93929190613636565b602060405180830381600087803b158015612c3957600080fd5b505af1158015612c4d573d6000803e3d6000fd5b505050506040513d601f19601f82011682018060405250810190612c7191906131df565b506000861115612e005760008054906101000a900473ffffffffffffffffffffffffffffffffffffffff1673ffffffffffffffffffffffffffffffffffffffff1663095ea7b3600160009054906101000a900473ffffffffffffffffffffffffffffffffffffffff16886040518363ffffffff1660e01b8152600401612cf89291906136f7565b602060405180830381600087803b158015612d1257600080fd5b505af1158015612d26573d6000803e3d6000fd5b505050506040513d601f19601f82011682018060405250810190612d4a91906131df565b50600360009054906101000a900473ffffffffffffffffffffffffffffffffffffffff1673ffffffffffffffffffffffffffffffffffffffff1663617ba03760008054906101000a900473ffffffffffffffffffffffffffffffffffffffff16888a60006040518563ffffffff1660e01b8152600401612dcd9493929190613757565b600060405180830381600087803b158015612de757600080fd5b505af1158015612dfb573d6000803e3d6000fd5b505050505b505050505050505050565b6000612e1e612e19846138ea565b6138c5565b90508083825260208201905082856020860282011115612e4157612e40613ca6565b5b60005b85811015612e715781612e57888261300b565b845260208401935060208301925050600181019050612e44565b5050509392505050565b6000612e8e612e8984613916565b6138c5565b90508083825260208201905082856020860282011115612eb157612eb0613ca6565b5b60005b85811015612ee15781612ec78882613020565b845260208401935060208301925050600181019050612eb4565b5050509392505050565b6000612efe612ef984613942565b6138c5565b905082815260208101848484011115612f1a57612f19613cab565b5b612f25848285613ba1565b509392505050565b600081359050612f3c81613ccb565b92915050565b600081519050612f5181613ccb565b92915050565b600081519050612f6681613ce2565b92915050565b600082601f830112612f8157612f80613ca1565b5b8135612f91848260208601612e0b565b91505092915050565b600082601f830112612faf57612fae613ca1565b5b8135612fbf848260208601612e7b565b91505092915050565b600081519050612fd781613cf9565b92915050565b600082601f830112612ff257612ff1613ca1565b5b8135613002848260208601612eeb565b91505092915050565b60008135905061301a81613d10565b92915050565b60008135905061302f81613d27565b92915050565b60008151905061304481613d27565b92915050565b60008135905061305981613d3e565b92915050565b60008151905061306e81613d3e565b92915050565b60006020828403121561308a57613089613cb5565b5b600061309884828501612f42565b91505092915050565b600080600080608085870312156130bb576130ba613cb5565b5b60006130c987828801612f57565b94505060206130da87828801612f57565b93505060406130eb8782880161305f565b92505060606130fc87828801613035565b91505092959194509250565b6000806000806080858703121561312257613121613cb5565b5b600085013567ffffffffffffffff8111156131405761313f613cb0565b5b61314c87828801612f6c565b945050602085013567ffffffffffffffff81111561316d5761316c613cb0565b5b61317987828801612f9a565b935050604085013567ffffffffffffffff81111561319a57613199613cb0565b5b6131a687828801612f9a565b925050606085013567ffffffffffffffff8111156131c7576131c6613cb0565b5b6131d387828801612fdd565b91505092959194509250565b6000602082840312156131f5576131f4613cb5565b5b600061320384828501612fc8565b91505092915050565b60006020828403121561322257613221613cb5565b5b600061323084828501613020565b91505092915050565b60006020828403121561324f5761324e613cb5565b5b600061325d84828501613035565b91505092915050565b60008060006060848603121561327f5761327e613cb5565b5b600061328d86828701613020565b935050602061329e86828701612f2d565b92505060406132af8682870161304a565b9150509250925092565b600080600080608085870312156132d3576132d2613cb5565b5b60006132e187828801613020565b94505060206132f287828801612f2d565b93505060406133038782880161304a565b925050606061331487828801613020565b91505092959194509250565b600061332c8383613472565b60208301905092915050565b6000613344838361359b565b60208301905092915050565b61335981613a57565b82525050565b61336881613a57565b82525050565b600061337982613993565b61338381856139ce565b935061338e83613973565b8060005b838110156133bf5781516133a68882613320565b97506133b1836139b4565b925050600181019050613392565b5085935050505092915050565b60006133d78261399e565b6133e181856139df565b93506133ec83613983565b8060005b8381101561341d5781516134048882613338565b975061340f836139c1565b9250506001810190506133f0565b5085935050505092915050565b6000613435826139a9565b61343f81856139f0565b935061344f818560208601613bb0565b61345881613cba565b840191505092915050565b61346c81613aed565b82525050565b61347b81613aff565b82525050565b61348a81613b11565b82525050565b61349981613b35565b82525050565b6134a881613b23565b82525050565b6134b781613b47565b82525050565b6134c681613b59565b82525050565b6134d581613b6b565b82525050565b610100820160008201516134f26000850182613350565b5060208201516135056020850182613350565b506040820151613518604085018261358c565b50606082015161352b6060850182613350565b50608082015161353e608085018261359b565b5060a082015161355160a085018261359b565b5060c082015161356460c085018261359b565b5060e082015161357760e085018261357d565b50505050565b61358681613aa7565b82525050565b61359581613ac7565b82525050565b6135a481613ad6565b82525050565b6135b381613ad6565b82525050565b6135c281613ae0565b82525050565b60006020820190506135dd600083018461335f565b92915050565b600060a0820190506135f8600083018861335f565b613605602083018761335f565b61361260408301866134cc565b61361f60608301856135aa565b61362c6080830184613490565b9695505050505050565b600060608201905061364b600083018661335f565b613658602083018561335f565b61366560408301846135aa565b949350505050565b6000608082019050613682600083018761335f565b61368f602083018661335f565b61369c60408301856135b9565b6136a960608301846134ae565b95945050505050565b60006080820190506136c7600083018761335f565b6136d4602083018661335f565b6136e160408301856135b9565b6136ee60608301846135aa565b95945050505050565b600060408201905061370c600083018561335f565b61371960208301846135aa565b9392505050565b6000606082019050613735600083018661335f565b61374260208301856135aa565b61374f604083018461335f565b949350505050565b600060808201905061376c600083018761335f565b61377960208301866135aa565b613786604083018561335f565b613793606083018461349f565b95945050505050565b60006080820190506137b1600083018761335f565b6137be60208301866135aa565b6137cb60408301856134bd565b6137d8606083018461335f565b95945050505050565b600060a0820190506137f6600083018861335f565b61380360208301876135aa565b61381060408301866134bd565b61381d606083018561349f565b61382a608083018461335f565b9695505050505050565b60006080820190506138496000830187613463565b818103602083015261385b818661336e565b9050818103604083015261386f81856133cc565b90508181036060830152613883818461342a565b905095945050505050565b60006020820190506138a36000830184613481565b92915050565b6000610100820190506138bf60008301846134db565b92915050565b60006138cf6138e0565b90506138db8282613be3565b919050565b6000604051905090565b600067ffffffffffffffff82111561390557613904613c72565b5b602082029050602081019050919050565b600067ffffffffffffffff82111561393157613930613c72565b5b602082029050602081019050919050565b600067ffffffffffffffff82111561395d5761395c613c72565b5b61396682613cba565b9050602081019050919050565b6000819050602082019050919050565b6000819050602082019050919050565b600081519050919050565b600081519050919050565b600081519050919050565b6000602082019050919050565b6000602082019050919050565b600082825260208201905092915050565b600082825260208201905092915050565b600082825260208201905092915050565b6000613a0c82613ad6565b9150613a1783613ad6565b9250827fffffffffffffffffffffffffffffffffffffffffffffffffffffffffffffffff03821115613a4c57613a4b613c14565b5b828201905092915050565b6000613a6282613aa7565b9050919050565b6000613a7482613aa7565b9050919050565b60008115159050919050565b6000613a9282613a57565b9050919050565b600061ffff82169050919050565b600073ffffffffffffffffffffffffffffffffffffffff82169050919050565b600062ffffff82169050919050565b6000819050919050565b600060ff82169050919050565b6000613af882613b7d565b9050919050565b6000613b0a82613b7d565b9050919050565b6000613b1c82613b7d565b9050919050565b6000613b2e82613a99565b9050919050565b6000613b4082613aa7565b9050919050565b6000613b5282613ae0565b9050919050565b6000613b6482613ad6565b9050919050565b6000613b7682613ac7565b9050919050565b6000613b8882613b8f565b9050919050565b6000613b9a82613aa7565b9050919050565b82818337600083830152505050565b60005b83811015613bce578082015181840152602081019050613bb3565b83811115613bdd576000848401525b50505050565b613bec82613cba565b810181811067ffffffffffffffff82111715613c0b57613c0a613c72565b5b80604052505050565b7f4e487b7100000000000000000000000000000000000000000000000000000000600052601160045260246000fd5b7f4e487b7100000000000000000000000000000000000000000000000000000000600052603260045260246000fd5b7f4e487b7100000000000000000000000000000000000000000000000000000000600052604160045260246000fd5b600080fd5b600080fd5b600080fd5b600080fd5b600080fd5b6000601f19601f8301169050919050565b613cd481613a57565b8114613cdf57600080fd5b50565b613ceb81613a69565b8114613cf657600080fd5b50565b613d0281613a7b565b8114613d0d57600080fd5b50565b613d1981613a87565b8114613d2457600080fd5b50565b613d3081613ad6565b8114613d3b57600080fd5b50565b613d4781613ae0565b8114613d5257600080fd5b5056fea26469706673582212203a1b7eb12453f70e3bb7d89fcdc6eb71f71651068c96e331dcda2d0bce16a8bc64736f6c63430008070033",
  "linkReferences": {},
  "deployedLinkReferences": {}
}