{
  "_format": "hh-sol-artifact-1",
  "contractName": "VariableDebtToken",
  "sourceName": "@aave/core-v3/contracts/protocol/tokenization/VariableDebtToken.sol",
  "abi": [
    {
      "inputs": [
        {
          "internalType": "contract IPool",
          "name": "pool",
          "type": "address"
        }
      ],
      "stateMutability": "nonpayable",
      "type": "constructor"
    },
    {
      "anonymous": false,
      "inputs": [
        {
          "indexed": true,
          "internalType": "address",
          "name": "owner",
          "type": "address"
        },
        {
          "indexed": true,
          "internalType": "address",
          "name": "spender",
          "type": "address"
        },
        {
          "indexed": false,
          "internalType": "uint256",
          "name": "value",
          "type": "uint256"
        }
      ],
      "name": "Approval",
      "type": "event"
    },
    {
      "anonymous": false,
      "inputs": [
        {
          "indexed": true,
          "internalType": "address",
          "name": "fromUser",
          "type": "address"
        },
        {
          "indexed": true,
          "internalType": "address",
          "name": "toUser",
          "type": "address"
        },
        {
          "indexed": true,
          "internalType": "address",
          "name": "asset",
          "type": "address"
        },
        {
          "indexed": false,
          "internalType": "uint256",
          "name": "amount",
          "type": "uint256"
        }
      ],
      "name": "BorrowAllowanceDelegated",
      "type": "event"
    },
    {
      "anonymous": false,
      "inputs": [
        {
          "indexed": true,
          "internalType": "address",
          "name": "from",
          "type": "address"
        },
        {
          "indexed": true,
          "internalType": "address",
          "name": "target",
          "type": "address"
        },
        {
          "indexed": false,
          "internalType": "uint256",
          "name": "value",
          "type": "uint256"
        },
        {
          "indexed": false,
          "internalType": "uint256",
          "name": "balanceIncrease",
          "type": "uint256"
        },
        {
          "indexed": false,
          "internalType": "uint256",
          "name": "index",
          "type": "uint256"
        }
      ],
      "name": "Burn",
      "type": "event"
    },
    {
      "anonymous": false,
      "inputs": [
        {
          "indexed": true,
          "internalType": "address",
          "name": "underlyingAsset",
          "type": "address"
        },
        {
          "indexed": true,
          "internalType": "address",
          "name": "pool",
          "type": "address"
        },
        {
          "indexed": false,
          "internalType": "address",
          "name": "incentivesController",
          "type": "address"
        },
        {
          "indexed": false,
          "internalType": "uint8",
          "name": "debtTokenDecimals",
          "type": "uint8"
        },
        {
          "indexed": false,
          "internalType": "string",
          "name": "debtTokenName",
          "type": "string"
        },
        {
          "indexed": false,
          "internalType": "string",
          "name": "debtTokenSymbol",
          "type": "string"
        },
        {
          "indexed": false,
          "internalType": "bytes",
          "name": "params",
          "type": "bytes"
        }
      ],
      "name": "Initialized",
      "type": "event"
    },
    {
      "anonymous": false,
      "inputs": [
        {
          "indexed": true,
          "internalType": "address",
          "name": "caller",
          "type": "address"
        },
        {
          "indexed": true,
          "internalType": "address",
          "name": "onBehalfOf",
          "type": "address"
        },
        {
          "indexed": false,
          "internalType": "uint256",
          "name": "value",
          "type": "uint256"
        },
        {
          "indexed": false,
          "internalType": "uint256",
          "name": "balanceIncrease",
          "type": "uint256"
        },
        {
          "indexed": false,
          "internalType": "uint256",
          "name": "index",
          "type": "uint256"
        }
      ],
      "name": "Mint",
      "type": "event"
    },
    {
      "anonymous": false,
      "inputs": [
        {
          "indexed": true,
          "internalType": "address",
          "name": "from",
          "type": "address"
        },
        {
          "indexed": true,
          "internalType": "address",
          "name": "to",
          "type": "address"
        },
        {
          "indexed": false,
          "internalType": "uint256",
          "name": "value",
          "type": "uint256"
        }
      ],
      "name": "Transfer",
      "type": "event"
    },
    {
      "inputs": [],
      "name": "DEBT_TOKEN_REVISION",
      "outputs": [
        {
          "internalType": "uint256",
          "name": "",
          "type": "uint256"
        }
      ],
      "stateMutability": "view",
      "type": "function"
    },
    {
      "inputs": [],
      "name": "DELEGATION_WITH_SIG_TYPEHASH",
      "outputs": [
        {
          "internalType": "bytes32",
          "name": "",
          "type": "bytes32"
        }
      ],
      "stateMutability": "view",
      "type": "function"
    },
    {
      "inputs": [],
      "name": "DOMAIN_SEPARATOR",
      "outputs": [
        {
          "internalType": "bytes32",
          "name": "",
          "type": "bytes32"
        }
      ],
      "stateMutability": "view",
      "type": "function"
    },
    {
      "inputs": [],
      "name": "EIP712_REVISION",
      "outputs": [
        {
          "internalType": "bytes",
          "name": "",
          "type": "bytes"
        }
      ],
      "stateMutability": "view",
      "type": "function"
    },
    {
      "inputs": [],
      "name": "POOL",
      "outputs": [
        {
          "internalType": "contract IPool",
          "name": "",
          "type": "address"
        }
      ],
      "stateMutability": "view",
      "type": "function"
    },
    {
      "inputs": [],
      "name": "UNDERLYING_ASSET_ADDRESS",
      "outputs": [
        {
          "internalType": "address",
          "name": "",
          "type": "address"
        }
      ],
      "stateMutability": "view",
      "type": "function"
    },
    {
      "inputs": [
        {
          "internalType": "address",
          "name": "",
          "type": "address"
        },
        {
          "internalType": "address",
          "name": "",
          "type": "address"
        }
      ],
      "name": "allowance",
      "outputs": [
        {
          "internalType": "uint256",
          "name": "",
          "type": "uint256"
        }
      ],
      "stateMutability": "view",
      "type": "function"
    },
    {
      "inputs": [
        {
          "internalType": "address",
          "name": "",
          "type": "address"
        },
        {
          "internalType": "uint256",
          "name": "",
          "type": "uint256"
        }
      ],
      "name": "approve",
      "outputs": [
        {
          "internalType": "bool",
          "name": "",
          "type": "bool"
        }
      ],
      "stateMutability": "nonpayable",
      "type": "function"
    },
    {
      "inputs": [
        {
          "internalType": "address",
          "name": "delegatee",
          "type": "address"
        },
        {
          "internalType": "uint256",
          "name": "amount",
          "type": "uint256"
        }
      ],
      "name": "approveDelegation",
      "outputs": [],
      "stateMutability": "nonpayable",
      "type": "function"
    },
    {
      "inputs": [
        {
          "internalType": "address",
          "name": "user",
          "type": "address"
        }
      ],
      "name": "balanceOf",
      "outputs": [
        {
          "internalType": "uint256",
          "name": "",
          "type": "uint256"
        }
      ],
      "stateMutability": "view",
      "type": "function"
    },
    {
      "inputs": [
        {
          "internalType": "address",
          "name": "fromUser",
          "type": "address"
        },
        {
          "internalType": "address",
          "name": "toUser",
          "type": "address"
        }
      ],
      "name": "borrowAllowance",
      "outputs": [
        {
          "internalType": "uint256",
          "name": "",
          "type": "uint256"
        }
      ],
      "stateMutability": "view",
      "type": "function"
    },
    {
      "inputs": [
        {
          "internalType": "address",
          "name": "from",
          "type": "address"
        },
        {
          "internalType": "uint256",
          "name": "amount",
          "type": "uint256"
        },
        {
          "internalType": "uint256",
          "name": "index",
          "type": "uint256"
        }
      ],
      "name": "burn",
      "outputs": [
        {
          "internalType": "uint256",
          "name": "",
          "type": "uint256"
        }
      ],
      "stateMutability": "nonpayable",
      "type": "function"
    },
    {
      "inputs": [],
      "name": "decimals",
      "outputs": [
        {
          "internalType": "uint8",
          "name": "",
          "type": "uint8"
        }
      ],
      "stateMutability": "view",
      "type": "function"
    },
    {
      "inputs": [
        {
          "internalType": "address",
          "name": "",
          "type": "address"
        },
        {
          "internalType": "uint256",
          "name": "",
          "type": "uint256"
        }
      ],
      "name": "decreaseAllowance",
      "outputs": [
        {
          "internalType": "bool",
          "name": "",
          "type": "bool"
        }
      ],
      "stateMutability": "nonpayable",
      "type": "function"
    },
    {
      "inputs": [
        {
          "internalType": "address",
          "name": "delegator",
          "type": "address"
        },
        {
          "internalType": "address",
          "name": "delegatee",
          "type": "address"
        },
        {
          "internalType": "uint256",
          "name": "value",
          "type": "uint256"
        },
        {
          "internalType": "uint256",
          "name": "deadline",
          "type": "uint256"
        },
        {
          "internalType": "uint8",
          "name": "v",
          "type": "uint8"
        },
        {
          "internalType": "bytes32",
          "name": "r",
          "type": "bytes32"
        },
        {
          "internalType": "bytes32",
          "name": "s",
          "type": "bytes32"
        }
      ],
      "name": "delegationWithSig",
      "outputs": [],
      "stateMutability": "nonpayable",
      "type": "function"
    },
    {
      "inputs": [],
      "name": "getIncentivesController",
      "outputs": [
        {
          "internalType": "contract IAaveIncentivesController",
          "name": "",
          "type": "address"
        }
      ],
      "stateMutability": "view",
      "type": "function"
    },
    {
      "inputs": [
        {
          "internalType": "address",
          "name": "user",
          "type": "address"
        }
      ],
      "name": "getPreviousIndex",
      "outputs": [
        {
          "internalType": "uint256",
          "name": "",
          "type": "uint256"
        }
      ],
      "stateMutability": "view",
      "type": "function"
    },
    {
      "inputs": [
        {
          "internalType": "address",
          "name": "user",
          "type": "address"
        }
      ],
      "name": "getScaledUserBalanceAndSupply",
      "outputs": [
        {
          "internalType": "uint256",
          "name": "",
          "type": "uint256"
        },
        {
          "internalType": "uint256",
          "name": "",
          "type": "uint256"
        }
      ],
      "stateMutability": "view",
      "type": "function"
    },
    {
      "inputs": [
        {
          "internalType": "address",
          "name": "",
          "type": "address"
        },
        {
          "internalType": "uint256",
          "name": "",
          "type": "uint256"
        }
      ],
      "name": "increaseAllowance",
      "outputs": [
        {
          "internalType": "bool",
          "name": "",
          "type": "bool"
        }
      ],
      "stateMutability": "nonpayable",
      "type": "function"
    },
    {
      "inputs": [
        {
          "internalType": "contract IPool",
          "name": "initializingPool",
          "type": "address"
        },
        {
          "internalType": "address",
          "name": "underlyingAsset",
          "type": "address"
        },
        {
          "internalType": "contract IAaveIncentivesController",
          "name": "incentivesController",
          "type": "address"
        },
        {
          "internalType": "uint8",
          "name": "debtTokenDecimals",
          "type": "uint8"
        },
        {
          "internalType": "string",
          "name": "debtTokenName",
          "type": "string"
        },
        {
          "internalType": "string",
          "name": "debtTokenSymbol",
          "type": "string"
        },
        {
          "internalType": "bytes",
          "name": "params",
          "type": "bytes"
        }
      ],
      "name": "initialize",
      "outputs": [],
      "stateMutability": "nonpayable",
      "type": "function"
    },
    {
      "inputs": [
        {
          "internalType": "address",
          "name": "user",
          "type": "address"
        },
        {
          "internalType": "address",
          "name": "onBehalfOf",
          "type": "address"
        },
        {
          "internalType": "uint256",
          "name": "amount",
          "type": "uint256"
        },
        {
          "internalType": "uint256",
          "name": "index",
          "type": "uint256"
        }
      ],
      "name": "mint",
      "outputs": [
        {
          "internalType": "bool",
          "name": "",
          "type": "bool"
        },
        {
          "internalType": "uint256",
          "name": "",
          "type": "uint256"
        }
      ],
      "stateMutability": "nonpayable",
      "type": "function"
    },
    {
      "inputs": [],
      "name": "name",
      "outputs": [
        {
          "internalType": "string",
          "name": "",
          "type": "string"
        }
      ],
      "stateMutability": "view",
      "type": "function"
    },
    {
      "inputs": [
        {
          "internalType": "address",
          "name": "owner",
          "type": "address"
        }
      ],
      "name": "nonces",
      "outputs": [
        {
          "internalType": "uint256",
          "name": "",
          "type": "uint256"
        }
      ],
      "stateMutability": "view",
      "type": "function"
    },
    {
      "inputs": [
        {
          "internalType": "address",
          "name": "user",
          "type": "address"
        }
      ],
      "name": "scaledBalanceOf",
      "outputs": [
        {
          "internalType": "uint256",
          "name": "",
          "type": "uint256"
        }
      ],
      "stateMutability": "view",
      "type": "function"
    },
    {
      "inputs": [],
      "name": "scaledTotalSupply",
      "outputs": [
        {
          "internalType": "uint256",
          "name": "",
          "type": "uint256"
        }
      ],
      "stateMutability": "view",
      "type": "function"
    },
    {
      "inputs": [
        {
          "internalType": "contract IAaveIncentivesController",
          "name": "controller",
          "type": "address"
        }
      ],
      "name": "setIncentivesController",
      "outputs": [],
      "stateMutability": "nonpayable",
      "type": "function"
    },
    {
      "inputs": [],
      "name": "symbol",
      "outputs": [
        {
          "internalType": "string",
          "name": "",
          "type": "string"
        }
      ],
      "stateMutability": "view",
      "type": "function"
    },
    {
      "inputs": [],
      "name": "totalSupply",
      "outputs": [
        {
          "internalType": "uint256",
          "name": "",
          "type": "uint256"
        }
      ],
      "stateMutability": "view",
      "type": "function"
    },
    {
      "inputs": [
        {
          "internalType": "address",
          "name": "",
          "type": "address"
        },
        {
          "internalType": "uint256",
          "name": "",
          "type": "uint256"
        }
      ],
      "name": "transfer",
      "outputs": [
        {
          "internalType": "bool",
          "name": "",
          "type": "bool"
        }
      ],
      "stateMutability": "nonpayable",
      "type": "function"
    },
    {
      "inputs": [
        {
          "internalType": "address",
          "name": "",
          "type": "address"
        },
        {
          "internalType": "address",
          "name": "",
          "type": "address"
        },
        {
          "internalType": "uint256",
          "name": "",
          "type": "uint256"
        }
      ],
      "name": "transferFrom",
      "outputs": [
        {
          "internalType": "bool",
          "name": "",
          "type": "bool"
        }
      ],
      "stateMutability": "nonpayable",
      "type": "function"
    }
  ],
  "bytecode": "0x60e0604052600080553480156200001557600080fd5b5060405162003e3f38038062003e3f83398181016040528101906200003b919062000321565b806040518060400160405280601881526020017f5641524941424c455f444542545f544f4b454e5f494d504c00000000000000008152506040518060400160405280601881526020017f5641524941424c455f444542545f544f4b454e5f494d504c00000000000000008152506000838383838383838346608081815250508373ffffffffffffffffffffffffffffffffffffffff16630542975c6040518163ffffffff1660e01b8152600401602060405180830381865afa15801562000106573d6000803e3d6000fd5b505050506040513d601f19601f820116820180604052508101906200012c919062000398565b73ffffffffffffffffffffffffffffffffffffffff1660a08173ffffffffffffffffffffffffffffffffffffffff168152505082603b908051906020019062000177929190620001f3565b5081603c908051906020019062000190929190620001f3565b5080603d60006101000a81548160ff021916908360ff1602179055508373ffffffffffffffffffffffffffffffffffffffff1660c08173ffffffffffffffffffffffffffffffffffffffff1681525050505050505050505050505050506200042f565b8280546200020190620003f9565b90600052602060002090601f01602090048101928262000225576000855562000271565b82601f106200024057805160ff191683800117855562000271565b8280016001018555821562000271579182015b828111156200027057825182559160200191906001019062000253565b5b50905062000280919062000284565b5090565b5b808211156200029f57600081600090555060010162000285565b5090565b600080fd5b600073ffffffffffffffffffffffffffffffffffffffff82169050919050565b6000620002d582620002a8565b9050919050565b6000620002e982620002c8565b9050919050565b620002fb81620002dc565b81146200030757600080fd5b50565b6000815190506200031b81620002f0565b92915050565b6000602082840312156200033a5762000339620002a3565b5b60006200034a848285016200030a565b91505092915050565b60006200036082620002c8565b9050919050565b620003728162000353565b81146200037e57600080fd5b50565b600081519050620003928162000367565b92915050565b600060208284031215620003b157620003b0620002a3565b5b6000620003c18482850162000381565b91505092915050565b7f4e487b7100000000000000000000000000000000000000000000000000000000600052602260045260246000fd5b600060028204905060018216806200041257607f821691505b60208210811415620004295762000428620003ca565b5b50919050565b60805160a05160c0516139b66200048960003960008181610ac901528181610d9e01528181610e72015281816110f8015281816112f40152818161146601526118010152600061161301526000610c3f01526139b66000f3fe608060405234801561001057600080fd5b50600436106101da5760003560e01c80637ecebe0011610104578063b9a7b622116100a2578063e075398611610071578063e0753986146105bf578063e655dbd8146105ef578063f3bfc7381461060b578063f5298aca14610629576101da565b8063b9a7b62214610539578063c04a8a1014610557578063c222ec8a14610573578063dd62ed3e1461058f576101da565b8063a9059cbb116100de578063a9059cbb1461049c578063b16a19de146104cc578063b1bf962d146104ea578063b3f1c93d14610508576101da565b80637ecebe001461041e57806395d89b411461044e578063a457c2d71461046c576101da565b8063313ce5671161017c57806370a082311161014b57806370a08231146103945780637535d246146103c457806375d26413146103e25780637816037614610400576101da565b8063313ce567146102f85780633644e5151461031657806339509351146103345780636bd76d2414610364576101da565b80630b52d558116101b85780630b52d5581461025e57806318160ddd1461027a5780631da24f3e1461029857806323b872dd146102c8576101da565b806306fdde03146101df578063095ea7b3146101fd5780630afbcdc91461022d575b600080fd5b6101e7610659565b6040516101f491906129d5565b60405180910390f35b61021760048036038101906102129190612a9f565b6106eb565b6040516102249190612afa565b60405180910390f35b61024760048036038101906102429190612b15565b61075f565b604051610255929190612b51565b60405180910390f35b61027860048036038101906102739190612be9565b61077c565b005b610282610ac2565b60405161028f9190612c8b565b60405180910390f35b6102b260048036038101906102ad9190612b15565b610b9e565b6040516102bf9190612c8b565b60405180910390f35b6102e260048036038101906102dd9190612ca6565b610bb0565b6040516102ef9190612afa565b60405180910390f35b610300610c24565b60405161030d9190612d08565b60405180910390f35b61031e610c3b565b60405161032b9190612d32565b60405180910390f35b61034e60048036038101906103499190612a9f565b610c7d565b60405161035b9190612afa565b60405180910390f35b61037e60048036038101906103799190612d4d565b610cf1565b60405161038b9190612c8b565b60405180910390f35b6103ae60048036038101906103a99190612b15565b610d78565b6040516103bb9190612c8b565b60405180910390f35b6103cc610e70565b6040516103d99190612dec565b60405180910390f35b6103ea610e94565b6040516103f79190612e28565b60405180910390f35b610408610ebe565b6040516104159190612e98565b60405180910390f35b61043860048036038101906104339190612b15565b610ef7565b6040516104459190612c8b565b60405180910390f35b610456610f40565b60405161046391906129d5565b60405180910390f35b61048660048036038101906104819190612a9f565b610fd2565b6040516104939190612afa565b60405180910390f35b6104b660048036038101906104b19190612a9f565b611046565b6040516104c39190612afa565b60405180910390f35b6104d46110ba565b6040516104e19190612ec9565b60405180910390f35b6104f26110e4565b6040516104ff9190612c8b565b60405180910390f35b610522600480360381019061051d9190612ee4565b6110f3565b604051610530929190612f4b565b60405180910390f35b610541611224565b60405161054e9190612c8b565b60405180910390f35b610571600480360381019061056c9190612a9f565b611229565b005b61058d60048036038101906105889190613185565b61123f565b005b6105a960048036038101906105a49190612d4d565b611521565b6040516105b69190612c8b565b60405180910390f35b6105d960048036038101906105d49190612b15565b611595565b6040516105e69190612c8b565b60405180910390f35b6106096004803603810190610604919061327f565b61160f565b005b6106136117d9565b6040516106209190612d32565b60405180910390f35b610643600480360381019061063e91906132ac565b6117fd565b6040516106509190612c8b565b60405180910390f35b6060603b80546106689061332e565b80601f01602080910402602001604051908101604052809291908181526020018280546106949061332e565b80156106e15780601f106106b6576101008083540402835291602001916106e1565b820191906000526020600020905b8154815290600101906020018083116106c457829003601f168201915b5050505050905090565b60006040518060400160405280600281526020017f38300000000000000000000000000000000000000000000000000000000000008152506040517f08c379a000000000000000000000000000000000000000000000000000000000815260040161075691906129d5565b60405180910390fd5b60008061076b836118eb565b610773611965565b91509150915091565b600073ffffffffffffffffffffffffffffffffffffffff168773ffffffffffffffffffffffffffffffffffffffff1614156040518060400160405280600281526020017f373700000000000000000000000000000000000000000000000000000000000081525090610824576040517f08c379a000000000000000000000000000000000000000000000000000000000815260040161081b91906129d5565b60405180910390fd5b50834211156040518060400160405280600281526020017f3738000000000000000000000000000000000000000000000000000000000000815250906108a0576040517f08c379a000000000000000000000000000000000000000000000000000000000815260040161089791906129d5565b60405180910390fd5b506000603460008973ffffffffffffffffffffffffffffffffffffffff1673ffffffffffffffffffffffffffffffffffffffff16815260200190815260200160002054905060006108ef610c3b565b7f323db0410fecc107e39e2af5908671f4c8d106123b35a51501bb805c5fa36aa08989858a604051602001610928959493929190613360565b6040516020818303038152906040528051906020012060405160200161094f92919061342b565b6040516020818303038152906040528051906020012090506001818686866040516000815260200160405260405161098a9493929190613462565b6020604051602081039080840390855afa1580156109ac573d6000803e3d6000fd5b5050506020604051035173ffffffffffffffffffffffffffffffffffffffff168973ffffffffffffffffffffffffffffffffffffffff16146040518060400160405280600281526020017f373900000000000000000000000000000000000000000000000000000000000081525090610a5b576040517f08c379a0000000000000000000000000000000000000000000000000000000008152600401610a5291906129d5565b60405180910390fd5b50600182610a6991906134d6565b603460008b73ffffffffffffffffffffffffffffffffffffffff1673ffffffffffffffffffffffffffffffffffffffff16815260200190815260200160002081905550610ab789898961196f565b505050505050505050565b6000610b997f000000000000000000000000000000000000000000000000000000000000000073ffffffffffffffffffffffffffffffffffffffff1663386497fd603760009054906101000a900473ffffffffffffffffffffffffffffffffffffffff166040518263ffffffff1660e01b8152600401610b429190612ec9565b602060405180830381865afa158015610b5f573d6000803e3d6000fd5b505050506040513d601f19601f82011682018060405250810190610b839190613541565b610b8b611965565b611a9390919063ffffffff16565b905090565b6000610ba9826118eb565b9050919050565b60006040518060400160405280600281526020017f38300000000000000000000000000000000000000000000000000000000000008152506040517f08c379a0000000000000000000000000000000000000000000000000000000008152600401610c1b91906129d5565b60405180910390fd5b6000603d60009054906101000a900460ff16905090565b60007f0000000000000000000000000000000000000000000000000000000000000000461415610c6f576035549050610c7a565b610c77611ade565b90505b90565b60006040518060400160405280600281526020017f38300000000000000000000000000000000000000000000000000000000000008152506040517f08c379a0000000000000000000000000000000000000000000000000000000008152600401610ce891906129d5565b60405180910390fd5b6000603660008473ffffffffffffffffffffffffffffffffffffffff1673ffffffffffffffffffffffffffffffffffffffff16815260200190815260200160002060008373ffffffffffffffffffffffffffffffffffffffff1673ffffffffffffffffffffffffffffffffffffffff16815260200190815260200160002054905092915050565b600080610d84836118eb565b90506000811415610d99576000915050610e6b565b610e677f000000000000000000000000000000000000000000000000000000000000000073ffffffffffffffffffffffffffffffffffffffff1663386497fd603760009054906101000a900473ffffffffffffffffffffffffffffffffffffffff166040518263ffffffff1660e01b8152600401610e179190612ec9565b602060405180830381865afa158015610e34573d6000803e3d6000fd5b505050506040513d601f19601f82011682018060405250810190610e589190613541565b82611a9390919063ffffffff16565b9150505b919050565b7f000000000000000000000000000000000000000000000000000000000000000081565b6000603d60019054906101000a900473ffffffffffffffffffffffffffffffffffffffff16905090565b6040518060400160405280600181526020017f310000000000000000000000000000000000000000000000000000000000000081525081565b6000603460008373ffffffffffffffffffffffffffffffffffffffff1673ffffffffffffffffffffffffffffffffffffffff168152602001908152602001600020549050919050565b6060603c8054610f4f9061332e565b80601f0160208091040260200160405190810160405280929190818152602001828054610f7b9061332e565b8015610fc85780601f10610f9d57610100808354040283529160200191610fc8565b820191906000526020600020905b815481529060010190602001808311610fab57829003601f168201915b5050505050905090565b60006040518060400160405280600281526020017f38300000000000000000000000000000000000000000000000000000000000008152506040517f08c379a000000000000000000000000000000000000000000000000000000000815260040161103d91906129d5565b60405180910390fd5b60006040518060400160405280600281526020017f38300000000000000000000000000000000000000000000000000000000000008152506040517f08c379a00000000000000000000000000000000000000000000000000000000081526004016110b191906129d5565b60405180910390fd5b6000603760009054906101000a900473ffffffffffffffffffffffffffffffffffffffff16905090565b60006110ee611965565b905090565b6000807f000000000000000000000000000000000000000000000000000000000000000073ffffffffffffffffffffffffffffffffffffffff16611135611b7e565b73ffffffffffffffffffffffffffffffffffffffff16146040518060400160405280600281526020017f3233000000000000000000000000000000000000000000000000000000000000815250906111c3576040517f08c379a00000000000000000000000000000000000000000000000000000000081526004016111ba91906129d5565b60405180910390fd5b508473ffffffffffffffffffffffffffffffffffffffff168673ffffffffffffffffffffffffffffffffffffffff161461120357611202858786611b86565b5b61120f86868686611d37565b6112176110e4565b9150915094509492505050565b600181565b61123b611234611b7e565b838361196f565b5050565b6000611249612001565b9050600160009054906101000a900460ff168061126a575061126961200a565b5b80611276575060005481115b6112b5576040517f08c379a00000000000000000000000000000000000000000000000000000000081526004016112ac906135e0565b60405180910390fd5b6000600160009054906101000a900460ff1615905080156112f25760018060006101000a81548160ff021916908315150217905550816000819055505b7f000000000000000000000000000000000000000000000000000000000000000073ffffffffffffffffffffffffffffffffffffffff168a73ffffffffffffffffffffffffffffffffffffffff16146040518060400160405280600281526020017f3837000000000000000000000000000000000000000000000000000000000000815250906113b8576040517f08c379a00000000000000000000000000000000000000000000000000000000081526004016113af91906129d5565b60405180910390fd5b506113c28661201b565b6113cb85612035565b6113d48761204f565b88603760006101000a81548173ffffffffffffffffffffffffffffffffffffffff021916908373ffffffffffffffffffffffffffffffffffffffff16021790555087603d60016101000a81548173ffffffffffffffffffffffffffffffffffffffff021916908373ffffffffffffffffffffffffffffffffffffffff16021790555061145e611ade565b6035819055507f000000000000000000000000000000000000000000000000000000000000000073ffffffffffffffffffffffffffffffffffffffff168973ffffffffffffffffffffffffffffffffffffffff167f40251fbfb6656cfa65a00d7879029fec1fad21d28fdcff2f4f68f52795b74f2c8a8a8a8a8a8a6040516114eb9695949392919061362d565b60405180910390a38015611515576000600160006101000a81548160ff0219169083151502179055505b50505050505050505050565b60006040518060400160405280600281526020017f38300000000000000000000000000000000000000000000000000000000000008152506040517f08c379a000000000000000000000000000000000000000000000000000000000815260040161158c91906129d5565b60405180910390fd5b6000603860008373ffffffffffffffffffffffffffffffffffffffff1673ffffffffffffffffffffffffffffffffffffffff16815260200190815260200160002060000160109054906101000a90046fffffffffffffffffffffffffffffffff166fffffffffffffffffffffffffffffffff169050919050565b60007f000000000000000000000000000000000000000000000000000000000000000073ffffffffffffffffffffffffffffffffffffffff1663707cd7166040518163ffffffff1660e01b8152600401602060405180830381865afa15801561167c573d6000803e3d6000fd5b505050506040513d601f19601f820116820180604052508101906116a091906136ac565b90508073ffffffffffffffffffffffffffffffffffffffff16637be53ca1336040518263ffffffff1660e01b81526004016116db9190612ec9565b602060405180830381865afa1580156116f8573d6000803e3d6000fd5b505050506040513d601f19601f8201168201806040525081019061171c9190613705565b6040518060400160405280600181526020017f310000000000000000000000000000000000000000000000000000000000000081525090611793576040517f08c379a000000000000000000000000000000000000000000000000000000000815260040161178a91906129d5565b60405180910390fd5b5081603d60016101000a81548173ffffffffffffffffffffffffffffffffffffffff021916908373ffffffffffffffffffffffffffffffffffffffff1602179055505050565b7f323db0410fecc107e39e2af5908671f4c8d106123b35a51501bb805c5fa36aa081565b60007f000000000000000000000000000000000000000000000000000000000000000073ffffffffffffffffffffffffffffffffffffffff1661183e611b7e565b73ffffffffffffffffffffffffffffffffffffffff16146040518060400160405280600281526020017f3233000000000000000000000000000000000000000000000000000000000000815250906118cc576040517f08c379a00000000000000000000000000000000000000000000000000000000081526004016118c391906129d5565b60405180910390fd5b506118da846000858561206d565b6118e26110e4565b90509392505050565b6000603860008373ffffffffffffffffffffffffffffffffffffffff1673ffffffffffffffffffffffffffffffffffffffff16815260200190815260200160002060000160009054906101000a90046fffffffffffffffffffffffffffffffff166fffffffffffffffffffffffffffffffff169050919050565b6000603a54905090565b80603660008573ffffffffffffffffffffffffffffffffffffffff1673ffffffffffffffffffffffffffffffffffffffff16815260200190815260200160002060008473ffffffffffffffffffffffffffffffffffffffff1673ffffffffffffffffffffffffffffffffffffffff16815260200190815260200160002081905550603760009054906101000a900473ffffffffffffffffffffffffffffffffffffffff1673ffffffffffffffffffffffffffffffffffffffff168273ffffffffffffffffffffffffffffffffffffffff168473ffffffffffffffffffffffffffffffffffffffff167fda919360433220e13b51e8c211e490d148e61a3bd53de8c097194e458b97f3e184604051611a869190612c8b565b60405180910390a4505050565b6000816b019d971e4fe8401e740000006000190304831115821517611ab757600080fd5b6b033b2e3c9fd0803ce80000006b019d971e4fe8401e740000008385020104905092915050565b60007f8b73c3c69bb8fe3d512ecc4cf759cc79239f7b179b0ffacaa9a75d522b39400f611b0961241c565b805190602001206040518060400160405280600181526020017f3100000000000000000000000000000000000000000000000000000000000000815250805190602001204630604051602001611b63959493929190613732565b60405160208183030381529060405280519060200120905090565b600033905090565b600081603660008673ffffffffffffffffffffffffffffffffffffffff1673ffffffffffffffffffffffffffffffffffffffff16815260200190815260200160002060008573ffffffffffffffffffffffffffffffffffffffff1673ffffffffffffffffffffffffffffffffffffffff16815260200190815260200160002054611c109190613785565b905080603660008673ffffffffffffffffffffffffffffffffffffffff1673ffffffffffffffffffffffffffffffffffffffff16815260200190815260200160002060008573ffffffffffffffffffffffffffffffffffffffff1673ffffffffffffffffffffffffffffffffffffffff16815260200190815260200160002081905550603760009054906101000a900473ffffffffffffffffffffffffffffffffffffffff1673ffffffffffffffffffffffffffffffffffffffff168373ffffffffffffffffffffffffffffffffffffffff168573ffffffffffffffffffffffffffffffffffffffff167fda919360433220e13b51e8c211e490d148e61a3bd53de8c097194e458b97f3e184604051611d299190612c8b565b60405180910390a450505050565b600080611d4d838561242b90919063ffffffff16565b905060008114156040518060400160405280600281526020017f323400000000000000000000000000000000000000000000000000000000000081525090611dcb576040517f08c379a0000000000000000000000000000000000000000000000000000000008152600401611dc291906129d5565b60405180910390fd5b506000611dd7866118eb565b90506000611e5e603860008973ffffffffffffffffffffffffffffffffffffffff1673ffffffffffffffffffffffffffffffffffffffff16815260200190815260200160002060000160109054906101000a90046fffffffffffffffffffffffffffffffff166fffffffffffffffffffffffffffffffff1683611a9390919063ffffffff16565b611e718684611a9390919063ffffffff16565b611e7b9190613785565b9050611e8685612472565b603860008973ffffffffffffffffffffffffffffffffffffffff1673ffffffffffffffffffffffffffffffffffffffff16815260200190815260200160002060000160106101000a8154816fffffffffffffffffffffffffffffffff02191690836fffffffffffffffffffffffffffffffff160217905550611f1087611f0b85612472565b6124d1565b60008187611f1e91906134d6565b90508773ffffffffffffffffffffffffffffffffffffffff16600073ffffffffffffffffffffffffffffffffffffffff167fddf252ad1be2c89b69c2b068fc378daa952ba7f163c4a11628f55a4df523b3ef83604051611f7e9190612c8b565b60405180910390a38773ffffffffffffffffffffffffffffffffffffffff168973ffffffffffffffffffffffffffffffffffffffff167f458f5fa412d0f69b08dd84872b0215675cc67bc1d5b6fd93300a1c3878b8619683858a604051611fe7939291906137b9565b60405180910390a360008314945050505050949350505050565b60006001905090565b600080303b90506000811491505090565b80603b9080519060200190612031929190612899565b5050565b80603c908051906020019061204b929190612899565b5050565b80603d60006101000a81548160ff021916908360ff16021790555050565b6000612082828461242b90919063ffffffff16565b905060008114156040518060400160405280600281526020017f323500000000000000000000000000000000000000000000000000000000000081525090612100576040517f08c379a00000000000000000000000000000000000000000000000000000000081526004016120f791906129d5565b60405180910390fd5b50600061210c866118eb565b90506000612193603860008973ffffffffffffffffffffffffffffffffffffffff1673ffffffffffffffffffffffffffffffffffffffff16815260200190815260200160002060000160109054906101000a90046fffffffffffffffffffffffffffffffff166fffffffffffffffffffffffffffffffff1683611a9390919063ffffffff16565b6121a68584611a9390919063ffffffff16565b6121b09190613785565b90506121bb84612472565b603860008973ffffffffffffffffffffffffffffffffffffffff1673ffffffffffffffffffffffffffffffffffffffff16815260200190815260200160002060000160106101000a8154816fffffffffffffffffffffffffffffffff02191690836fffffffffffffffffffffffffffffffff1602179055506122458761224085612472565b6126b5565b84811115612332576000858261225b9190613785565b90508773ffffffffffffffffffffffffffffffffffffffff16600073ffffffffffffffffffffffffffffffffffffffff167fddf252ad1be2c89b69c2b068fc378daa952ba7f163c4a11628f55a4df523b3ef836040516122bb9190612c8b565b60405180910390a38773ffffffffffffffffffffffffffffffffffffffff168873ffffffffffffffffffffffffffffffffffffffff167f458f5fa412d0f69b08dd84872b0215675cc67bc1d5b6fd93300a1c3878b86196838589604051612324939291906137b9565b60405180910390a350612413565b600081866123409190613785565b9050600073ffffffffffffffffffffffffffffffffffffffff168873ffffffffffffffffffffffffffffffffffffffff167fddf252ad1be2c89b69c2b068fc378daa952ba7f163c4a11628f55a4df523b3ef836040516123a09190612c8b565b60405180910390a38673ffffffffffffffffffffffffffffffffffffffff168873ffffffffffffffffffffffffffffffffffffffff167f4cf25bc1d991c17529c25213d3cc0cda295eeaad5f13f361969b12ea48015f90838589604051612409939291906137b9565b60405180910390a3505b50505050505050565b6060612426610659565b905090565b60006b033b2e3c9fd0803ce8000000600283046000190304831115158215171561245457600080fd5b81600283046b033b2e3c9fd0803ce800000085020104905092915050565b60006fffffffffffffffffffffffffffffffff80168211156124c9576040517f08c379a00000000000000000000000000000000000000000000000000000000081526004016124c090613862565b60405180910390fd5b819050919050565b6000603a549050816fffffffffffffffffffffffffffffffff16816124f691906134d6565b603a819055506000603860008573ffffffffffffffffffffffffffffffffffffffff1673ffffffffffffffffffffffffffffffffffffffff16815260200190815260200160002060000160009054906101000a90046fffffffffffffffffffffffffffffffff169050828161256b919061389e565b603860008673ffffffffffffffffffffffffffffffffffffffff1673ffffffffffffffffffffffffffffffffffffffff16815260200190815260200160002060000160006101000a8154816fffffffffffffffffffffffffffffffff02191690836fffffffffffffffffffffffffffffffff1602179055506000603d60019054906101000a900473ffffffffffffffffffffffffffffffffffffffff169050600073ffffffffffffffffffffffffffffffffffffffff168173ffffffffffffffffffffffffffffffffffffffff16146126ae578073ffffffffffffffffffffffffffffffffffffffff166331873e2e8685856040518463ffffffff1660e01b815260040161267b93929190613915565b600060405180830381600087803b15801561269557600080fd5b505af11580156126a9573d6000803e3d6000fd5b505050505b5050505050565b6000603a549050816fffffffffffffffffffffffffffffffff16816126da9190613785565b603a819055506000603860008573ffffffffffffffffffffffffffffffffffffffff1673ffffffffffffffffffffffffffffffffffffffff16815260200190815260200160002060000160009054906101000a90046fffffffffffffffffffffffffffffffff169050828161274f919061394c565b603860008673ffffffffffffffffffffffffffffffffffffffff1673ffffffffffffffffffffffffffffffffffffffff16815260200190815260200160002060000160006101000a8154816fffffffffffffffffffffffffffffffff02191690836fffffffffffffffffffffffffffffffff1602179055506000603d60019054906101000a900473ffffffffffffffffffffffffffffffffffffffff169050600073ffffffffffffffffffffffffffffffffffffffff168173ffffffffffffffffffffffffffffffffffffffff1614612892578073ffffffffffffffffffffffffffffffffffffffff166331873e2e8685856040518463ffffffff1660e01b815260040161285f93929190613915565b600060405180830381600087803b15801561287957600080fd5b505af115801561288d573d6000803e3d6000fd5b505050505b5050505050565b8280546128a59061332e565b90600052602060002090601f0160209004810192826128c7576000855561290e565b82601f106128e057805160ff191683800117855561290e565b8280016001018555821561290e579182015b8281111561290d5782518255916020019190600101906128f2565b5b50905061291b919061291f565b5090565b5b80821115612938576000816000905550600101612920565b5090565b600081519050919050565b600082825260208201905092915050565b60005b8381101561297657808201518184015260208101905061295b565b83811115612985576000848401525b50505050565b6000601f19601f8301169050919050565b60006129a78261293c565b6129b18185612947565b93506129c1818560208601612958565b6129ca8161298b565b840191505092915050565b600060208201905081810360008301526129ef818461299c565b905092915050565b6000604051905090565b600080fd5b600080fd5b600073ffffffffffffffffffffffffffffffffffffffff82169050919050565b6000612a3682612a0b565b9050919050565b612a4681612a2b565b8114612a5157600080fd5b50565b600081359050612a6381612a3d565b92915050565b6000819050919050565b612a7c81612a69565b8114612a8757600080fd5b50565b600081359050612a9981612a73565b92915050565b60008060408385031215612ab657612ab5612a01565b5b6000612ac485828601612a54565b9250506020612ad585828601612a8a565b9150509250929050565b60008115159050919050565b612af481612adf565b82525050565b6000602082019050612b0f6000830184612aeb565b92915050565b600060208284031215612b2b57612b2a612a01565b5b6000612b3984828501612a54565b91505092915050565b612b4b81612a69565b82525050565b6000604082019050612b666000830185612b42565b612b736020830184612b42565b9392505050565b600060ff82169050919050565b612b9081612b7a565b8114612b9b57600080fd5b50565b600081359050612bad81612b87565b92915050565b6000819050919050565b612bc681612bb3565b8114612bd157600080fd5b50565b600081359050612be381612bbd565b92915050565b600080600080600080600060e0888a031215612c0857612c07612a01565b5b6000612c168a828b01612a54565b9750506020612c278a828b01612a54565b9650506040612c388a828b01612a8a565b9550506060612c498a828b01612a8a565b9450506080612c5a8a828b01612b9e565b93505060a0612c6b8a828b01612bd4565b92505060c0612c7c8a828b01612bd4565b91505092959891949750929550565b6000602082019050612ca06000830184612b42565b92915050565b600080600060608486031215612cbf57612cbe612a01565b5b6000612ccd86828701612a54565b9350506020612cde86828701612a54565b9250506040612cef86828701612a8a565b9150509250925092565b612d0281612b7a565b82525050565b6000602082019050612d1d6000830184612cf9565b92915050565b612d2c81612bb3565b82525050565b6000602082019050612d476000830184612d23565b92915050565b60008060408385031215612d6457612d63612a01565b5b6000612d7285828601612a54565b9250506020612d8385828601612a54565b9150509250929050565b6000819050919050565b6000612db2612dad612da884612a0b565b612d8d565b612a0b565b9050919050565b6000612dc482612d97565b9050919050565b6000612dd682612db9565b9050919050565b612de681612dcb565b82525050565b6000602082019050612e016000830184612ddd565b92915050565b6000612e1282612db9565b9050919050565b612e2281612e07565b82525050565b6000602082019050612e3d6000830184612e19565b92915050565b600081519050919050565b600082825260208201905092915050565b6000612e6a82612e43565b612e748185612e4e565b9350612e84818560208601612958565b612e8d8161298b565b840191505092915050565b60006020820190508181036000830152612eb28184612e5f565b905092915050565b612ec381612a2b565b82525050565b6000602082019050612ede6000830184612eba565b92915050565b60008060008060808587031215612efe57612efd612a01565b5b6000612f0c87828801612a54565b9450506020612f1d87828801612a54565b9350506040612f2e87828801612a8a565b9250506060612f3f87828801612a8a565b91505092959194509250565b6000604082019050612f606000830185612aeb565b612f6d6020830184612b42565b9392505050565b6000612f7f82612a2b565b9050919050565b612f8f81612f74565b8114612f9a57600080fd5b50565b600081359050612fac81612f86565b92915050565b6000612fbd82612a2b565b9050919050565b612fcd81612fb2565b8114612fd857600080fd5b50565b600081359050612fea81612fc4565b92915050565b600080fd5b600080fd5b7f4e487b7100000000000000000000000000000000000000000000000000000000600052604160045260246000fd5b6130328261298b565b810181811067ffffffffffffffff8211171561305157613050612ffa565b5b80604052505050565b60006130646129f7565b90506130708282613029565b919050565b600067ffffffffffffffff8211156130905761308f612ffa565b5b6130998261298b565b9050602081019050919050565b82818337600083830152505050565b60006130c86130c384613075565b61305a565b9050828152602081018484840111156130e4576130e3612ff5565b5b6130ef8482856130a6565b509392505050565b600082601f83011261310c5761310b612ff0565b5b813561311c8482602086016130b5565b91505092915050565b600080fd5b600080fd5b60008083601f84011261314557613144612ff0565b5b8235905067ffffffffffffffff81111561316257613161613125565b5b60208301915083600182028301111561317e5761317d61312a565b5b9250929050565b60008060008060008060008060e0898b0312156131a5576131a4612a01565b5b60006131b38b828c01612f9d565b98505060206131c48b828c01612a54565b97505060406131d58b828c01612fdb565b96505060606131e68b828c01612b9e565b955050608089013567ffffffffffffffff81111561320757613206612a06565b5b6132138b828c016130f7565b94505060a089013567ffffffffffffffff81111561323457613233612a06565b5b6132408b828c016130f7565b93505060c089013567ffffffffffffffff81111561326157613260612a06565b5b61326d8b828c0161312f565b92509250509295985092959890939650565b60006020828403121561329557613294612a01565b5b60006132a384828501612fdb565b91505092915050565b6000806000606084860312156132c5576132c4612a01565b5b60006132d386828701612a54565b93505060206132e486828701612a8a565b92505060406132f586828701612a8a565b9150509250925092565b7f4e487b7100000000000000000000000000000000000000000000000000000000600052602260045260246000fd5b6000600282049050600182168061334657607f821691505b6020821081141561335a576133596132ff565b5b50919050565b600060a0820190506133756000830188612d23565b6133826020830187612eba565b61338f6040830186612b42565b61339c6060830185612b42565b6133a96080830184612b42565b9695505050505050565b600081905092915050565b7f1901000000000000000000000000000000000000000000000000000000000000600082015250565b60006133f46002836133b3565b91506133ff826133be565b600282019050919050565b6000819050919050565b61342561342082612bb3565b61340a565b82525050565b6000613436826133e7565b91506134428285613414565b6020820191506134528284613414565b6020820191508190509392505050565b60006080820190506134776000830187612d23565b6134846020830186612cf9565b6134916040830185612d23565b61349e6060830184612d23565b95945050505050565b7f4e487b7100000000000000000000000000000000000000000000000000000000600052601160045260246000fd5b60006134e182612a69565b91506134ec83612a69565b9250827fffffffffffffffffffffffffffffffffffffffffffffffffffffffffffffffff03821115613521576135206134a7565b5b828201905092915050565b60008151905061353b81612a73565b92915050565b60006020828403121561355757613556612a01565b5b60006135658482850161352c565b91505092915050565b7f436f6e747261637420696e7374616e63652068617320616c726561647920626560008201527f656e20696e697469616c697a6564000000000000000000000000000000000000602082015250565b60006135ca602e83612947565b91506135d58261356e565b604082019050919050565b600060208201905081810360008301526135f9816135bd565b9050919050565b600061360c8385612e4e565b93506136198385846130a6565b6136228361298b565b840190509392505050565b600060a0820190506136426000830189612eba565b61364f6020830188612cf9565b8181036040830152613661818761299c565b90508181036060830152613675818661299c565b9050818103608083015261368a818486613600565b9050979650505050505050565b6000815190506136a681612a3d565b92915050565b6000602082840312156136c2576136c1612a01565b5b60006136d084828501613697565b91505092915050565b6136e281612adf565b81146136ed57600080fd5b50565b6000815190506136ff816136d9565b92915050565b60006020828403121561371b5761371a612a01565b5b6000613729848285016136f0565b91505092915050565b600060a0820190506137476000830188612d23565b6137546020830187612d23565b6137616040830186612d23565b61376e6060830185612b42565b61377b6080830184612eba565b9695505050505050565b600061379082612a69565b915061379b83612a69565b9250828210156137ae576137ad6134a7565b5b828203905092915050565b60006060820190506137ce6000830186612b42565b6137db6020830185612b42565b6137e86040830184612b42565b949350505050565b7f53616665436173743a2076616c756520646f65736e27742066697420696e203160008201527f3238206269747300000000000000000000000000000000000000000000000000602082015250565b600061384c602783612947565b9150613857826137f0565b604082019050919050565b6000602082019050818103600083015261387b8161383f565b9050919050565b60006fffffffffffffffffffffffffffffffff82169050919050565b60006138a982613882565b91506138b483613882565b9250826fffffffffffffffffffffffffffffffff038211156138d9576138d86134a7565b5b828201905092915050565b60006138ff6138fa6138f584613882565b612d8d565b612a69565b9050919050565b61390f816138e4565b82525050565b600060608201905061392a6000830186612eba565b6139376020830185612b42565b6139446040830184613906565b949350505050565b600061395782613882565b915061396283613882565b925082821015613975576139746134a7565b5b82820390509291505056fea2646970667358221220195f8cf88490d41fa902a6fdce0ad4f445575454147ac4aa00ce201fb088524564736f6c634300080a0033",
  "linkReferences": {},
  "deployedLinkReferences": {}
}